{
  "_format": "hh-sol-artifact-1",
  "contractName": "AccessGrantsV1",
  "sourceName": "contracts/AccessGrantsV1.sol",
  "abi": [
    {
      "inputs": [],
      "stateMutability": "nonpayable",
      "type": "constructor"
    },
    {
      "inputs": [
        {
          "internalType": "address",
          "name": "target",
          "type": "address"
        }
      ],
      "name": "AddressEmptyCode",
      "type": "error"
    },
    {
      "inputs": [
        {
          "internalType": "address",
          "name": "implementation",
          "type": "address"
        }
      ],
      "name": "ERC1967InvalidImplementation",
      "type": "error"
    },
    {
      "inputs": [],
      "name": "ERC1967NonPayable",
      "type": "error"
    },
    {
      "inputs": [],
      "name": "FailedInnerCall",
      "type": "error"
    },
    {
      "inputs": [],
      "name": "InvalidInitialization",
      "type": "error"
    },
    {
      "inputs": [],
      "name": "NotInitializing",
      "type": "error"
    },
    {
      "inputs": [
        {
          "internalType": "address",
          "name": "owner",
          "type": "address"
        }
      ],
      "name": "OwnableInvalidOwner",
      "type": "error"
    },
    {
      "inputs": [
        {
          "internalType": "address",
          "name": "account",
          "type": "address"
        }
      ],
      "name": "OwnableUnauthorizedAccount",
      "type": "error"
    },
    {
      "inputs": [
        {
          "internalType": "uint256",
          "name": "value",
          "type": "uint256"
        },
        {
          "internalType": "uint256",
          "name": "length",
          "type": "uint256"
        }
      ],
      "name": "StringsInsufficientHexLength",
      "type": "error"
    },
    {
      "inputs": [],
      "name": "UUPSUnauthorizedCallContext",
      "type": "error"
    },
    {
      "inputs": [
        {
          "internalType": "bytes32",
          "name": "slot",
          "type": "bytes32"
        }
      ],
      "name": "UUPSUnsupportedProxiableUUID",
      "type": "error"
    },
    {
      "anonymous": false,
      "inputs": [
        {
          "indexed": true,
          "internalType": "address",
          "name": "owner",
          "type": "address"
        },
        {
          "indexed": true,
          "internalType": "address",
          "name": "grantee",
          "type": "address"
        },
        {
          "indexed": true,
          "internalType": "string",
          "name": "dataId",
          "type": "string"
        },
        {
          "indexed": false,
          "internalType": "uint256",
          "name": "lockedUntil",
          "type": "uint256"
        }
      ],
      "name": "GrantAdded",
      "type": "event"
    },
    {
      "anonymous": false,
      "inputs": [
        {
          "indexed": true,
          "internalType": "address",
          "name": "owner",
          "type": "address"
        },
        {
          "indexed": true,
          "internalType": "address",
          "name": "grantee",
          "type": "address"
        },
        {
          "indexed": true,
          "internalType": "string",
          "name": "dataId",
          "type": "string"
        },
        {
          "indexed": false,
          "internalType": "uint256",
          "name": "lockedUntil",
          "type": "uint256"
        }
      ],
      "name": "GrantDeleted",
      "type": "event"
    },
    {
      "anonymous": false,
      "inputs": [
        {
          "indexed": false,
          "internalType": "uint64",
          "name": "version",
          "type": "uint64"
        }
      ],
      "name": "Initialized",
      "type": "event"
    },
    {
      "anonymous": false,
      "inputs": [
        {
          "indexed": true,
          "internalType": "address",
          "name": "previousOwner",
          "type": "address"
        },
        {
          "indexed": true,
          "internalType": "address",
          "name": "newOwner",
          "type": "address"
        }
      ],
      "name": "OwnershipTransferred",
      "type": "event"
    },
    {
      "anonymous": false,
      "inputs": [
        {
          "indexed": true,
          "internalType": "address",
          "name": "implementation",
          "type": "address"
        }
      ],
      "name": "Upgraded",
      "type": "event"
    },
    {
      "inputs": [],
      "name": "UPGRADE_INTERFACE_VERSION",
      "outputs": [
        {
          "internalType": "string",
          "name": "",
          "type": "string"
        }
      ],
      "stateMutability": "view",
      "type": "function"
    },
    {
      "inputs": [
        {
          "internalType": "address",
          "name": "grantee",
          "type": "address"
        },
        {
          "internalType": "string",
          "name": "dataId",
          "type": "string"
        },
        {
          "internalType": "uint256",
          "name": "lockedUntil",
          "type": "uint256"
        }
      ],
      "name": "deleteGrant",
      "outputs": [],
      "stateMutability": "nonpayable",
      "type": "function"
    },
    {
      "inputs": [
        {
          "internalType": "address",
          "name": "owner",
          "type": "address"
        },
        {
          "internalType": "address",
          "name": "grantee",
          "type": "address"
        },
        {
          "internalType": "string",
          "name": "dataId",
          "type": "string"
        },
        {
          "internalType": "uint256",
          "name": "lockedUntil",
          "type": "uint256"
        },
        {
          "internalType": "bytes",
          "name": "signature",
          "type": "bytes"
        }
      ],
      "name": "deleteGrantBySignature",
      "outputs": [],
      "stateMutability": "nonpayable",
      "type": "function"
    },
    {
      "inputs": [
        {
          "internalType": "address",
          "name": "owner",
          "type": "address"
        },
        {
          "internalType": "address",
          "name": "grantee",
          "type": "address"
        },
        {
          "internalType": "string",
          "name": "dataId",
          "type": "string"
        },
        {
          "internalType": "uint256",
          "name": "lockedUntil",
          "type": "uint256"
        }
      ],
      "name": "deleteGrantBySignatureMessage",
      "outputs": [
        {
          "internalType": "string",
          "name": "",
          "type": "string"
        }
      ],
      "stateMutability": "pure",
      "type": "function"
    },
    {
      "inputs": [
        {
          "internalType": "address",
          "name": "owner",
          "type": "address"
        },
        {
          "internalType": "address",
          "name": "grantee",
          "type": "address"
        },
        {
          "internalType": "string",
          "name": "dataId",
          "type": "string"
        }
      ],
      "name": "findGrants",
      "outputs": [
        {
          "components": [
            {
              "internalType": "address",
              "name": "owner",
              "type": "address"
            },
            {
              "internalType": "address",
              "name": "grantee",
              "type": "address"
            },
            {
              "internalType": "string",
              "name": "dataId",
              "type": "string"
            },
            {
              "internalType": "uint256",
              "name": "lockedUntil",
              "type": "uint256"
            }
          ],
          "internalType": "struct AccessGrantsV1.Grant[]",
          "name": "",
          "type": "tuple[]"
        }
      ],
      "stateMutability": "view",
      "type": "function"
    },
    {
      "inputs": [
        {
          "internalType": "address",
          "name": "grantee",
          "type": "address"
        },
        {
          "internalType": "string",
          "name": "dataId",
          "type": "string"
        }
      ],
      "name": "grantsFor",
      "outputs": [
        {
          "components": [
            {
              "internalType": "address",
              "name": "owner",
              "type": "address"
            },
            {
              "internalType": "address",
              "name": "grantee",
              "type": "address"
            },
            {
              "internalType": "string",
              "name": "dataId",
              "type": "string"
            },
            {
              "internalType": "uint256",
              "name": "lockedUntil",
              "type": "uint256"
            }
          ],
          "internalType": "struct AccessGrantsV1.Grant[]",
          "name": "",
          "type": "tuple[]"
        }
      ],
      "stateMutability": "view",
      "type": "function"
    },
    {
      "inputs": [],
      "name": "initialize",
      "outputs": [],
      "stateMutability": "nonpayable",
      "type": "function"
    },
    {
      "inputs": [
        {
          "internalType": "address",
          "name": "grantee",
          "type": "address"
        },
        {
          "internalType": "string",
          "name": "dataId",
          "type": "string"
        },
        {
          "internalType": "uint256",
          "name": "lockedUntil",
          "type": "uint256"
        }
      ],
      "name": "insertGrant",
      "outputs": [],
      "stateMutability": "nonpayable",
      "type": "function"
    },
    {
      "inputs": [
        {
          "internalType": "address",
          "name": "owner",
          "type": "address"
        },
        {
          "internalType": "address",
          "name": "grantee",
          "type": "address"
        },
        {
          "internalType": "string",
          "name": "dataId",
          "type": "string"
        },
        {
          "internalType": "uint256",
          "name": "lockedUntil",
          "type": "uint256"
        },
        {
          "internalType": "bytes",
          "name": "signature",
          "type": "bytes"
        }
      ],
      "name": "insertGrantBySignature",
      "outputs": [],
      "stateMutability": "nonpayable",
      "type": "function"
    },
    {
      "inputs": [
        {
          "internalType": "address",
          "name": "owner",
          "type": "address"
        },
        {
          "internalType": "address",
          "name": "grantee",
          "type": "address"
        },
        {
          "internalType": "string",
          "name": "dataId",
          "type": "string"
        },
        {
          "internalType": "uint256",
          "name": "lockedUntil",
          "type": "uint256"
        }
      ],
      "name": "insertGrantBySignatureMessage",
      "outputs": [
        {
          "internalType": "string",
          "name": "",
          "type": "string"
        }
      ],
      "stateMutability": "pure",
      "type": "function"
    },
    {
      "inputs": [],
      "name": "owner",
      "outputs": [
        {
          "internalType": "address",
          "name": "",
          "type": "address"
        }
      ],
      "stateMutability": "view",
      "type": "function"
    },
    {
      "inputs": [],
      "name": "proxiableUUID",
      "outputs": [
        {
          "internalType": "bytes32",
          "name": "",
          "type": "bytes32"
        }
      ],
      "stateMutability": "view",
      "type": "function"
    },
    {
      "inputs": [],
      "name": "renounceOwnership",
      "outputs": [],
      "stateMutability": "nonpayable",
      "type": "function"
    },
    {
      "inputs": [
        {
          "internalType": "address",
          "name": "newOwner",
          "type": "address"
        }
      ],
      "name": "transferOwnership",
      "outputs": [],
      "stateMutability": "nonpayable",
      "type": "function"
    },
    {
      "inputs": [
        {
          "internalType": "address",
          "name": "newImplementation",
          "type": "address"
        },
        {
          "internalType": "bytes",
          "name": "data",
          "type": "bytes"
        }
      ],
      "name": "upgradeToAndCall",
      "outputs": [],
      "stateMutability": "payable",
      "type": "function"
    }
  ],
  "bytecode": "0x60a06040523060805234801562000014575f80fd5b506200001f62000025565b620000d9565b7ff0c57e16840df040f15088dc2f81fe391c3923bec73e23a9662efc9c229c6a00805468010000000000000000900460ff1615620000765760405163f92ee8a960e01b815260040160405180910390fd5b80546001600160401b0390811614620000d65780546001600160401b0319166001600160401b0390811782556040519081527fc7f505b2f371ae2175ee4913f4499e1f2633a7b5936321eed1cdaeb6115181d29060200160405180910390a15b50565b60805161277b620001005f395f8181610ef701528181610f20015261109e015261277b5ff3fe6080604052600436106100e4575f3560e01c80638129fc1c11610087578063b25875b911610057578063b25875b914610293578063b7dd8865146102b2578063c28c6524146102d1578063f2fde38b146102f0575f80fd5b80638129fc1c146101d25780638da5cb5b146101e6578063ad3cb1cc1461022c578063b14d52d514610274575f80fd5b80634f1ef286116100c25780634f1ef2861461015d57806352d1902d14610170578063715018a6146101925780637e0cc3a2146101a6575f80fd5b8063236c7062146100e85780632ae120521461011d5780634ba0b0621461013c575b5f80fd5b3480156100f3575f80fd5b50610107610102366004611e78565b61030f565b6040516101149190611f29565b60405180910390f35b348015610128575f80fd5b50610107610137366004611e78565b61035c565b348015610147575f80fd5b5061015b610156366004611f3b565b61038f565b005b61015b61016b366004612056565b61044a565b34801561017b575f80fd5b50610184610469565b604051908152602001610114565b34801561019d575f80fd5b5061015b610497565b3480156101b1575f80fd5b506101c56101c03660046120d2565b6104aa565b604051610114919061212c565b3480156101dd575f80fd5b5061015b6108f4565b3480156101f1575f80fd5b507f9016d09d72d40fdae2fd8ceac6b6234c7706214fd39c1cd1e609a0528c199300546040516001600160a01b039091168152602001610114565b348015610237575f80fd5b506101076040518060400160405280600581526020017f352e302e3000000000000000000000000000000000000000000000000000000081525081565b34801561027f575f80fd5b5061015b61028e3660046121c3565b610a2e565b34801561029e575f80fd5b5061015b6102ad366004611f3b565b610a41565b3480156102bd575f80fd5b506101c56102cc366004612219565b610ae3565b3480156102dc575f80fd5b5061015b6102eb36600461225a565b610af9565b3480156102fb575f80fd5b5061015b61030a3660046122ad565b610b0a565b606061031a86610b60565b61032386610b60565b858561032e86610b76565b6040516020016103429594939291906122ef565b604051602081830303815290604052905095945050505050565b606061036786610b60565b61037086610b60565b858561037b86610b76565b604051602001610342959493929190612410565b6103e3876103a86103a38a8a8a8a8a61035c565b610c13565b84848080601f0160208091040260200160405190810160405280939291908181526020018383808284375f92019190915250610c4d92505050565b6104345760405162461bcd60e51b815260206004820152601760248201527f5369676e617475726520646f65736e2774206d6174636800000000000000000060448201526064015b60405180910390fd5b6104418787878787610cac565b50505050505050565b610452610eec565b61045b82610fa3565b6104658282610fab565b5050565b5f610472611093565b507f360894a13ba1a3210667c828492db98dca3e2076cc3735a920a3ca505d382bbc90565b61049f6110dc565b6104a85f611150565b565b6060805f6001600160a01b03861615610507576001600160a01b0386165f9081526001602052604090206104dd906111cd565b6001600160a01b0387165f908152600160205260409020909250610500906111d9565b90506105c7565b6001600160a01b03851615610559576001600160a01b0385165f908152600260205260409020610536906111cd565b6001600160a01b0386165f908152600260205260409020909250610500906111d9565b60405162461bcd60e51b815260206004820152602b60248201527f526571756972656420617267756d656e743a20606f776e65726020616e642f6f60448201527f7220606772616e74656560000000000000000000000000000000000000000000606482015260840161042b565b5f808267ffffffffffffffff8111156105e2576105e2611fcf565b60405190808252806020026020018201604052801561060b578160200160208202803683370190505b5090505f5b83811015610700575f85828151811061062b5761062b612462565b602002602001015190505f806001600160a01b03168a6001600160a01b0316148061067257506001600160a01b038a165f90815260026020526040902061067290836111e2565b80156106b15750610682896111f9565b806106b157506106b18260038b60405161069c9190612476565b908152604051908190036020019020906111e2565b905080156106eb57846106c3816124a5565b95505060018484815181106106da576106da612462565b911515602092830291909101909101525b505080806106f8906124a5565b915050610610565b505f8267ffffffffffffffff81111561071b5761071b611fcf565b60405190808252806020026020018201604052801561078657816020015b61077360405180608001604052805f6001600160a01b031681526020015f6001600160a01b03168152602001606081526020015f81525090565b8152602001906001900390816107395790505b5090505f805b858110156108e3578381815181106107a6576107a6612462565b6020026020010151156108d1575f808883815181106107c7576107c7612462565b60209081029190910181015182528181019290925260409081015f20815160808101835281546001600160a01b03908116825260018301541693810193909352600281018054919284019161081b906124bd565b80601f0160208091040260200160405190810160405280929190818152602001828054610847906124bd565b80156108925780601f1061086957610100808354040283529160200191610892565b820191905f5260205f20905b81548152906001019060200180831161087557829003601f168201915b505050505081526020016003820154815250508383815181106108b7576108b7612462565b602002602001018190525081806108cd906124a5565b9250505b806108db816124a5565b91505061078c565b5090955050505050505b9392505050565b7ff0c57e16840df040f15088dc2f81fe391c3923bec73e23a9662efc9c229c6a00805468010000000000000000810460ff16159067ffffffffffffffff165f8115801561093e5750825b90505f8267ffffffffffffffff16600114801561095a5750303b155b905081158015610968575080155b1561099f576040517ff92ee8a900000000000000000000000000000000000000000000000000000000815260040160405180910390fd5b845467ffffffffffffffff1916600117855583156109d357845468ff00000000000000001916680100000000000000001785555b6109dc33611250565b8315610a2757845468ff000000000000000019168555604051600181527fc7f505b2f371ae2175ee4913f4499e1f2633a7b5936321eed1cdaeb6115181d29060200160405180910390a15b5050505050565b610a3b3385858585610cac565b50505050565b610a55876103a86103a38a8a8a8a8a61030f565b610aa15760405162461bcd60e51b815260206004820152601760248201527f5369676e617475726520646f65736e2774206d61746368000000000000000000604482015260640161042b565b610441878787878080601f0160208091040260200160405190810160405280939291908181526020018383808284375f92019190915250899250611261915050565b6060610af05f84846104aa565b90505b92915050565b610b0533848484611261565b505050565b610b126110dc565b6001600160a01b038116610b54576040517f1e4fbdf70000000000000000000000000000000000000000000000000000000081525f600482015260240161042b565b610b5d81611150565b50565b6060610af36001600160a01b03831660146114c8565b60605f610b8283611684565b60010190505f8167ffffffffffffffff811115610ba157610ba1611fcf565b6040519080825280601f01601f191660200182016040528015610bcb576020820181803683370190505b5090508181016020015b5f19017f3031323334353637383961626364656600000000000000000000000000000000600a86061a8153600a8504945084610bd557509392505050565b5f610c1e8251610b76565b82604051602001610c309291906124f5565b604051602081830303815290604052805190602001209050919050565b5f805f610c5a8585611765565b5090925090505f816003811115610c7357610c7361254f565b148015610c915750856001600160a01b0316826001600160a01b0316145b80610ca25750610ca28686866117ae565b9695505050505050565b5f6040518060800160405280876001600160a01b03168152602001866001600160a01b0316815260200185858080601f0160208091040260200160405190810160405280939291908181526020018383808284375f9201829052509385525050506020909101849052909150610d2182611899565b5f818152602081905260409020549091506001600160a01b031615610d885760405162461bcd60e51b815260206004820152601460248201527f4772616e7420616c726561647920657869737473000000000000000000000000604482015260640161042b565b5f81815260208181526040918290208451815473ffffffffffffffffffffffffffffffffffffffff199081166001600160a01b0392831617835592860151600183018054909416911617909155908301518391906002820190610deb90826125a8565b506060919091015160039091015581516001600160a01b03165f908152600160205260409020610e1b90826118c0565b506020808301516001600160a01b03165f908152600290915260409020610e4290826118c0565b50610e708160038460400151604051610e5b9190612476565b908152604051908190036020019020906118c0565b508160400151604051610e839190612476565b604051809103902082602001516001600160a01b0316835f01516001600160a01b03167faa11b1607ce40799434b358e476f60277b9c8879ca956534f8f185a8b7e227a78560600151604051610edb91815260200190565b60405180910390a450505050505050565b306001600160a01b037f0000000000000000000000000000000000000000000000000000000000000000161480610f8557507f00000000000000000000000000000000000000000000000000000000000000006001600160a01b0316610f797f360894a13ba1a3210667c828492db98dca3e2076cc3735a920a3ca505d382bbc546001600160a01b031690565b6001600160a01b031614155b156104a85760405163703e46dd60e11b815260040160405180910390fd5b610b5d6110dc565b816001600160a01b03166352d1902d6040518163ffffffff1660e01b8152600401602060405180830381865afa925050508015611005575060408051601f3d908101601f1916820190925261100291810190612664565b60015b61102d57604051634c9c8ce360e01b81526001600160a01b038316600482015260240161042b565b7f360894a13ba1a3210667c828492db98dca3e2076cc3735a920a3ca505d382bbc8114611089576040517faa1d49a40000000000000000000000000000000000000000000000000000000081526004810182905260240161042b565b610b0583836118cb565b306001600160a01b037f000000000000000000000000000000000000000000000000000000000000000016146104a85760405163703e46dd60e11b815260040160405180910390fd5b3361110e7f9016d09d72d40fdae2fd8ceac6b6234c7706214fd39c1cd1e609a0528c199300546001600160a01b031690565b6001600160a01b0316146104a8576040517f118cdaa700000000000000000000000000000000000000000000000000000000815233600482015260240161042b565b7f9016d09d72d40fdae2fd8ceac6b6234c7706214fd39c1cd1e609a0528c199300805473ffffffffffffffffffffffffffffffffffffffff1981166001600160a01b03848116918217845560405192169182907f8be0079c531659141344cd1fd0a4f28419497f9722a3daafe3b4186f6b6457e0905f90a3505050565b60605f6108ed83611920565b5f610af3825490565b5f8181526001830160205260408120541515610af0565b604051600360fc1b60208201525f9060210160405160208183030381529060405280519060200120826040516020016112329190612476565b60405160208183030381529060405280519060200120149050919050565b611258611979565b610b5d816119e0565b5f61126d8585856104aa565b90505f8151116112bf5760405162461bcd60e51b815260206004820152601360248201527f4e6f206772616e747320666f72206f776e657200000000000000000000000000604482015260640161042b565b5f5b81518110156114c0575f8282815181106112dd576112dd612462565b60200260200101519050835f148061131157508383838151811061130357611303612462565b602002602001015160600151145b156114ad57428160600151106113695760405162461bcd60e51b815260206004820152601360248201527f4772616e742069732074696d656c6f636b656400000000000000000000000000604482015260640161042b565b5f61137382611899565b5f818152602081905260408120805473ffffffffffffffffffffffffffffffffffffffff19908116825560018201805490911690559192506113b86002830182611dce565b505f60039190910181905582516001600160a01b031681526001602052604090206113e390826119e8565b506020808301516001600160a01b03165f90815260029091526040902061140a90826119e8565b5061143881600384604001516040516114239190612476565b908152604051908190036020019020906119e8565b50816040015160405161144b9190612476565b604051809103902082602001516001600160a01b0316835f01516001600160a01b03167ffeff9850709af031b875a6b4bea72ef38f7679e252a8aeecd4d176225b1ee32385606001516040516114a391815260200190565b60405180910390a4505b50806114b8816124a5565b9150506112c1565b505050505050565b6060825f6114d784600261267b565b6114e2906002612692565b67ffffffffffffffff8111156114fa576114fa611fcf565b6040519080825280601f01601f191660200182016040528015611524576020820181803683370190505b509050600360fc1b815f8151811061153e5761153e612462565b60200101906001600160f81b03191690815f1a9053507f78000000000000000000000000000000000000000000000000000000000000008160018151811061158857611588612462565b60200101906001600160f81b03191690815f1a9053505f6115aa85600261267b565b6115b5906001612692565b90505b6001811115611639577f303132333435363738396162636465660000000000000000000000000000000083600f16601081106115f6576115f6612462565b1a60f81b82828151811061160c5761160c612462565b60200101906001600160f81b03191690815f1a90535060049290921c91611632816126a5565b90506115b8565b50811561167c576040517fe22e27eb000000000000000000000000000000000000000000000000000000008152600481018690526024810185905260440161042b565b949350505050565b5f807a184f03e93ff9f4daa797ed6e38ed64bf6a1f01000000000000000083106116cc577a184f03e93ff9f4daa797ed6e38ed64bf6a1f010000000000000000830492506040015b6d04ee2d6d415b85acef810000000083106116f8576d04ee2d6d415b85acef8100000000830492506020015b662386f26fc10000831061171657662386f26fc10000830492506010015b6305f5e100831061172e576305f5e100830492506008015b612710831061174257612710830492506004015b60648310611754576064830492506002015b600a8310610af35760010192915050565b5f805f835160410361179c576020840151604085015160608601515f1a61178e888285856119f3565b9550955095505050506117a7565b505081515f91506002905b9250925092565b5f805f856001600160a01b031685856040516024016117ce9291906126ba565b60408051601f198184030181529181526020820180517bffffffffffffffffffffffffffffffffffffffffffffffffffffffff16630b135d3f60e11b179052516118189190612476565b5f60405180830381855afa9150503d805f8114611850576040519150601f19603f3d011682016040523d82523d5f602084013e611855565b606091505b509150915081801561186957506020815110155b8015610ca257508051630b135d3f60e11b9061188e9083016020908101908401612664565b149695505050505050565b5f815f0151826020015183604001518460600151604051602001610c3094939291906126d2565b5f610af08383611abb565b6118d482611b07565b6040516001600160a01b038316907fbc7cd75a20ee27fd9adebab32041f755214dbc6bffa90cc0225b39da2e5c2d3b905f90a280511561191857610b058282611b8a565b610465611bfc565b6060815f0180548060200260200160405190810160405280929190818152602001828054801561196d57602002820191905f5260205f20905b815481526020019060010190808311611959575b50505050509050919050565b7ff0c57e16840df040f15088dc2f81fe391c3923bec73e23a9662efc9c229c6a005468010000000000000000900460ff166104a8576040517fd7e6bcf800000000000000000000000000000000000000000000000000000000815260040160405180910390fd5b610b12611979565b5f610af08383611c34565b5f80807f7fffffffffffffffffffffffffffffff5d576e7357a4501ddfe92f46681b20a0841115611a2c57505f91506003905082611ab1565b604080515f808252602082018084528a905260ff891692820192909252606081018790526080810186905260019060a0016020604051602081039080840390855afa158015611a7d573d5f803e3d5ffd5b5050604051601f1901519150506001600160a01b038116611aa857505f925060019150829050611ab1565b92505f91508190505b9450945094915050565b5f818152600183016020526040812054611b0057508154600181810184555f848152602080822090930184905584548482528286019093526040902091909155610af3565b505f610af3565b806001600160a01b03163b5f03611b3c57604051634c9c8ce360e01b81526001600160a01b038216600482015260240161042b565b7f360894a13ba1a3210667c828492db98dca3e2076cc3735a920a3ca505d382bbc805473ffffffffffffffffffffffffffffffffffffffff19166001600160a01b0392909216919091179055565b60605f80846001600160a01b031684604051611ba69190612476565b5f60405180830381855af49150503d805f8114611bde576040519150601f19603f3d011682016040523d82523d5f602084013e611be3565b606091505b5091509150611bf3858383611d17565b95945050505050565b34156104a8576040517fb398979f00000000000000000000000000000000000000000000000000000000815260040160405180910390fd5b5f8181526001830160205260408120548015611d0e575f611c5660018361271e565b85549091505f90611c699060019061271e565b9050808214611cc8575f865f018281548110611c8757611c87612462565b905f5260205f200154905080875f018481548110611ca757611ca7612462565b5f918252602080832090910192909255918252600188019052604090208390555b8554869080611cd957611cd9612731565b600190038181905f5260205f20015f90559055856001015f8681526020019081526020015f205f905560019350505050610af3565b5f915050610af3565b606082611d2c57611d2782611d8c565b6108ed565b8151158015611d4357506001600160a01b0384163b155b15611d85576040517f9996b3150000000000000000000000000000000000000000000000000000000081526001600160a01b038516600482015260240161042b565b50806108ed565b805115611d9c5780518082602001fd5b6040517f1425ea4200000000000000000000000000000000000000000000000000000000815260040160405180910390fd5b508054611dda906124bd565b5f825580601f10611de9575050565b601f0160209004905f5260205f2090810190610b5d91905b80821115611e14575f8155600101611e01565b5090565b80356001600160a01b0381168114611e2e575f80fd5b919050565b5f8083601f840112611e43575f80fd5b50813567ffffffffffffffff811115611e5a575f80fd5b602083019150836020828501011115611e71575f80fd5b9250929050565b5f805f805f60808688031215611e8c575f80fd5b611e9586611e18565b9450611ea360208701611e18565b9350604086013567ffffffffffffffff811115611ebe575f80fd5b611eca88828901611e33565b96999598509660600135949350505050565b5f5b83811015611ef6578181015183820152602001611ede565b50505f910152565b5f8151808452611f15816020860160208601611edc565b601f01601f19169290920160200192915050565b602081525f610af06020830184611efe565b5f805f805f805f60a0888a031215611f51575f80fd5b611f5a88611e18565b9650611f6860208901611e18565b9550604088013567ffffffffffffffff80821115611f84575f80fd5b611f908b838c01611e33565b909750955060608a0135945060808a0135915080821115611faf575f80fd5b50611fbc8a828b01611e33565b989b979a50959850939692959293505050565b634e487b7160e01b5f52604160045260245ffd5b5f67ffffffffffffffff80841115611ffd57611ffd611fcf565b604051601f8501601f19908116603f0116810190828211818310171561202557612025611fcf565b8160405280935085815286868601111561203d575f80fd5b858560208301375f602087830101525050509392505050565b5f8060408385031215612067575f80fd5b61207083611e18565b9150602083013567ffffffffffffffff81111561208b575f80fd5b8301601f8101851361209b575f80fd5b6120aa85823560208401611fe3565b9150509250929050565b5f82601f8301126120c3575f80fd5b610af083833560208501611fe3565b5f805f606084860312156120e4575f80fd5b6120ed84611e18565b92506120fb60208501611e18565b9150604084013567ffffffffffffffff811115612116575f80fd5b612122868287016120b4565b9150509250925092565b5f6020808301818452808551808352604092508286019150828160051b8701018488015f5b838110156121b557603f19898403018552815160806001600160a01b03808351168652808a840151168a8701525087820151818987015261219482870182611efe565b60609384015196909301959095525094870194925090860190600101612151565b509098975050505050505050565b5f805f80606085870312156121d6575f80fd5b6121df85611e18565b9350602085013567ffffffffffffffff8111156121fa575f80fd5b61220687828801611e33565b9598909750949560400135949350505050565b5f806040838503121561222a575f80fd5b61223383611e18565b9150602083013567ffffffffffffffff81111561224e575f80fd5b6120aa858286016120b4565b5f805f6060848603121561226c575f80fd5b61227584611e18565b9250602084013567ffffffffffffffff811115612290575f80fd5b61229c868287016120b4565b925050604084013590509250925092565b5f602082840312156122bd575f80fd5b610af082611e18565b5f81516122d7818560208601611edc565b9290920192915050565b81818437505f910190815290565b7f6f7065726174696f6e3a2064656c6574654772616e740000000000000000000081525f600560f91b80601684015266037bbb732b91d160cd1b6017840152875161234181601e860160208c01611edc565b808401905081601e8201527f6772616e7465653a200000000000000000000000000000000000000000000000601f8201528751612385816028840160208c01611edc565b01602881018290527f6461746149643a2000000000000000000000000000000000000000000000000060298201526123c16031820187896122e1565b9150506123d181600560f91b9052565b7f6c6f636b6564556e74696c3a20000000000000000000000000000000000000006001820152612404600e8201856122c6565b98975050505050505050565b7f6f7065726174696f6e3a20696e736572744772616e740000000000000000000081525f600560f91b80601684015266037bbb732b91d160cd1b6017840152875161234181601e860160208c01611edc565b634e487b7160e01b5f52603260045260245ffd5b5f8251612487818460208701611edc565b9190910192915050565b634e487b7160e01b5f52601160045260245ffd5b5f600182016124b6576124b6612491565b5060010190565b600181811c908216806124d157607f821691505b6020821081036124ef57634e487b7160e01b5f52602260045260245ffd5b50919050565b7f19457468657265756d205369676e6564204d6573736167653a0a00000000000081525f835161252c81601a850160208801611edc565b83519083019061254381601a840160208801611edc565b01601a01949350505050565b634e487b7160e01b5f52602160045260245ffd5b601f821115610b05575f81815260208120601f850160051c810160208610156125895750805b601f850160051c820191505b818110156114c057828155600101612595565b815167ffffffffffffffff8111156125c2576125c2611fcf565b6125d6816125d084546124bd565b84612563565b602080601f831160018114612609575f84156125f25750858301515b5f19600386901b1c1916600185901b1785556114c0565b5f85815260208120601f198616915b8281101561263757888601518255948401946001909101908401612618565b508582101561265457878501515f19600388901b60f8161c191681555b5050505050600190811b01905550565b5f60208284031215612674575f80fd5b5051919050565b8082028115828204841417610af357610af3612491565b80820180821115610af357610af3612491565b5f816126b3576126b3612491565b505f190190565b828152604060208201525f61167c6040830184611efe565b5f6bffffffffffffffffffffffff19808760601b168352808660601b166014840152508351612708816028850160208801611edc565b6028920191820192909252604801949350505050565b81810381811115610af357610af3612491565b634e487b7160e01b5f52603160045260245ffdfea2646970667358221220beaa4925ac7eb5c937f52bb720deec62713c5c0361d0cc395ca0a44f141cda9964736f6c63430008140033",
  "linkReferences": {},
  "deployedLinkReferences": {}
}