{
  "_format": "hh-sol-artifact-1",
  "contractName": "AccessGrants",
  "sourceName": "contracts/AccessGrants.sol",
  "abi": [
    {
      "inputs": [],
      "stateMutability": "nonpayable",
      "type": "constructor"
    },
    {
      "anonymous": false,
      "inputs": [
        {
          "indexed": true,
          "internalType": "address",
          "name": "owner",
          "type": "address"
        },
        {
          "indexed": true,
          "internalType": "address",
          "name": "grantee",
          "type": "address"
        },
        {
          "indexed": true,
          "internalType": "string",
          "name": "dataId",
          "type": "string"
        },
        {
          "indexed": false,
          "internalType": "uint256",
          "name": "lockedUntil",
          "type": "uint256"
        }
      ],
      "name": "GrantAdded",
      "type": "event"
    },
    {
      "anonymous": false,
      "inputs": [
        {
          "indexed": true,
          "internalType": "address",
          "name": "owner",
          "type": "address"
        },
        {
          "indexed": true,
          "internalType": "address",
          "name": "grantee",
          "type": "address"
        },
        {
          "indexed": true,
          "internalType": "string",
          "name": "dataId",
          "type": "string"
        },
        {
          "indexed": false,
          "internalType": "uint256",
          "name": "lockedUntil",
          "type": "uint256"
        }
      ],
      "name": "GrantDeleted",
      "type": "event"
    },
    {
      "inputs": [
        {
          "internalType": "address",
          "name": "grantee",
          "type": "address"
        },
        {
          "internalType": "string",
          "name": "dataId",
          "type": "string"
        },
        {
          "internalType": "uint256",
          "name": "lockedUntil",
          "type": "uint256"
        }
      ],
      "name": "deleteGrant",
      "outputs": [],
      "stateMutability": "nonpayable",
      "type": "function"
    },
    {
      "inputs": [
        {
          "internalType": "address",
          "name": "owner",
          "type": "address"
        },
        {
          "internalType": "address",
          "name": "grantee",
          "type": "address"
        },
        {
          "internalType": "string",
          "name": "dataId",
          "type": "string"
        },
        {
          "internalType": "uint256",
          "name": "lockedUntil",
          "type": "uint256"
        },
        {
          "internalType": "bytes",
          "name": "signature",
          "type": "bytes"
        }
      ],
      "name": "deleteGrantBySignature",
      "outputs": [],
      "stateMutability": "nonpayable",
      "type": "function"
    },
    {
      "inputs": [
        {
          "internalType": "address",
          "name": "owner",
          "type": "address"
        },
        {
          "internalType": "address",
          "name": "grantee",
          "type": "address"
        },
        {
          "internalType": "string",
          "name": "dataId",
          "type": "string"
        },
        {
          "internalType": "uint256",
          "name": "lockedUntil",
          "type": "uint256"
        }
      ],
      "name": "deleteGrantBySignatureMessage",
      "outputs": [
        {
          "internalType": "string",
          "name": "",
          "type": "string"
        }
      ],
      "stateMutability": "pure",
      "type": "function"
    },
    {
      "inputs": [
        {
          "internalType": "address",
          "name": "owner",
          "type": "address"
        },
        {
          "internalType": "address",
          "name": "grantee",
          "type": "address"
        },
        {
          "internalType": "string",
          "name": "dataId",
          "type": "string"
        }
      ],
      "name": "findGrants",
      "outputs": [
        {
          "components": [
            {
              "internalType": "address",
              "name": "owner",
              "type": "address"
            },
            {
              "internalType": "address",
              "name": "grantee",
              "type": "address"
            },
            {
              "internalType": "string",
              "name": "dataId",
              "type": "string"
            },
            {
              "internalType": "uint256",
              "name": "lockedUntil",
              "type": "uint256"
            }
          ],
          "internalType": "struct AccessGrants.Grant[]",
          "name": "",
          "type": "tuple[]"
        }
      ],
      "stateMutability": "view",
      "type": "function"
    },
    {
      "inputs": [
        {
          "internalType": "address",
          "name": "grantee",
          "type": "address"
        },
        {
          "internalType": "string",
          "name": "dataId",
          "type": "string"
        }
      ],
      "name": "grantsFor",
      "outputs": [
        {
          "components": [
            {
              "internalType": "address",
              "name": "owner",
              "type": "address"
            },
            {
              "internalType": "address",
              "name": "grantee",
              "type": "address"
            },
            {
              "internalType": "string",
              "name": "dataId",
              "type": "string"
            },
            {
              "internalType": "uint256",
              "name": "lockedUntil",
              "type": "uint256"
            }
          ],
          "internalType": "struct AccessGrants.Grant[]",
          "name": "",
          "type": "tuple[]"
        }
      ],
      "stateMutability": "view",
      "type": "function"
    },
    {
      "inputs": [
        {
          "internalType": "address",
          "name": "grantee",
          "type": "address"
        },
        {
          "internalType": "string",
          "name": "dataId",
          "type": "string"
        },
        {
          "internalType": "uint256",
          "name": "lockedUntil",
          "type": "uint256"
        }
      ],
      "name": "insertGrant",
      "outputs": [],
      "stateMutability": "nonpayable",
      "type": "function"
    },
    {
      "inputs": [
        {
          "internalType": "address",
          "name": "owner",
          "type": "address"
        },
        {
          "internalType": "address",
          "name": "grantee",
          "type": "address"
        },
        {
          "internalType": "string",
          "name": "dataId",
          "type": "string"
        },
        {
          "internalType": "uint256",
          "name": "lockedUntil",
          "type": "uint256"
        },
        {
          "internalType": "bytes",
          "name": "signature",
          "type": "bytes"
        }
      ],
      "name": "insertGrantBySignature",
      "outputs": [],
      "stateMutability": "nonpayable",
      "type": "function"
    },
    {
      "inputs": [
        {
          "internalType": "address",
          "name": "owner",
          "type": "address"
        },
        {
          "internalType": "address",
          "name": "grantee",
          "type": "address"
        },
        {
          "internalType": "string",
          "name": "dataId",
          "type": "string"
        },
        {
          "internalType": "uint256",
          "name": "lockedUntil",
          "type": "uint256"
        }
      ],
      "name": "insertGrantBySignatureMessage",
      "outputs": [
        {
          "internalType": "string",
          "name": "",
          "type": "string"
        }
      ],
      "stateMutability": "pure",
      "type": "function"
    }
  ],
  "bytecode": "0x608060405234801561001057600080fd5b5061325a806100206000396000f3fe608060405234801561001057600080fd5b50600436106100885760003560e01c8063b14d52d51161005b578063b14d52d514610139578063b25875b914610155578063b7dd886514610171578063c28c6524146101a157610088565b8063236c70621461008d5780632ae12052146100bd5780634ba0b062146100ed5780637e0cc3a214610109575b600080fd5b6100a760048036038101906100a29190611d45565b6101bd565b6040516100b49190611e5d565b60405180910390f35b6100d760048036038101906100d29190611d45565b61020a565b6040516100e49190611e5d565b60405180910390f35b61010760048036038101906101029190611ed5565b610257565b005b610123600480360381019061011e91906120c1565b61030f565b60405161013091906122bd565b60405180910390f35b610153600480360381019061014e91906122df565b6108d6565b005b61016f600480360381019061016a9190611ed5565b6108e9565b005b61018b60048036038101906101869190612353565b6109e4565b60405161019891906122bd565b60405180910390f35b6101bb60048036038101906101b691906123af565b6109fa565b005b60606101c886610a0b565b6101d186610a0b565b85856101dc86610a38565b6040516020016101f0959493929190612563565b604051602081830303815290604052905095945050505050565b606061021586610a0b565b61021e86610a0b565b858561022986610a38565b60405160200161023d959493929190612650565b604051602081830303815290604052905095945050505050565b6102ba8761027061026b8a8a8a8a8a61020a565b610b06565b84848080601f016020809104026020016040519081016040528093929190818152602001838380828437600081840152601f19601f82011690508083019250505050505050610b41565b6102f9576040517f08c379a00000000000000000000000000000000000000000000000000000000081526004016102f090612763565b60405180910390fd5b6103068787878787610bd0565b50505050505050565b60608060008073ffffffffffffffffffffffffffffffffffffffff168673ffffffffffffffffffffffffffffffffffffffff16146103de5761038e600160008873ffffffffffffffffffffffffffffffffffffffff1673ffffffffffffffffffffffffffffffffffffffff168152602001908152602001600020610f4f565b91506103d7600160008873ffffffffffffffffffffffffffffffffffffffff1673ffffffffffffffffffffffffffffffffffffffff168152602001908152602001600020610f70565b90506104e5565b600073ffffffffffffffffffffffffffffffffffffffff168573ffffffffffffffffffffffffffffffffffffffff16146104a957610459600260008773ffffffffffffffffffffffffffffffffffffffff1673ffffffffffffffffffffffffffffffffffffffff168152602001908152602001600020610f4f565b91506104a2600260008773ffffffffffffffffffffffffffffffffffffffff1673ffffffffffffffffffffffffffffffffffffffff168152602001908152602001600020610f70565b90506104e4565b6040517f08c379a00000000000000000000000000000000000000000000000000000000081526004016104db906127f5565b60405180910390fd5b5b6000808267ffffffffffffffff81111561050257610501611f96565b5b6040519080825280602002602001820160405280156105305781602001602082028036833780820191505090505b50905060005b8381101561068157600085828151811061055357610552612815565b5b6020026020010151905060008073ffffffffffffffffffffffffffffffffffffffff168a73ffffffffffffffffffffffffffffffffffffffff1614806105e657506105e582600260008d73ffffffffffffffffffffffffffffffffffffffff1673ffffffffffffffffffffffffffffffffffffffff168152602001908152602001600020610f8590919063ffffffff16565b5b801561062e57506105f689610f9c565b8061062d575061062c8260038b6040516106109190612844565b9081526020016040518091039020610f8590919063ffffffff16565b5b5b9050801561066c5784806106419061288a565b955050600184848151811061065957610658612815565b5b6020026020010190151590811515815250505b505080806106799061288a565b915050610536565b5060008267ffffffffffffffff81111561069e5761069d611f96565b5b6040519080825280602002602001820160405280156106d757816020015b6106c4611b87565b8152602001906001900390816106bc5790505b5090506000805b858110156108c5578381815181106106f9576106f8612815565b5b6020026020010151156108b25760008088838151811061071c5761071b612815565b5b602002602001015181526020019081526020016000206040518060800160405290816000820160009054906101000a900473ffffffffffffffffffffffffffffffffffffffff1673ffffffffffffffffffffffffffffffffffffffff1673ffffffffffffffffffffffffffffffffffffffff1681526020016001820160009054906101000a900473ffffffffffffffffffffffffffffffffffffffff1673ffffffffffffffffffffffffffffffffffffffff1673ffffffffffffffffffffffffffffffffffffffff1681526020016002820180546107f990612901565b80601f016020809104026020016040519081016040528092919081815260200182805461082590612901565b80156108725780601f1061084757610100808354040283529160200191610872565b820191906000526020600020905b81548152906001019060200180831161085557829003601f168201915b5050505050815260200160038201548152505083838151811061089857610897612815565b5b602002602001018190525081806108ae9061288a565b9250505b80806108bd9061288a565b9150506106de565b508196505050505050509392505050565b6108e33385858585610bd0565b50505050565b61094c876109026108fd8a8a8a8a8a6101bd565b610b06565b84848080601f016020809104026020016040519081016040528093929190818152602001838380828437600081840152601f19601f82011690508083019250505050505050610b41565b61098b576040517f08c379a000000000000000000000000000000000000000000000000000000000815260040161098290612763565b60405180910390fd5b6109db878787878080601f016020809104026020016040519081016040528093929190818152602001838380828437600081840152601f19601f8201169050808301925050505050505086610ff2565b50505050505050565b60606109f26000848461030f565b905092915050565b610a0633848484610ff2565b505050565b6060610a318273ffffffffffffffffffffffffffffffffffffffff16601460ff166112f9565b9050919050565b606060006001610a4784611535565b01905060008167ffffffffffffffff811115610a6657610a65611f96565b5b6040519080825280601f01601f191660200182016040528015610a985781602001600182028036833780820191505090505b509050600082602001820190505b600115610afb578080600190039150507f3031323334353637383961626364656600000000000000000000000000000000600a86061a8153600a8581610aef57610aee612932565b5b04945060008503610aa6575b819350505050919050565b6000610b128251610a38565b82604051602001610b249291906129f4565b604051602081830303815290604052805190602001209050919050565b6000806000610b508585611688565b9150915060006004811115610b6857610b67612a23565b5b816004811115610b7b57610b7a612a23565b5b148015610bb357508573ffffffffffffffffffffffffffffffffffffffff168273ffffffffffffffffffffffffffffffffffffffff16145b80610bc55750610bc48686866116d9565b5b925050509392505050565b600060405180608001604052808773ffffffffffffffffffffffffffffffffffffffff1681526020018673ffffffffffffffffffffffffffffffffffffffff16815260200185858080601f016020809104026020016040519081016040528093929190818152602001838380828437600081840152601f19601f8201169050808301925050505050505081526020018381525090506000610c708261181d565b9050600073ffffffffffffffffffffffffffffffffffffffff1660008083815260200190815260200160002060000160009054906101000a900473ffffffffffffffffffffffffffffffffffffffff1673ffffffffffffffffffffffffffffffffffffffff1614610d16576040517f08c379a0000000000000000000000000000000000000000000000000000000008152600401610d0d90612a9e565b60405180910390fd5b8160008083815260200190815260200160002060008201518160000160006101000a81548173ffffffffffffffffffffffffffffffffffffffff021916908373ffffffffffffffffffffffffffffffffffffffff16021790555060208201518160010160006101000a81548173ffffffffffffffffffffffffffffffffffffffff021916908373ffffffffffffffffffffffffffffffffffffffff1602179055506040820151816002019081610dcc9190612c6a565b5060608201518160030155905050610e2f8160016000856000015173ffffffffffffffffffffffffffffffffffffffff1673ffffffffffffffffffffffffffffffffffffffff16815260200190815260200160002061186390919063ffffffff16565b50610e858160026000856020015173ffffffffffffffffffffffffffffffffffffffff1673ffffffffffffffffffffffffffffffffffffffff16815260200190815260200160002061186390919063ffffffff16565b50610eba8160038460400151604051610e9e9190612844565b908152602001604051809103902061186390919063ffffffff16565b508160400151604051610ecd9190612844565b6040518091039020826020015173ffffffffffffffffffffffffffffffffffffffff16836000015173ffffffffffffffffffffffffffffffffffffffff167faa11b1607ce40799434b358e476f60277b9c8879ca956534f8f185a8b7e227a78560600151604051610f3e9190612d4b565b60405180910390a450505050505050565b60606000610f5f8360000161187a565b905060608190508092505050919050565b6000610f7e826000016118d6565b9050919050565b6000610f9483600001836118e7565b905092915050565b6000604051602001610fad90612db2565b6040516020818303038152906040528051906020012082604051602001610fd49190612844565b60405160208183030381529060405280519060200120149050919050565b6000610fff85858561030f565b90506000815111611045576040517f08c379a000000000000000000000000000000000000000000000000000000000815260040161103c90612e13565b60405180910390fd5b60005b81518110156112f157600082828151811061106657611065612815565b5b60200260200101519050600084148061109c57508383838151811061108e5761108d612815565b5b602002602001015160600151145b156112dd57428160600151106110e7576040517f08c379a00000000000000000000000000000000000000000000000000000000081526004016110de90612e7f565b60405180910390fd5b60006110f28261181d565b9050600080828152602001908152602001600020600080820160006101000a81549073ffffffffffffffffffffffffffffffffffffffff02191690556001820160006101000a81549073ffffffffffffffffffffffffffffffffffffffff02191690556002820160006111659190611bdb565b600382016000905550506111c48160016000856000015173ffffffffffffffffffffffffffffffffffffffff1673ffffffffffffffffffffffffffffffffffffffff16815260200190815260200160002061190a90919063ffffffff16565b5061121a8160026000856020015173ffffffffffffffffffffffffffffffffffffffff1673ffffffffffffffffffffffffffffffffffffffff16815260200190815260200160002061190a90919063ffffffff16565b5061124f81600384604001516040516112339190612844565b908152602001604051809103902061190a90919063ffffffff16565b5081604001516040516112629190612844565b6040518091039020826020015173ffffffffffffffffffffffffffffffffffffffff16836000015173ffffffffffffffffffffffffffffffffffffffff167ffeff9850709af031b875a6b4bea72ef38f7679e252a8aeecd4d176225b1ee32385606001516040516112d39190612d4b565b60405180910390a4505b5080806112e99061288a565b915050611048565b505050505050565b60606000600283600261130c9190612e9f565b6113169190612ee1565b67ffffffffffffffff81111561132f5761132e611f96565b5b6040519080825280601f01601f1916602001820160405280156113615781602001600182028036833780820191505090505b5090507f30000000000000000000000000000000000000000000000000000000000000008160008151811061139957611398612815565b5b60200101907effffffffffffffffffffffffffffffffffffffffffffffffffffffffffffff1916908160001a9053507f7800000000000000000000000000000000000000000000000000000000000000816001815181106113fd576113fc612815565b5b60200101907effffffffffffffffffffffffffffffffffffffffffffffffffffffffffffff1916908160001a9053506000600184600261143d9190612e9f565b6114479190612ee1565b90505b60018111156114e7577f3031323334353637383961626364656600000000000000000000000000000000600f86166010811061148957611488612815565b5b1a60f81b8282815181106114a05761149f612815565b5b60200101907effffffffffffffffffffffffffffffffffffffffffffffffffffffffffffff1916908160001a905350600485901c9450806114e090612f15565b905061144a565b506000841461152b576040517f08c379a000000000000000000000000000000000000000000000000000000000815260040161152290612f8a565b60405180910390fd5b8091505092915050565b600080600090507a184f03e93ff9f4daa797ed6e38ed64bf6a1f0100000000000000008310611593577a184f03e93ff9f4daa797ed6e38ed64bf6a1f010000000000000000838161158957611588612932565b5b0492506040810190505b6d04ee2d6d415b85acef810000000083106115d0576d04ee2d6d415b85acef810000000083816115c6576115c5612932565b5b0492506020810190505b662386f26fc1000083106115ff57662386f26fc1000083816115f5576115f4612932565b5b0492506010810190505b6305f5e1008310611628576305f5e100838161161e5761161d612932565b5b0492506008810190505b612710831061164d57612710838161164357611642612932565b5b0492506004810190505b60648310611670576064838161166657611665612932565b5b0492506002810190505b600a831061167f576001810190505b80915050919050565b60008060418351036116c95760008060006020860151925060408601519150606086015160001a90506116bd87828585611921565b945094505050506116d2565b60006002915091505b9250929050565b60008060008573ffffffffffffffffffffffffffffffffffffffff16631626ba7e60e01b868660405160240161171092919061300d565b604051602081830303815290604052907bffffffffffffffffffffffffffffffffffffffffffffffffffffffff19166020820180517bffffffffffffffffffffffffffffffffffffffffffffffffffffffff838183161783525050505060405161177a919061303d565b600060405180830381855afa9150503d80600081146117b5576040519150601f19603f3d011682016040523d82523d6000602084013e6117ba565b606091505b50915091508180156117ce57506020815110155b80156118125750631626ba7e60e01b7bffffffffffffffffffffffffffffffffffffffffffffffffffffffff1916818060200190518101906118109190613080565b145b925050509392505050565b600081600001518260200151836040015184606001516040516020016118469493929190613116565b604051602081830303815290604052805190602001209050919050565b60006118728360000183611a03565b905092915050565b6060816000018054806020026020016040519081016040528092919081815260200182805480156118ca57602002820191906000526020600020905b8154815260200190600101908083116118b6575b50505050509050919050565b600081600001805490509050919050565b600080836001016000848152602001908152602001600020541415905092915050565b60006119198360000183611a73565b905092915050565b6000807f7fffffffffffffffffffffffffffffff5d576e7357a4501ddfe92f46681b20a08360001c111561195c5760006003915091506119fa565b600060018787878760405160008152602001604052604051611981949392919061317c565b6020604051602081039080840390855afa1580156119a3573d6000803e3d6000fd5b505050602060405103519050600073ffffffffffffffffffffffffffffffffffffffff168173ffffffffffffffffffffffffffffffffffffffff16036119f1576000600192509250506119fa565b80600092509250505b94509492505050565b6000611a0f83836118e7565b611a68578260000182908060018154018082558091505060019003906000526020600020016000909190919091505582600001805490508360010160008481526020019081526020016000208190555060019050611a6d565b600090505b92915050565b60008083600101600084815260200190815260200160002054905060008114611b7b576000600182611aa591906131c1565b9050600060018660000180549050611abd91906131c1565b9050818114611b2c576000866000018281548110611ade57611add612815565b5b9060005260206000200154905080876000018481548110611b0257611b01612815565b5b90600052602060002001819055508387600101600083815260200190815260200160002081905550505b85600001805480611b4057611b3f6131f5565b5b600190038181906000526020600020016000905590558560010160008681526020019081526020016000206000905560019350505050611b81565b60009150505b92915050565b6040518060800160405280600073ffffffffffffffffffffffffffffffffffffffff168152602001600073ffffffffffffffffffffffffffffffffffffffff16815260200160608152602001600081525090565b508054611be790612901565b6000825580601f10611bf95750611c18565b601f016020900490600052602060002090810190611c179190611c1b565b5b50565b5b80821115611c34576000816000905550600101611c1c565b5090565b6000604051905090565b600080fd5b600080fd5b600073ffffffffffffffffffffffffffffffffffffffff82169050919050565b6000611c7782611c4c565b9050919050565b611c8781611c6c565b8114611c9257600080fd5b50565b600081359050611ca481611c7e565b92915050565b600080fd5b600080fd5b600080fd5b60008083601f840112611ccf57611cce611caa565b5b8235905067ffffffffffffffff811115611cec57611ceb611caf565b5b602083019150836001820283011115611d0857611d07611cb4565b5b9250929050565b6000819050919050565b611d2281611d0f565b8114611d2d57600080fd5b50565b600081359050611d3f81611d19565b92915050565b600080600080600060808688031215611d6157611d60611c42565b5b6000611d6f88828901611c95565b9550506020611d8088828901611c95565b945050604086013567ffffffffffffffff811115611da157611da0611c47565b5b611dad88828901611cb9565b93509350506060611dc088828901611d30565b9150509295509295909350565b600081519050919050565b600082825260208201905092915050565b60005b83811015611e07578082015181840152602081019050611dec565b60008484015250505050565b6000601f19601f8301169050919050565b6000611e2f82611dcd565b611e398185611dd8565b9350611e49818560208601611de9565b611e5281611e13565b840191505092915050565b60006020820190508181036000830152611e778184611e24565b905092915050565b60008083601f840112611e9557611e94611caa565b5b8235905067ffffffffffffffff811115611eb257611eb1611caf565b5b602083019150836001820283011115611ece57611ecd611cb4565b5b9250929050565b600080600080600080600060a0888a031215611ef457611ef3611c42565b5b6000611f028a828b01611c95565b9750506020611f138a828b01611c95565b965050604088013567ffffffffffffffff811115611f3457611f33611c47565b5b611f408a828b01611cb9565b95509550506060611f538a828b01611d30565b935050608088013567ffffffffffffffff811115611f7457611f73611c47565b5b611f808a828b01611e7f565b925092505092959891949750929550565b600080fd5b7f4e487b7100000000000000000000000000000000000000000000000000000000600052604160045260246000fd5b611fce82611e13565b810181811067ffffffffffffffff82111715611fed57611fec611f96565b5b80604052505050565b6000612000611c38565b905061200c8282611fc5565b919050565b600067ffffffffffffffff82111561202c5761202b611f96565b5b61203582611e13565b9050602081019050919050565b82818337600083830152505050565b600061206461205f84612011565b611ff6565b9050828152602081018484840111156120805761207f611f91565b5b61208b848285612042565b509392505050565b600082601f8301126120a8576120a7611caa565b5b81356120b8848260208601612051565b91505092915050565b6000806000606084860312156120da576120d9611c42565b5b60006120e886828701611c95565b93505060206120f986828701611c95565b925050604084013567ffffffffffffffff81111561211a57612119611c47565b5b61212686828701612093565b9150509250925092565b600081519050919050565b600082825260208201905092915050565b6000819050602082019050919050565b61216581611c6c565b82525050565b600082825260208201905092915050565b600061218782611dcd565b612191818561216b565b93506121a1818560208601611de9565b6121aa81611e13565b840191505092915050565b6121be81611d0f565b82525050565b60006080830160008301516121dc600086018261215c565b5060208301516121ef602086018261215c565b5060408301518482036040860152612207828261217c565b915050606083015161221c60608601826121b5565b508091505092915050565b600061223383836121c4565b905092915050565b6000602082019050919050565b600061225382612130565b61225d818561213b565b93508360208202850161226f8561214c565b8060005b858110156122ab578484038952815161228c8582612227565b94506122978361223b565b925060208a01995050600181019050612273565b50829750879550505050505092915050565b600060208201905081810360008301526122d78184612248565b905092915050565b600080600080606085870312156122f9576122f8611c42565b5b600061230787828801611c95565b945050602085013567ffffffffffffffff81111561232857612327611c47565b5b61233487828801611cb9565b9350935050604061234787828801611d30565b91505092959194509250565b6000806040838503121561236a57612369611c42565b5b600061237885828601611c95565b925050602083013567ffffffffffffffff81111561239957612398611c47565b5b6123a585828601612093565b9150509250929050565b6000806000606084860312156123c8576123c7611c42565b5b60006123d686828701611c95565b935050602084013567ffffffffffffffff8111156123f7576123f6611c47565b5b61240386828701612093565b925050604061241486828701611d30565b9150509250925092565b7f6f7065726174696f6e3a2064656c6574654772616e7400000000000000000000815250565b7f0a00000000000000000000000000000000000000000000000000000000000000815250565b7f6f776e65723a2000000000000000000000000000000000000000000000000000815250565b600081905092915050565b60006124a682611dcd565b6124b08185612490565b93506124c0818560208601611de9565b80840191505092915050565b7f6772616e7465653a200000000000000000000000000000000000000000000000815250565b7f6461746149643a20000000000000000000000000000000000000000000000000815250565b60006125248385612490565b9350612531838584612042565b82840190509392505050565b7f6c6f636b6564556e74696c3a2000000000000000000000000000000000000000815250565b600061256e8261241e565b60168201915061257d82612444565b60018201915061258c8261246a565b60078201915061259c828861249b565b91506125a782612444565b6001820191506125b6826124cc565b6009820191506125c6828761249b565b91506125d182612444565b6001820191506125e0826124f2565b6008820191506125f1828587612518565b91506125fc82612444565b60018201915061260b8261253d565b600d8201915061261b828461249b565b91508190509695505050505050565b7f6f7065726174696f6e3a20696e736572744772616e7400000000000000000000815250565b600061265b8261262a565b60168201915061266a82612444565b6001820191506126798261246a565b600782019150612689828861249b565b915061269482612444565b6001820191506126a3826124cc565b6009820191506126b3828761249b565b91506126be82612444565b6001820191506126cd826124f2565b6008820191506126de828587612518565b91506126e982612444565b6001820191506126f88261253d565b600d82019150612708828461249b565b91508190509695505050505050565b7f5369676e617475726520646f65736e2774206d61746368000000000000000000600082015250565b600061274d601783611dd8565b915061275882612717565b602082019050919050565b6000602082019050818103600083015261277c81612740565b9050919050565b7f526571756972656420617267756d656e743a20606f776e65726020616e642f6f60008201527f7220606772616e74656560000000000000000000000000000000000000000000602082015250565b60006127df602b83611dd8565b91506127ea82612783565b604082019050919050565b6000602082019050818103600083015261280e816127d2565b9050919050565b7f4e487b7100000000000000000000000000000000000000000000000000000000600052603260045260246000fd5b6000612850828461249b565b915081905092915050565b7f4e487b7100000000000000000000000000000000000000000000000000000000600052601160045260246000fd5b600061289582611d0f565b91507fffffffffffffffffffffffffffffffffffffffffffffffffffffffffffffffff82036128c7576128c661285b565b5b600182019050919050565b7f4e487b7100000000000000000000000000000000000000000000000000000000600052602260045260246000fd5b6000600282049050600182168061291957607f821691505b60208210810361292c5761292b6128d2565b5b50919050565b7f4e487b7100000000000000000000000000000000000000000000000000000000600052601260045260246000fd5b7f19457468657265756d205369676e6564204d6573736167653a0a000000000000600082015250565b6000612997601a83612490565b91506129a282612961565b601a82019050919050565b600081519050919050565b600081905092915050565b60006129ce826129ad565b6129d881856129b8565b93506129e8818560208601611de9565b80840191505092915050565b60006129ff8261298a565b9150612a0b828561249b565b9150612a1782846129c3565b91508190509392505050565b7f4e487b7100000000000000000000000000000000000000000000000000000000600052602160045260246000fd5b7f4772616e7420616c726561647920657869737473000000000000000000000000600082015250565b6000612a88601483611dd8565b9150612a9382612a52565b602082019050919050565b60006020820190508181036000830152612ab781612a7b565b9050919050565b60008190508160005260206000209050919050565b60006020601f8301049050919050565b600082821b905092915050565b600060088302612b207fffffffffffffffffffffffffffffffffffffffffffffffffffffffffffffffff82612ae3565b612b2a8683612ae3565b95508019841693508086168417925050509392505050565b6000819050919050565b6000612b67612b62612b5d84611d0f565b612b42565b611d0f565b9050919050565b6000819050919050565b612b8183612b4c565b612b95612b8d82612b6e565b848454612af0565b825550505050565b600090565b612baa612b9d565b612bb5818484612b78565b505050565b5b81811015612bd957612bce600082612ba2565b600181019050612bbb565b5050565b601f821115612c1e57612bef81612abe565b612bf884612ad3565b81016020851015612c07578190505b612c1b612c1385612ad3565b830182612bba565b50505b505050565b600082821c905092915050565b6000612c4160001984600802612c23565b1980831691505092915050565b6000612c5a8383612c30565b9150826002028217905092915050565b612c7382611dcd565b67ffffffffffffffff811115612c8c57612c8b611f96565b5b612c968254612901565b612ca1828285612bdd565b600060209050601f831160018114612cd45760008415612cc2578287015190505b612ccc8582612c4e565b865550612d34565b601f198416612ce286612abe565b60005b82811015612d0a57848901518255600182019150602085019450602081019050612ce5565b86831015612d275784890151612d23601f891682612c30565b8355505b6001600288020188555050505b505050505050565b612d4581611d0f565b82525050565b6000602082019050612d606000830184612d3c565b92915050565b7f3000000000000000000000000000000000000000000000000000000000000000600082015250565b6000612d9c600183612490565b9150612da782612d66565b600182019050919050565b6000612dbd82612d8f565b9150819050919050565b7f4e6f206772616e747320666f72206f776e657200000000000000000000000000600082015250565b6000612dfd601383611dd8565b9150612e0882612dc7565b602082019050919050565b60006020820190508181036000830152612e2c81612df0565b9050919050565b7f4772616e742069732074696d656c6f636b656400000000000000000000000000600082015250565b6000612e69601383611dd8565b9150612e7482612e33565b602082019050919050565b60006020820190508181036000830152612e9881612e5c565b9050919050565b6000612eaa82611d0f565b9150612eb583611d0f565b9250828202612ec381611d0f565b91508282048414831517612eda57612ed961285b565b5b5092915050565b6000612eec82611d0f565b9150612ef783611d0f565b9250828201905080821115612f0f57612f0e61285b565b5b92915050565b6000612f2082611d0f565b915060008203612f3357612f3261285b565b5b600182039050919050565b7f537472696e67733a20686578206c656e67746820696e73756666696369656e74600082015250565b6000612f74602083611dd8565b9150612f7f82612f3e565b602082019050919050565b60006020820190508181036000830152612fa381612f67565b9050919050565b6000819050919050565b612fbd81612faa565b82525050565b600082825260208201905092915050565b6000612fdf826129ad565b612fe98185612fc3565b9350612ff9818560208601611de9565b61300281611e13565b840191505092915050565b60006040820190506130226000830185612fb4565b81810360208301526130348184612fd4565b90509392505050565b600061304982846129c3565b915081905092915050565b61305d81612faa565b811461306857600080fd5b50565b60008151905061307a81613054565b92915050565b60006020828403121561309657613095611c42565b5b60006130a48482850161306b565b91505092915050565b60008160601b9050919050565b60006130c5826130ad565b9050919050565b60006130d7826130ba565b9050919050565b6130ef6130ea82611c6c565b6130cc565b82525050565b6000819050919050565b61311061310b82611d0f565b6130f5565b82525050565b600061312282876130de565b60148201915061313282866130de565b601482019150613142828561249b565b915061314e82846130ff565b60208201915081905095945050505050565b600060ff82169050919050565b61317681613160565b82525050565b60006080820190506131916000830187612fb4565b61319e602083018661316d565b6131ab6040830185612fb4565b6131b86060830184612fb4565b95945050505050565b60006131cc82611d0f565b91506131d783611d0f565b92508282039050818111156131ef576131ee61285b565b5b92915050565b7f4e487b7100000000000000000000000000000000000000000000000000000000600052603160045260246000fdfea2646970667358221220508dbc7ab1f57289bdb9f4fab0a9626861880f668395358c29e6d74605d8b7a464736f6c63430008130033",
  "linkReferences": {},
  "deployedLinkReferences": {}
}