{
  "_format": "hh-sol-artifact-1",
  "contractName": "AccessGrants",
  "sourceName": "contracts/AccessGrants.sol",
  "abi": [
    {
      "inputs": [],
      "stateMutability": "nonpayable",
      "type": "constructor"
    },
    {
      "inputs": [
        {
          "internalType": "address",
          "name": "grantee",
          "type": "address"
        },
        {
          "internalType": "string",
          "name": "dataId",
          "type": "string"
        },
        {
          "internalType": "uint256",
          "name": "lockedUntil",
          "type": "uint256"
        }
      ],
      "name": "deleteGrant",
      "outputs": [],
      "stateMutability": "nonpayable",
      "type": "function"
    },
    {
      "inputs": [
        {
          "internalType": "address",
          "name": "owner",
          "type": "address"
        },
        {
          "internalType": "address",
          "name": "grantee",
          "type": "address"
        },
        {
          "internalType": "string",
          "name": "dataId",
          "type": "string"
        }
      ],
      "name": "findGrants",
      "outputs": [
        {
          "components": [
            {
              "internalType": "address",
              "name": "owner",
              "type": "address"
            },
            {
              "internalType": "address",
              "name": "grantee",
              "type": "address"
            },
            {
              "internalType": "string",
              "name": "dataId",
              "type": "string"
            },
            {
              "internalType": "uint256",
              "name": "lockedUntil",
              "type": "uint256"
            }
          ],
          "internalType": "struct AccessGrants.Grant[]",
          "name": "",
          "type": "tuple[]"
        }
      ],
      "stateMutability": "view",
      "type": "function"
    },
    {
      "inputs": [
        {
          "internalType": "address",
          "name": "grantee",
          "type": "address"
        },
        {
          "internalType": "string",
          "name": "dataId",
          "type": "string"
        }
      ],
      "name": "grantsFor",
      "outputs": [
        {
          "components": [
            {
              "internalType": "address",
              "name": "owner",
              "type": "address"
            },
            {
              "internalType": "address",
              "name": "grantee",
              "type": "address"
            },
            {
              "internalType": "string",
              "name": "dataId",
              "type": "string"
            },
            {
              "internalType": "uint256",
              "name": "lockedUntil",
              "type": "uint256"
            }
          ],
          "internalType": "struct AccessGrants.Grant[]",
          "name": "",
          "type": "tuple[]"
        }
      ],
      "stateMutability": "view",
      "type": "function"
    },
    {
      "inputs": [
        {
          "internalType": "address",
          "name": "grantee",
          "type": "address"
        },
        {
          "internalType": "string",
          "name": "dataId",
          "type": "string"
        },
        {
          "internalType": "uint256",
          "name": "lockedUntil",
          "type": "uint256"
        }
      ],
      "name": "insertGrant",
      "outputs": [],
      "stateMutability": "nonpayable",
      "type": "function"
    },
    {
      "inputs": [
        {
          "internalType": "address",
          "name": "owner",
          "type": "address"
        },
        {
          "internalType": "address",
          "name": "grantee",
          "type": "address"
        },
        {
          "internalType": "string",
          "name": "dataId",
          "type": "string"
        },
        {
          "internalType": "uint256",
          "name": "lockedUntil",
          "type": "uint256"
        },
        {
          "internalType": "bytes",
          "name": "signature",
          "type": "bytes"
        }
      ],
      "name": "insertGrantBySignature",
      "outputs": [],
      "stateMutability": "nonpayable",
      "type": "function"
    }
  ],
  "bytecode": "0x608060405234801561001057600080fd5b50612866806100206000396000f3fe608060405234801561001057600080fd5b50600436106100575760003560e01c80634ba0b0621461005c5780637e0cc3a214610078578063b14d52d5146100a8578063b7dd8865146100c4578063c28c6524146100f4575b600080fd5b610076600480360381019061007191906117e3565b610110565b005b610092600480360381019061008d91906119e0565b6101e3565b60405161009f9190611c11565b60405180910390f35b6100c260048036038101906100bd9190611c33565b6107aa565b005b6100de60048036038101906100d99190611ca7565b6107bd565b6040516100eb9190611c11565b60405180910390f35b61010e60048036038101906101099190611d03565b6107d3565b005b61018e876101448989898989604051602001610130959493929190611dce565b604051602081830303815290604052610a4e565b84848080601f016020809104026020016040519081016040528093929190818152602001838380828437600081840152601f19601f82011690508083019250505050505050610a89565b6101cd576040517f08c379a00000000000000000000000000000000000000000000000000000000081526004016101c490611e68565b60405180910390fd5b6101da8787878787610b18565b50505050505050565b60608060008073ffffffffffffffffffffffffffffffffffffffff168673ffffffffffffffffffffffffffffffffffffffff16146102b257610262600160008873ffffffffffffffffffffffffffffffffffffffff1673ffffffffffffffffffffffffffffffffffffffff168152602001908152602001600020610e0c565b91506102ab600160008873ffffffffffffffffffffffffffffffffffffffff1673ffffffffffffffffffffffffffffffffffffffff168152602001908152602001600020610e2d565b90506103b9565b600073ffffffffffffffffffffffffffffffffffffffff168573ffffffffffffffffffffffffffffffffffffffff161461037d5761032d600260008773ffffffffffffffffffffffffffffffffffffffff1673ffffffffffffffffffffffffffffffffffffffff168152602001908152602001600020610e0c565b9150610376600260008773ffffffffffffffffffffffffffffffffffffffff1673ffffffffffffffffffffffffffffffffffffffff168152602001908152602001600020610e2d565b90506103b8565b6040517f08c379a00000000000000000000000000000000000000000000000000000000081526004016103af90611efa565b60405180910390fd5b5b6000808267ffffffffffffffff8111156103d6576103d56118b5565b5b6040519080825280602002602001820160405280156104045781602001602082028036833780820191505090505b50905060005b8381101561055557600085828151811061042757610426611f1a565b5b6020026020010151905060008073ffffffffffffffffffffffffffffffffffffffff168a73ffffffffffffffffffffffffffffffffffffffff1614806104ba57506104b982600260008d73ffffffffffffffffffffffffffffffffffffffff1673ffffffffffffffffffffffffffffffffffffffff168152602001908152602001600020610e4290919063ffffffff16565b5b801561050257506104ca89610e59565b8061050157506105008260038b6040516104e49190611f85565b9081526020016040518091039020610e4290919063ffffffff16565b5b5b9050801561054057848061051590611fcb565b955050600184848151811061052d5761052c611f1a565b5b6020026020010190151590811515815250505b5050808061054d90611fcb565b91505061040a565b5060008267ffffffffffffffff811115610572576105716118b5565b5b6040519080825280602002602001820160405280156105ab57816020015b6105986115cf565b8152602001906001900390816105905790505b5090506000805b85811015610799578381815181106105cd576105cc611f1a565b5b602002602001015115610786576000808883815181106105f0576105ef611f1a565b5b602002602001015181526020019081526020016000206040518060800160405290816000820160009054906101000a900473ffffffffffffffffffffffffffffffffffffffff1673ffffffffffffffffffffffffffffffffffffffff1673ffffffffffffffffffffffffffffffffffffffff1681526020016001820160009054906101000a900473ffffffffffffffffffffffffffffffffffffffff1673ffffffffffffffffffffffffffffffffffffffff1673ffffffffffffffffffffffffffffffffffffffff1681526020016002820180546106cd90612042565b80601f01602080910402602001604051908101604052809291908181526020018280546106f990612042565b80156107465780601f1061071b57610100808354040283529160200191610746565b820191906000526020600020905b81548152906001019060200180831161072957829003601f168201915b5050505050815260200160038201548152505083838151811061076c5761076b611f1a565b5b6020026020010181905250818061078290611fcb565b9250505b808061079190611fcb565b9150506105b2565b508196505050505050509392505050565b6107b73385858585610b18565b50505050565b60606107cb600084846101e3565b905092915050565b60006107e03385856101e3565b90506000815111610826576040517f08c379a000000000000000000000000000000000000000000000000000000000815260040161081d906120bf565b60405180910390fd5b60005b8151811015610a4757600082828151811061084757610846611f1a565b5b60200260200101519050600084148061087d57508383838151811061086f5761086e611f1a565b5b602002602001015160600151145b15610a3357428160600151106108c8576040517f08c379a00000000000000000000000000000000000000000000000000000000081526004016108bf9061212b565b60405180910390fd5b60006108d382610eaf565b9050600080828152602001908152602001600020600080820160006101000a81549073ffffffffffffffffffffffffffffffffffffffff02191690556001820160006101000a81549073ffffffffffffffffffffffffffffffffffffffff02191690556002820160006109469190611623565b600382016000905550506109a58160016000856000015173ffffffffffffffffffffffffffffffffffffffff1673ffffffffffffffffffffffffffffffffffffffff168152602001908152602001600020610ef590919063ffffffff16565b506109fb8160026000856020015173ffffffffffffffffffffffffffffffffffffffff1673ffffffffffffffffffffffffffffffffffffffff168152602001908152602001600020610ef590919063ffffffff16565b50610a308160038460400151604051610a149190611f85565b9081526020016040518091039020610ef590919063ffffffff16565b50505b508080610a3f90611fcb565b915050610829565b5050505050565b6000610a5a8251610f0c565b82604051602001610a6c9291906121de565b604051602081830303815290604052805190602001209050919050565b6000806000610a988585610fda565b9150915060006004811115610ab057610aaf61220d565b5b816004811115610ac357610ac261220d565b5b148015610afb57508573ffffffffffffffffffffffffffffffffffffffff168273ffffffffffffffffffffffffffffffffffffffff16145b80610b0d5750610b0c86868661102b565b5b925050509392505050565b600060405180608001604052808773ffffffffffffffffffffffffffffffffffffffff1681526020018673ffffffffffffffffffffffffffffffffffffffff16815260200185858080601f016020809104026020016040519081016040528093929190818152602001838380828437600081840152601f19601f8201169050808301925050505050505081526020018381525090506000610bb882610eaf565b9050600073ffffffffffffffffffffffffffffffffffffffff1660008083815260200190815260200160002060000160009054906101000a900473ffffffffffffffffffffffffffffffffffffffff1673ffffffffffffffffffffffffffffffffffffffff1614610c5e576040517f08c379a0000000000000000000000000000000000000000000000000000000008152600401610c5590612288565b60405180910390fd5b8160008083815260200190815260200160002060008201518160000160006101000a81548173ffffffffffffffffffffffffffffffffffffffff021916908373ffffffffffffffffffffffffffffffffffffffff16021790555060208201518160010160006101000a81548173ffffffffffffffffffffffffffffffffffffffff021916908373ffffffffffffffffffffffffffffffffffffffff1602179055506040820151816002019081610d149190612454565b5060608201518160030155905050610d778160016000856000015173ffffffffffffffffffffffffffffffffffffffff1673ffffffffffffffffffffffffffffffffffffffff16815260200190815260200160002061116f90919063ffffffff16565b50610dcd8160026000856020015173ffffffffffffffffffffffffffffffffffffffff1673ffffffffffffffffffffffffffffffffffffffff16815260200190815260200160002061116f90919063ffffffff16565b50610e028160038460400151604051610de69190611f85565b908152602001604051809103902061116f90919063ffffffff16565b5050505050505050565b60606000610e1c83600001611186565b905060608190508092505050919050565b6000610e3b826000016111e2565b9050919050565b6000610e5183600001836111f3565b905092915050565b6000604051602001610e6a90612572565b6040516020818303038152906040528051906020012082604051602001610e919190611f85565b60405160208183030381529060405280519060200120149050919050565b60008160000151826020015183604001518460600151604051602001610ed894939291906125f0565b604051602081830303815290604052805190602001209050919050565b6000610f048360000183611216565b905092915050565b606060006001610f1b8461132a565b01905060008167ffffffffffffffff811115610f3a57610f396118b5565b5b6040519080825280601f01601f191660200182016040528015610f6c5781602001600182028036833780820191505090505b509050600082602001820190505b600115610fcf578080600190039150507f3031323334353637383961626364656600000000000000000000000000000000600a86061a8153600a8581610fc357610fc261263a565b5b04945060008503610f7a575b819350505050919050565b600080604183510361101b5760008060006020860151925060408601519150606086015160001a905061100f8782858561147d565b94509450505050611024565b60006002915091505b9250929050565b60008060008573ffffffffffffffffffffffffffffffffffffffff16631626ba7e60e01b86866040516024016110629291906126cc565b604051602081830303815290604052907bffffffffffffffffffffffffffffffffffffffffffffffffffffffff19166020820180517bffffffffffffffffffffffffffffffffffffffffffffffffffffffff83818316178352505050506040516110cc91906126fc565b600060405180830381855afa9150503d8060008114611107576040519150601f19603f3d011682016040523d82523d6000602084013e61110c565b606091505b509150915081801561112057506020815110155b80156111645750631626ba7e60e01b7bffffffffffffffffffffffffffffffffffffffffffffffffffffffff191681806020019051810190611162919061273f565b145b925050509392505050565b600061117e836000018361155f565b905092915050565b6060816000018054806020026020016040519081016040528092919081815260200182805480156111d657602002820191906000526020600020905b8154815260200190600101908083116111c2575b50505050509050919050565b600081600001805490509050919050565b600080836001016000848152602001908152602001600020541415905092915050565b6000808360010160008481526020019081526020016000205490506000811461131e576000600182611248919061276c565b9050600060018660000180549050611260919061276c565b90508181146112cf57600086600001828154811061128157611280611f1a565b5b90600052602060002001549050808760000184815481106112a5576112a4611f1a565b5b90600052602060002001819055508387600101600083815260200190815260200160002081905550505b856000018054806112e3576112e26127a0565b5b600190038181906000526020600020016000905590558560010160008681526020019081526020016000206000905560019350505050611324565b60009150505b92915050565b600080600090507a184f03e93ff9f4daa797ed6e38ed64bf6a1f0100000000000000008310611388577a184f03e93ff9f4daa797ed6e38ed64bf6a1f010000000000000000838161137e5761137d61263a565b5b0492506040810190505b6d04ee2d6d415b85acef810000000083106113c5576d04ee2d6d415b85acef810000000083816113bb576113ba61263a565b5b0492506020810190505b662386f26fc1000083106113f457662386f26fc1000083816113ea576113e961263a565b5b0492506010810190505b6305f5e100831061141d576305f5e10083816114135761141261263a565b5b0492506008810190505b61271083106114425761271083816114385761143761263a565b5b0492506004810190505b60648310611465576064838161145b5761145a61263a565b5b0492506002810190505b600a8310611474576001810190505b80915050919050565b6000807f7fffffffffffffffffffffffffffffff5d576e7357a4501ddfe92f46681b20a08360001c11156114b8576000600391509150611556565b6000600187878787604051600081526020016040526040516114dd94939291906127eb565b6020604051602081039080840390855afa1580156114ff573d6000803e3d6000fd5b505050602060405103519050600073ffffffffffffffffffffffffffffffffffffffff168173ffffffffffffffffffffffffffffffffffffffff160361154d57600060019250925050611556565b80600092509250505b94509492505050565b600061156b83836111f3565b6115c45782600001829080600181540180825580915050600190039060005260206000200160009091909190915055826000018054905083600101600084815260200190815260200160002081905550600190506115c9565b600090505b92915050565b6040518060800160405280600073ffffffffffffffffffffffffffffffffffffffff168152602001600073ffffffffffffffffffffffffffffffffffffffff16815260200160608152602001600081525090565b50805461162f90612042565b6000825580601f106116415750611660565b601f01602090049060005260206000209081019061165f9190611663565b5b50565b5b8082111561167c576000816000905550600101611664565b5090565b6000604051905090565b600080fd5b600080fd5b600073ffffffffffffffffffffffffffffffffffffffff82169050919050565b60006116bf82611694565b9050919050565b6116cf816116b4565b81146116da57600080fd5b50565b6000813590506116ec816116c6565b92915050565b600080fd5b600080fd5b600080fd5b60008083601f840112611717576117166116f2565b5b8235905067ffffffffffffffff811115611734576117336116f7565b5b6020830191508360018202830111156117505761174f6116fc565b5b9250929050565b6000819050919050565b61176a81611757565b811461177557600080fd5b50565b60008135905061178781611761565b92915050565b60008083601f8401126117a3576117a26116f2565b5b8235905067ffffffffffffffff8111156117c0576117bf6116f7565b5b6020830191508360018202830111156117dc576117db6116fc565b5b9250929050565b600080600080600080600060a0888a0312156118025761180161168a565b5b60006118108a828b016116dd565b97505060206118218a828b016116dd565b965050604088013567ffffffffffffffff8111156118425761184161168f565b5b61184e8a828b01611701565b955095505060606118618a828b01611778565b935050608088013567ffffffffffffffff8111156118825761188161168f565b5b61188e8a828b0161178d565b925092505092959891949750929550565b600080fd5b6000601f19601f8301169050919050565b7f4e487b7100000000000000000000000000000000000000000000000000000000600052604160045260246000fd5b6118ed826118a4565b810181811067ffffffffffffffff8211171561190c5761190b6118b5565b5b80604052505050565b600061191f611680565b905061192b82826118e4565b919050565b600067ffffffffffffffff82111561194b5761194a6118b5565b5b611954826118a4565b9050602081019050919050565b82818337600083830152505050565b600061198361197e84611930565b611915565b90508281526020810184848401111561199f5761199e61189f565b5b6119aa848285611961565b509392505050565b600082601f8301126119c7576119c66116f2565b5b81356119d7848260208601611970565b91505092915050565b6000806000606084860312156119f9576119f861168a565b5b6000611a07868287016116dd565b9350506020611a18868287016116dd565b925050604084013567ffffffffffffffff811115611a3957611a3861168f565b5b611a45868287016119b2565b9150509250925092565b600081519050919050565b600082825260208201905092915050565b6000819050602082019050919050565b611a84816116b4565b82525050565b600081519050919050565b600082825260208201905092915050565b60005b83811015611ac4578082015181840152602081019050611aa9565b60008484015250505050565b6000611adb82611a8a565b611ae58185611a95565b9350611af5818560208601611aa6565b611afe816118a4565b840191505092915050565b611b1281611757565b82525050565b6000608083016000830151611b306000860182611a7b565b506020830151611b436020860182611a7b565b5060408301518482036040860152611b5b8282611ad0565b9150506060830151611b706060860182611b09565b508091505092915050565b6000611b878383611b18565b905092915050565b6000602082019050919050565b6000611ba782611a4f565b611bb18185611a5a565b935083602082028501611bc385611a6b565b8060005b85811015611bff5784840389528151611be08582611b7b565b9450611beb83611b8f565b925060208a01995050600181019050611bc7565b50829750879550505050505092915050565b60006020820190508181036000830152611c2b8184611b9c565b905092915050565b60008060008060608587031215611c4d57611c4c61168a565b5b6000611c5b878288016116dd565b945050602085013567ffffffffffffffff811115611c7c57611c7b61168f565b5b611c8887828801611701565b93509350506040611c9b87828801611778565b91505092959194509250565b60008060408385031215611cbe57611cbd61168a565b5b6000611ccc858286016116dd565b925050602083013567ffffffffffffffff811115611ced57611cec61168f565b5b611cf9858286016119b2565b9150509250929050565b600080600060608486031215611d1c57611d1b61168a565b5b6000611d2a868287016116dd565b935050602084013567ffffffffffffffff811115611d4b57611d4a61168f565b5b611d57868287016119b2565b9250506040611d6886828701611778565b9150509250925092565b611d7b816116b4565b82525050565b600082825260208201905092915050565b6000611d9e8385611d81565b9350611dab838584611961565b611db4836118a4565b840190509392505050565b611dc881611757565b82525050565b6000608082019050611de36000830188611d72565b611df06020830187611d72565b8181036040830152611e03818587611d92565b9050611e126060830184611dbf565b9695505050505050565b7f5369676e617475726520646f65736e2774206d61746368000000000000000000600082015250565b6000611e52601783611d81565b9150611e5d82611e1c565b602082019050919050565b60006020820190508181036000830152611e8181611e45565b9050919050565b7f526571756972656420617267756d656e743a20606f776e65726020616e642f6f60008201527f7220606772616e74656560000000000000000000000000000000000000000000602082015250565b6000611ee4602b83611d81565b9150611eef82611e88565b604082019050919050565b60006020820190508181036000830152611f1381611ed7565b9050919050565b7f4e487b7100000000000000000000000000000000000000000000000000000000600052603260045260246000fd5b600081905092915050565b6000611f5f82611a8a565b611f698185611f49565b9350611f79818560208601611aa6565b80840191505092915050565b6000611f918284611f54565b915081905092915050565b7f4e487b7100000000000000000000000000000000000000000000000000000000600052601160045260246000fd5b6000611fd682611757565b91507fffffffffffffffffffffffffffffffffffffffffffffffffffffffffffffffff820361200857612007611f9c565b5b600182019050919050565b7f4e487b7100000000000000000000000000000000000000000000000000000000600052602260045260246000fd5b6000600282049050600182168061205a57607f821691505b60208210810361206d5761206c612013565b5b50919050565b7f4e6f206772616e747320666f722073656e646572000000000000000000000000600082015250565b60006120a9601483611d81565b91506120b482612073565b602082019050919050565b600060208201905081810360008301526120d88161209c565b9050919050565b7f4772616e742069732074696d656c6f636b656400000000000000000000000000600082015250565b6000612115601383611d81565b9150612120826120df565b602082019050919050565b6000602082019050818103600083015261214481612108565b9050919050565b7f19457468657265756d205369676e6564204d6573736167653a0a000000000000600082015250565b6000612181601a83611f49565b915061218c8261214b565b601a82019050919050565b600081519050919050565b600081905092915050565b60006121b882612197565b6121c281856121a2565b93506121d2818560208601611aa6565b80840191505092915050565b60006121e982612174565b91506121f58285611f54565b915061220182846121ad565b91508190509392505050565b7f4e487b7100000000000000000000000000000000000000000000000000000000600052602160045260246000fd5b7f4772616e7420616c726561647920657869737473000000000000000000000000600082015250565b6000612272601483611d81565b915061227d8261223c565b602082019050919050565b600060208201905081810360008301526122a181612265565b9050919050565b60008190508160005260206000209050919050565b60006020601f8301049050919050565b600082821b905092915050565b60006008830261230a7fffffffffffffffffffffffffffffffffffffffffffffffffffffffffffffffff826122cd565b61231486836122cd565b95508019841693508086168417925050509392505050565b6000819050919050565b600061235161234c61234784611757565b61232c565b611757565b9050919050565b6000819050919050565b61236b83612336565b61237f61237782612358565b8484546122da565b825550505050565b600090565b612394612387565b61239f818484612362565b505050565b5b818110156123c3576123b860008261238c565b6001810190506123a5565b5050565b601f821115612408576123d9816122a8565b6123e2846122bd565b810160208510156123f1578190505b6124056123fd856122bd565b8301826123a4565b50505b505050565b600082821c905092915050565b600061242b6000198460080261240d565b1980831691505092915050565b6000612444838361241a565b9150826002028217905092915050565b61245d82611a8a565b67ffffffffffffffff811115612476576124756118b5565b5b6124808254612042565b61248b8282856123c7565b600060209050601f8311600181146124be57600084156124ac578287015190505b6124b68582612438565b86555061251e565b601f1984166124cc866122a8565b60005b828110156124f4578489015182556001820191506020850194506020810190506124cf565b86831015612511578489015161250d601f89168261241a565b8355505b6001600288020188555050505b505050505050565b7f3000000000000000000000000000000000000000000000000000000000000000600082015250565b600061255c600183611f49565b915061256782612526565b600182019050919050565b600061257d8261254f565b9150819050919050565b60008160601b9050919050565b600061259f82612587565b9050919050565b60006125b182612594565b9050919050565b6125c96125c4826116b4565b6125a6565b82525050565b6000819050919050565b6125ea6125e582611757565b6125cf565b82525050565b60006125fc82876125b8565b60148201915061260c82866125b8565b60148201915061261c8285611f54565b915061262882846125d9565b60208201915081905095945050505050565b7f4e487b7100000000000000000000000000000000000000000000000000000000600052601260045260246000fd5b6000819050919050565b61267c81612669565b82525050565b600082825260208201905092915050565b600061269e82612197565b6126a88185612682565b93506126b8818560208601611aa6565b6126c1816118a4565b840191505092915050565b60006040820190506126e16000830185612673565b81810360208301526126f38184612693565b90509392505050565b600061270882846121ad565b915081905092915050565b61271c81612669565b811461272757600080fd5b50565b60008151905061273981612713565b92915050565b6000602082840312156127555761275461168a565b5b60006127638482850161272a565b91505092915050565b600061277782611757565b915061278283611757565b925082820390508181111561279a57612799611f9c565b5b92915050565b7f4e487b7100000000000000000000000000000000000000000000000000000000600052603160045260246000fd5b600060ff82169050919050565b6127e5816127cf565b82525050565b60006080820190506128006000830187612673565b61280d60208301866127dc565b61281a6040830185612673565b6128276060830184612673565b9594505050505056fea2646970667358221220936a1f9ad269cf95329078b7e2d2773aa99723305ceb28b42bb1a742cc2dd00c64736f6c63430008130033",
  "linkReferences": {},
  "deployedLinkReferences": {}
}