{
  "_format": "hh-sol-artifact-1",
  "contractName": "AccessGrants",
  "sourceName": "contracts/AccessGrants.sol",
  "abi": [
    {
      "inputs": [],
      "stateMutability": "nonpayable",
      "type": "constructor"
    },
    {
      "inputs": [
        {
          "internalType": "address",
          "name": "grantee",
          "type": "address"
        },
        {
          "internalType": "string",
          "name": "dataId",
          "type": "string"
        },
        {
          "internalType": "uint256",
          "name": "lockedUntil",
          "type": "uint256"
        }
      ],
      "name": "deleteGrant",
      "outputs": [],
      "stateMutability": "nonpayable",
      "type": "function"
    },
    {
      "inputs": [
        {
          "internalType": "address",
          "name": "owner",
          "type": "address"
        },
        {
          "internalType": "address",
          "name": "grantee",
          "type": "address"
        },
        {
          "internalType": "string",
          "name": "dataId",
          "type": "string"
        }
      ],
      "name": "findGrants",
      "outputs": [
        {
          "components": [
            {
              "internalType": "address",
              "name": "owner",
              "type": "address"
            },
            {
              "internalType": "address",
              "name": "grantee",
              "type": "address"
            },
            {
              "internalType": "string",
              "name": "dataId",
              "type": "string"
            },
            {
              "internalType": "uint256",
              "name": "lockedUntil",
              "type": "uint256"
            }
          ],
          "internalType": "struct AccessGrants.Grant[]",
          "name": "",
          "type": "tuple[]"
        }
      ],
      "stateMutability": "view",
      "type": "function"
    },
    {
      "inputs": [
        {
          "internalType": "address",
          "name": "grantee",
          "type": "address"
        },
        {
          "internalType": "string",
          "name": "dataId",
          "type": "string"
        }
      ],
      "name": "grantsFor",
      "outputs": [
        {
          "components": [
            {
              "internalType": "address",
              "name": "owner",
              "type": "address"
            },
            {
              "internalType": "address",
              "name": "grantee",
              "type": "address"
            },
            {
              "internalType": "string",
              "name": "dataId",
              "type": "string"
            },
            {
              "internalType": "uint256",
              "name": "lockedUntil",
              "type": "uint256"
            }
          ],
          "internalType": "struct AccessGrants.Grant[]",
          "name": "",
          "type": "tuple[]"
        }
      ],
      "stateMutability": "view",
      "type": "function"
    },
    {
      "inputs": [
        {
          "internalType": "address",
          "name": "grantee",
          "type": "address"
        },
        {
          "internalType": "string",
          "name": "dataId",
          "type": "string"
        },
        {
          "internalType": "uint256",
          "name": "lockedUntil",
          "type": "uint256"
        }
      ],
      "name": "insertGrant",
      "outputs": [],
      "stateMutability": "nonpayable",
      "type": "function"
    }
  ],
  "bytecode": "0x608060405234801561001057600080fd5b50611c45806100206000396000f3fe608060405234801561001057600080fd5b506004361061004c5760003560e01c80637e0cc3a214610051578063b14d52d514610081578063b7dd88651461009d578063c28c6524146100cd575b600080fd5b61006b60048036038101906100669190611186565b6100e9565b60405161007891906113c1565b60405180910390f35b61009b6004803603810190610096919061140f565b6106b3565b005b6100b760048036038101906100b2919061147e565b610961565b6040516100c491906113c1565b60405180910390f35b6100e760048036038101906100e2919061140f565b610977565b005b60608060008073ffffffffffffffffffffffffffffffffffffffff168673ffffffffffffffffffffffffffffffffffffffff16146101b857610168600160008873ffffffffffffffffffffffffffffffffffffffff1673ffffffffffffffffffffffffffffffffffffffff168152602001908152602001600020610bf2565b91506101b1600160008873ffffffffffffffffffffffffffffffffffffffff1673ffffffffffffffffffffffffffffffffffffffff168152602001908152602001600020610c13565b90506102bf565b600073ffffffffffffffffffffffffffffffffffffffff168573ffffffffffffffffffffffffffffffffffffffff161461028357610233600260008773ffffffffffffffffffffffffffffffffffffffff1673ffffffffffffffffffffffffffffffffffffffff168152602001908152602001600020610bf2565b915061027c600260008773ffffffffffffffffffffffffffffffffffffffff1673ffffffffffffffffffffffffffffffffffffffff168152602001908152602001600020610c13565b90506102be565b6040517f08c379a00000000000000000000000000000000000000000000000000000000081526004016102b59061155d565b60405180910390fd5b5b6000808267ffffffffffffffff8111156102dc576102db61105b565b5b60405190808252806020026020018201604052801561030a5781602001602082028036833780820191505090505b50905060005b8381101561045e57600085828151811061032d5761032c61157d565b5b6020026020010151905060008073ffffffffffffffffffffffffffffffffffffffff168a73ffffffffffffffffffffffffffffffffffffffff1614806103c057506103bf82600260008d73ffffffffffffffffffffffffffffffffffffffff1673ffffffffffffffffffffffffffffffffffffffff168152602001908152602001600020610c2890919063ffffffff16565b5b905080801561040b57506103d389610c3f565b8061040a57506104098260038b6040516103ed91906115e8565b9081526020016040518091039020610c2890919063ffffffff16565b5b5b9050801561044957848061041e9061162e565b95505060018484815181106104365761043561157d565b5b6020026020010190151590811515815250505b505080806104569061162e565b915050610310565b5060008267ffffffffffffffff81111561047b5761047a61105b565b5b6040519080825280602002602001820160405280156104b457816020015b6104a1610f1d565b8152602001906001900390816104995790505b5090506000805b858110156106a2578381815181106104d6576104d561157d565b5b60200260200101511561068f576000808883815181106104f9576104f861157d565b5b602002602001015181526020019081526020016000206040518060800160405290816000820160009054906101000a900473ffffffffffffffffffffffffffffffffffffffff1673ffffffffffffffffffffffffffffffffffffffff1673ffffffffffffffffffffffffffffffffffffffff1681526020016001820160009054906101000a900473ffffffffffffffffffffffffffffffffffffffff1673ffffffffffffffffffffffffffffffffffffffff1673ffffffffffffffffffffffffffffffffffffffff1681526020016002820180546105d6906116a5565b80601f0160208091040260200160405190810160405280929190818152602001828054610602906116a5565b801561064f5780601f106106245761010080835404028352916020019161064f565b820191906000526020600020905b81548152906001019060200180831161063257829003601f168201915b505050505081526020016003820154815250508383815181106106755761067461157d565b5b6020026020010181905250818061068b9061162e565b9250505b808061069a9061162e565b9150506104bb565b508196505050505050509392505050565b600060405180608001604052803373ffffffffffffffffffffffffffffffffffffffff1681526020018573ffffffffffffffffffffffffffffffffffffffff168152602001848152602001838152509050600061070f82610c95565b9050600073ffffffffffffffffffffffffffffffffffffffff1660008083815260200190815260200160002060000160009054906101000a900473ffffffffffffffffffffffffffffffffffffffff1673ffffffffffffffffffffffffffffffffffffffff16146107b5576040517f08c379a00000000000000000000000000000000000000000000000000000000081526004016107ac90611722565b60405180910390fd5b8160008083815260200190815260200160002060008201518160000160006101000a81548173ffffffffffffffffffffffffffffffffffffffff021916908373ffffffffffffffffffffffffffffffffffffffff16021790555060208201518160010160006101000a81548173ffffffffffffffffffffffffffffffffffffffff021916908373ffffffffffffffffffffffffffffffffffffffff160217905550604082015181600201908161086b91906118ee565b50606082015181600301559050506108ce8160016000856000015173ffffffffffffffffffffffffffffffffffffffff1673ffffffffffffffffffffffffffffffffffffffff168152602001908152602001600020610cdb90919063ffffffff16565b506109248160026000856020015173ffffffffffffffffffffffffffffffffffffffff1673ffffffffffffffffffffffffffffffffffffffff168152602001908152602001600020610cdb90919063ffffffff16565b50610959816003846040015160405161093d91906115e8565b9081526020016040518091039020610cdb90919063ffffffff16565b505050505050565b606061096f600084846100e9565b905092915050565b60006109843385856100e9565b905060008151116109ca576040517f08c379a00000000000000000000000000000000000000000000000000000000081526004016109c190611a0c565b60405180910390fd5b60005b8151811015610beb5760008282815181106109eb576109ea61157d565b5b602002602001015190506000841480610a21575083838381518110610a1357610a1261157d565b5b602002602001015160600151145b15610bd75742816060015110610a6c576040517f08c379a0000000000000000000000000000000000000000000000000000000008152600401610a6390611a78565b60405180910390fd5b6000610a7782610c95565b9050600080828152602001908152602001600020600080820160006101000a81549073ffffffffffffffffffffffffffffffffffffffff02191690556001820160006101000a81549073ffffffffffffffffffffffffffffffffffffffff0219169055600282016000610aea9190610f71565b60038201600090555050610b498160016000856000015173ffffffffffffffffffffffffffffffffffffffff1673ffffffffffffffffffffffffffffffffffffffff168152602001908152602001600020610cf290919063ffffffff16565b50610b9f8160026000856020015173ffffffffffffffffffffffffffffffffffffffff1673ffffffffffffffffffffffffffffffffffffffff168152602001908152602001600020610cf290919063ffffffff16565b50610bd48160038460400151604051610bb891906115e8565b9081526020016040518091039020610cf290919063ffffffff16565b50505b508080610be39061162e565b9150506109cd565b5050505050565b60606000610c0283600001610d09565b905060608190508092505050919050565b6000610c2182600001610d65565b9050919050565b6000610c378360000183610d76565b905092915050565b6000604051602001610c5090611ae4565b6040516020818303038152906040528051906020012082604051602001610c7791906115e8565b60405160208183030381529060405280519060200120149050919050565b60008160000151826020015183604001518460600151604051602001610cbe9493929190611b62565b604051602081830303815290604052805190602001209050919050565b6000610cea8360000183610d99565b905092915050565b6000610d018360000183610e09565b905092915050565b606081600001805480602002602001604051908101604052809291908181526020018280548015610d5957602002820191906000526020600020905b815481526020019060010190808311610d45575b50505050509050919050565b600081600001805490509050919050565b600080836001016000848152602001908152602001600020541415905092915050565b6000610da58383610d76565b610dfe578260000182908060018154018082558091505060019003906000526020600020016000909190919091505582600001805490508360010160008481526020019081526020016000208190555060019050610e03565b600090505b92915050565b60008083600101600084815260200190815260200160002054905060008114610f11576000600182610e3b9190611bac565b9050600060018660000180549050610e539190611bac565b9050818114610ec2576000866000018281548110610e7457610e7361157d565b5b9060005260206000200154905080876000018481548110610e9857610e9761157d565b5b90600052602060002001819055508387600101600083815260200190815260200160002081905550505b85600001805480610ed657610ed5611be0565b5b600190038181906000526020600020016000905590558560010160008681526020019081526020016000206000905560019350505050610f17565b60009150505b92915050565b6040518060800160405280600073ffffffffffffffffffffffffffffffffffffffff168152602001600073ffffffffffffffffffffffffffffffffffffffff16815260200160608152602001600081525090565b508054610f7d906116a5565b6000825580601f10610f8f5750610fae565b601f016020900490600052602060002090810190610fad9190610fb1565b5b50565b5b80821115610fca576000816000905550600101610fb2565b5090565b6000604051905090565b600080fd5b600080fd5b600073ffffffffffffffffffffffffffffffffffffffff82169050919050565b600061100d82610fe2565b9050919050565b61101d81611002565b811461102857600080fd5b50565b60008135905061103a81611014565b92915050565b600080fd5b600080fd5b6000601f19601f8301169050919050565b7f4e487b7100000000000000000000000000000000000000000000000000000000600052604160045260246000fd5b6110938261104a565b810181811067ffffffffffffffff821117156110b2576110b161105b565b5b80604052505050565b60006110c5610fce565b90506110d1828261108a565b919050565b600067ffffffffffffffff8211156110f1576110f061105b565b5b6110fa8261104a565b9050602081019050919050565b82818337600083830152505050565b6000611129611124846110d6565b6110bb565b90508281526020810184848401111561114557611144611045565b5b611150848285611107565b509392505050565b600082601f83011261116d5761116c611040565b5b813561117d848260208601611116565b91505092915050565b60008060006060848603121561119f5761119e610fd8565b5b60006111ad8682870161102b565b93505060206111be8682870161102b565b925050604084013567ffffffffffffffff8111156111df576111de610fdd565b5b6111eb86828701611158565b9150509250925092565b600081519050919050565b600082825260208201905092915050565b6000819050602082019050919050565b61122a81611002565b82525050565b600081519050919050565b600082825260208201905092915050565b60005b8381101561126a57808201518184015260208101905061124f565b60008484015250505050565b600061128182611230565b61128b818561123b565b935061129b81856020860161124c565b6112a48161104a565b840191505092915050565b6000819050919050565b6112c2816112af565b82525050565b60006080830160008301516112e06000860182611221565b5060208301516112f36020860182611221565b506040830151848203604086015261130b8282611276565b915050606083015161132060608601826112b9565b508091505092915050565b600061133783836112c8565b905092915050565b6000602082019050919050565b6000611357826111f5565b6113618185611200565b93508360208202850161137385611211565b8060005b858110156113af5784840389528151611390858261132b565b945061139b8361133f565b925060208a01995050600181019050611377565b50829750879550505050505092915050565b600060208201905081810360008301526113db818461134c565b905092915050565b6113ec816112af565b81146113f757600080fd5b50565b600081359050611409816113e3565b92915050565b60008060006060848603121561142857611427610fd8565b5b60006114368682870161102b565b935050602084013567ffffffffffffffff81111561145757611456610fdd565b5b61146386828701611158565b9250506040611474868287016113fa565b9150509250925092565b6000806040838503121561149557611494610fd8565b5b60006114a38582860161102b565b925050602083013567ffffffffffffffff8111156114c4576114c3610fdd565b5b6114d085828601611158565b9150509250929050565b600082825260208201905092915050565b7f4e656974686572206f776e6572206e6f72206772616e7465652070726f76696460008201527f6564000000000000000000000000000000000000000000000000000000000000602082015250565b60006115476022836114da565b9150611552826114eb565b604082019050919050565b600060208201905081810360008301526115768161153a565b9050919050565b7f4e487b7100000000000000000000000000000000000000000000000000000000600052603260045260246000fd5b600081905092915050565b60006115c282611230565b6115cc81856115ac565b93506115dc81856020860161124c565b80840191505092915050565b60006115f482846115b7565b915081905092915050565b7f4e487b7100000000000000000000000000000000000000000000000000000000600052601160045260246000fd5b6000611639826112af565b91507fffffffffffffffffffffffffffffffffffffffffffffffffffffffffffffffff820361166b5761166a6115ff565b5b600182019050919050565b7f4e487b7100000000000000000000000000000000000000000000000000000000600052602260045260246000fd5b600060028204905060018216806116bd57607f821691505b6020821081036116d0576116cf611676565b5b50919050565b7f4772616e7420616c726561647920657869737473000000000000000000000000600082015250565b600061170c6014836114da565b9150611717826116d6565b602082019050919050565b6000602082019050818103600083015261173b816116ff565b9050919050565b60008190508160005260206000209050919050565b60006020601f8301049050919050565b600082821b905092915050565b6000600883026117a47fffffffffffffffffffffffffffffffffffffffffffffffffffffffffffffffff82611767565b6117ae8683611767565b95508019841693508086168417925050509392505050565b6000819050919050565b60006117eb6117e66117e1846112af565b6117c6565b6112af565b9050919050565b6000819050919050565b611805836117d0565b611819611811826117f2565b848454611774565b825550505050565b600090565b61182e611821565b6118398184846117fc565b505050565b5b8181101561185d57611852600082611826565b60018101905061183f565b5050565b601f8211156118a25761187381611742565b61187c84611757565b8101602085101561188b578190505b61189f61189785611757565b83018261183e565b50505b505050565b600082821c905092915050565b60006118c5600019846008026118a7565b1980831691505092915050565b60006118de83836118b4565b9150826002028217905092915050565b6118f782611230565b67ffffffffffffffff8111156119105761190f61105b565b5b61191a82546116a5565b611925828285611861565b600060209050601f8311600181146119585760008415611946578287015190505b61195085826118d2565b8655506119b8565b601f19841661196686611742565b60005b8281101561198e57848901518255600182019150602085019450602081019050611969565b868310156119ab57848901516119a7601f8916826118b4565b8355505b6001600288020188555050505b505050505050565b7f4e6f206772616e747320666f722073656e646572000000000000000000000000600082015250565b60006119f66014836114da565b9150611a01826119c0565b602082019050919050565b60006020820190508181036000830152611a25816119e9565b9050919050565b7f4772616e742069732074696d656c6f636b656400000000000000000000000000600082015250565b6000611a626013836114da565b9150611a6d82611a2c565b602082019050919050565b60006020820190508181036000830152611a9181611a55565b9050919050565b7f3000000000000000000000000000000000000000000000000000000000000000600082015250565b6000611ace6001836115ac565b9150611ad982611a98565b600182019050919050565b6000611aef82611ac1565b9150819050919050565b60008160601b9050919050565b6000611b1182611af9565b9050919050565b6000611b2382611b06565b9050919050565b611b3b611b3682611002565b611b18565b82525050565b6000819050919050565b611b5c611b57826112af565b611b41565b82525050565b6000611b6e8287611b2a565b601482019150611b7e8286611b2a565b601482019150611b8e82856115b7565b9150611b9a8284611b4b565b60208201915081905095945050505050565b6000611bb7826112af565b9150611bc2836112af565b9250828203905081811115611bda57611bd96115ff565b5b92915050565b7f4e487b7100000000000000000000000000000000000000000000000000000000600052603160045260246000fdfea2646970667358221220dbe78eb493db3bd279a64c9711f968804a1de0f50925ce05fc4e073d065bb44464736f6c63430008130033",
  "linkReferences": {},
  "deployedLinkReferences": {}
}