{
  "_format": "hh-sol-artifact-1",
  "contractName": "AccessGrants",
  "sourceName": "contracts/AccessGrants.sol",
  "abi": [
    {
      "inputs": [],
      "stateMutability": "nonpayable",
      "type": "constructor"
    },
    {
      "anonymous": false,
      "inputs": [
        {
          "indexed": true,
          "internalType": "address",
          "name": "owner",
          "type": "address"
        },
        {
          "indexed": true,
          "internalType": "address",
          "name": "grantee",
          "type": "address"
        },
        {
          "indexed": true,
          "internalType": "string",
          "name": "dataId",
          "type": "string"
        },
        {
          "indexed": false,
          "internalType": "uint256",
          "name": "lockedUntil",
          "type": "uint256"
        }
      ],
      "name": "GrantAdded",
      "type": "event"
    },
    {
      "anonymous": false,
      "inputs": [
        {
          "indexed": true,
          "internalType": "address",
          "name": "owner",
          "type": "address"
        },
        {
          "indexed": true,
          "internalType": "address",
          "name": "grantee",
          "type": "address"
        },
        {
          "indexed": true,
          "internalType": "string",
          "name": "dataId",
          "type": "string"
        },
        {
          "indexed": false,
          "internalType": "uint256",
          "name": "lockedUntil",
          "type": "uint256"
        }
      ],
      "name": "GrantDeleted",
      "type": "event"
    },
    {
      "inputs": [
        {
          "internalType": "address",
          "name": "grantee",
          "type": "address"
        },
        {
          "internalType": "string",
          "name": "dataId",
          "type": "string"
        },
        {
          "internalType": "uint256",
          "name": "lockedUntil",
          "type": "uint256"
        }
      ],
      "name": "deleteGrant",
      "outputs": [],
      "stateMutability": "nonpayable",
      "type": "function"
    },
    {
      "inputs": [
        {
          "internalType": "address",
          "name": "owner",
          "type": "address"
        },
        {
          "internalType": "address",
          "name": "grantee",
          "type": "address"
        },
        {
          "internalType": "string",
          "name": "dataId",
          "type": "string"
        },
        {
          "internalType": "uint256",
          "name": "lockedUntil",
          "type": "uint256"
        },
        {
          "internalType": "bytes",
          "name": "signature",
          "type": "bytes"
        }
      ],
      "name": "deleteGrantBySignature",
      "outputs": [],
      "stateMutability": "nonpayable",
      "type": "function"
    },
    {
      "inputs": [
        {
          "internalType": "address",
          "name": "owner",
          "type": "address"
        },
        {
          "internalType": "address",
          "name": "grantee",
          "type": "address"
        },
        {
          "internalType": "string",
          "name": "dataId",
          "type": "string"
        },
        {
          "internalType": "uint256",
          "name": "lockedUntil",
          "type": "uint256"
        }
      ],
      "name": "deleteGrantBySignatureMessage",
      "outputs": [
        {
          "internalType": "string",
          "name": "",
          "type": "string"
        }
      ],
      "stateMutability": "pure",
      "type": "function"
    },
    {
      "inputs": [
        {
          "internalType": "address",
          "name": "owner",
          "type": "address"
        },
        {
          "internalType": "address",
          "name": "grantee",
          "type": "address"
        },
        {
          "internalType": "string",
          "name": "dataId",
          "type": "string"
        }
      ],
      "name": "findGrants",
      "outputs": [
        {
          "components": [
            {
              "internalType": "address",
              "name": "owner",
              "type": "address"
            },
            {
              "internalType": "address",
              "name": "grantee",
              "type": "address"
            },
            {
              "internalType": "string",
              "name": "dataId",
              "type": "string"
            },
            {
              "internalType": "uint256",
              "name": "lockedUntil",
              "type": "uint256"
            }
          ],
          "internalType": "struct AccessGrants.Grant[]",
          "name": "",
          "type": "tuple[]"
        }
      ],
      "stateMutability": "view",
      "type": "function"
    },
    {
      "inputs": [
        {
          "internalType": "address",
          "name": "grantee",
          "type": "address"
        },
        {
          "internalType": "string",
          "name": "dataId",
          "type": "string"
        }
      ],
      "name": "grantsFor",
      "outputs": [
        {
          "components": [
            {
              "internalType": "address",
              "name": "owner",
              "type": "address"
            },
            {
              "internalType": "address",
              "name": "grantee",
              "type": "address"
            },
            {
              "internalType": "string",
              "name": "dataId",
              "type": "string"
            },
            {
              "internalType": "uint256",
              "name": "lockedUntil",
              "type": "uint256"
            }
          ],
          "internalType": "struct AccessGrants.Grant[]",
          "name": "",
          "type": "tuple[]"
        }
      ],
      "stateMutability": "view",
      "type": "function"
    },
    {
      "inputs": [
        {
          "internalType": "address",
          "name": "grantee",
          "type": "address"
        },
        {
          "internalType": "string",
          "name": "dataId",
          "type": "string"
        },
        {
          "internalType": "uint256",
          "name": "lockedUntil",
          "type": "uint256"
        }
      ],
      "name": "insertGrant",
      "outputs": [],
      "stateMutability": "nonpayable",
      "type": "function"
    },
    {
      "inputs": [
        {
          "internalType": "address",
          "name": "owner",
          "type": "address"
        },
        {
          "internalType": "address",
          "name": "grantee",
          "type": "address"
        },
        {
          "internalType": "string",
          "name": "dataId",
          "type": "string"
        },
        {
          "internalType": "uint256",
          "name": "lockedUntil",
          "type": "uint256"
        },
        {
          "internalType": "bytes",
          "name": "signature",
          "type": "bytes"
        }
      ],
      "name": "insertGrantBySignature",
      "outputs": [],
      "stateMutability": "nonpayable",
      "type": "function"
    },
    {
      "inputs": [
        {
          "internalType": "address",
          "name": "owner",
          "type": "address"
        },
        {
          "internalType": "address",
          "name": "grantee",
          "type": "address"
        },
        {
          "internalType": "string",
          "name": "dataId",
          "type": "string"
        },
        {
          "internalType": "uint256",
          "name": "lockedUntil",
          "type": "uint256"
        }
      ],
      "name": "insertGrantBySignatureMessage",
      "outputs": [
        {
          "internalType": "string",
          "name": "",
          "type": "string"
        }
      ],
      "stateMutability": "pure",
      "type": "function"
    }
  ],
  "bytecode": "0x608060405234801561001057600080fd5b50611ea5806100206000396000f3fe608060405234801561001057600080fd5b50600436106100885760003560e01c8063b14d52d51161005b578063b14d52d5146100fe578063b25875b914610111578063b7dd886514610124578063c28c65241461013757600080fd5b8063236c70621461008d5780632ae12052146100b65780634ba0b062146100c95780637e0cc3a2146100de575b600080fd5b6100a061009b3660046115cc565b61014a565b6040516100ad9190611685565b60405180910390f35b6100a06100c43660046115cc565b610197565b6100dc6100d7366004611698565b6101ca565b005b6100f16100ec3660046117d6565b610286565b6040516100ad9190611834565b6100dc61010c3660046118cd565b6106e1565b6100dc61011f366004611698565b6106f4565b6100f1610132366004611927565b610797565b6100dc610145366004611975565b6107ae565b6060610155866107bf565b61015e866107bf565b8585610169866107d5565b60405160200161017d9594939291906119f7565b604051602081830303815290604052905095945050505050565b60606101a2866107bf565b6101ab866107bf565b85856101b6866107d5565b60405160200161017d959493929190611b19565b61021f876101e36101de8a8a8a8a8a610197565b610875565b84848080601f0160208091040260200160405190810160405280939291908181526020018383808284376000920191909152506108b092505050565b6102705760405162461bcd60e51b815260206004820152601760248201527f5369676e617475726520646f65736e2774206d6174636800000000000000000060448201526064015b60405180910390fd5b61027d8787878787610911565b50505050505050565b60608060006001600160a01b038616156102e6576001600160a01b03861660009081526001602052604090206102bb90610b58565b6001600160a01b03871660009081526001602052604090209092506102df90610b6c565b90506103a8565b6001600160a01b0385161561033a576001600160a01b038516600090815260026020526040902061031690610b58565b6001600160a01b03861660009081526002602052604090209092506102df90610b6c565b60405162461bcd60e51b815260206004820152602b60248201527f526571756972656420617267756d656e743a20606f776e65726020616e642f6f60448201527f7220606772616e746565600000000000000000000000000000000000000000006064820152608401610267565b6000808267ffffffffffffffff8111156103c4576103c4611733565b6040519080825280602002602001820160405280156103ed578160200160208202803683370190505b50905060005b838110156104e657600085828151811061040f5761040f611b6c565b602002602001015190506000806001600160a01b03168a6001600160a01b0316148061045857506001600160a01b038a1660009081526002602052604090206104589083610b76565b8015610497575061046889610b8e565b8061049757506104978260038b6040516104829190611b82565b90815260405190819003602001902090610b76565b905080156104d157846104a981611bb4565b95505060018484815181106104c0576104c0611b6c565b911515602092830291909101909101525b505080806104de90611bb4565b9150506103f3565b5060008267ffffffffffffffff81111561050257610502611733565b60405190808252806020026020018201604052801561057057816020015b61055d604051806080016040528060006001600160a01b0316815260200160006001600160a01b0316815260200160608152602001600081525090565b8152602001906001900390816105205790505b5090506000805b858110156106d25783818151811061059157610591611b6c565b6020026020010151156106c0576000808883815181106105b3576105b3611b6c565b6020908102919091018101518252818101929092526040908101600020815160808101835281546001600160a01b03908116825260018301541693810193909352600281018054919284019161060890611bcd565b80601f016020809104026020016040519081016040528092919081815260200182805461063490611bcd565b80156106815780601f1061065657610100808354040283529160200191610681565b820191906000526020600020905b81548152906001019060200180831161066457829003601f168201915b505050505081526020016003820154815250508383815181106106a6576106a6611b6c565b602002602001018190525081806106bc90611bb4565b9250505b806106ca81611bb4565b915050610577565b50909998505050505050505050565b6106ee3385858585610911565b50505050565b610708876101e36101de8a8a8a8a8a61014a565b6107545760405162461bcd60e51b815260206004820152601760248201527f5369676e617475726520646f65736e2774206d617463680000000000000000006044820152606401610267565b61027d878787878080601f016020809104026020016040519081016040528093929190818152602001838380828437600092019190915250899250610be6915050565b60606107a560008484610286565b90505b92915050565b6107ba33848484610be6565b505050565b60606107a86001600160a01b0383166014610e57565b606060006107e28361101c565b600101905060008167ffffffffffffffff81111561080257610802611733565b6040519080825280601f01601f19166020018201604052801561082c576020820181803683370190505b5090508181016020015b600019017f3031323334353637383961626364656600000000000000000000000000000000600a86061a8153600a850494508461083657509392505050565b600061088182516107d5565b82604051602001610893929190611c07565b604051602081830303815290604052805190602001209050919050565b60008060006108bf85856110fe565b909250905060008160048111156108d8576108d8611c62565b1480156108f65750856001600160a01b0316826001600160a01b0316145b806109075750610907868686611143565b9695505050505050565b60006040518060800160405280876001600160a01b03168152602001866001600160a01b0316815260200185858080601f0160208091040260200160405190810160405280939291908181526020018383808284376000920182905250938552505050602090910184905290915061098882611275565b6000818152602081905260409020549091506001600160a01b0316156109f05760405162461bcd60e51b815260206004820152601460248201527f4772616e7420616c7265616479206578697374730000000000000000000000006044820152606401610267565b600081815260208181526040918290208451815473ffffffffffffffffffffffffffffffffffffffff199081166001600160a01b0392831617835592860151600183018054909416911617909155908301518391906002820190610a549082611cbe565b506060919091015160039091015581516001600160a01b03166000908152600160205260409020610a85908261129e565b506020808301516001600160a01b03166000908152600290915260409020610aad908261129e565b50610adb8160038460400151604051610ac69190611b82565b9081526040519081900360200190209061129e565b508160400151604051610aee9190611b82565b604051809103902082602001516001600160a01b031683600001516001600160a01b03167faa11b1607ce40799434b358e476f60277b9c8879ca956534f8f185a8b7e227a78560600151604051610b4791815260200190565b60405180910390a450505050505050565b60606000610b65836112aa565b9392505050565b60006107a8825490565b600081815260018301602052604081205415156107a5565b604051600360fc1b60208201526000906021016040516020818303038152906040528051906020012082604051602001610bc89190611b82565b60405160208183030381529060405280519060200120149050919050565b6000610bf3858585610286565b90506000815111610c465760405162461bcd60e51b815260206004820152601360248201527f4e6f206772616e747320666f72206f776e6572000000000000000000000000006044820152606401610267565b60005b8151811015610e4f576000828281518110610c6657610c66611b6c565b602002602001015190508360001480610c9b575083838381518110610c8d57610c8d611b6c565b602002602001015160600151145b15610e3c5742816060015110610cf35760405162461bcd60e51b815260206004820152601360248201527f4772616e742069732074696d656c6f636b6564000000000000000000000000006044820152606401610267565b6000610cfe82611275565b6000818152602081905260408120805473ffffffffffffffffffffffffffffffffffffffff1990811682556001820180549091169055919250610d446002830182611518565b50600060039190910181905582516001600160a01b03168152600160205260409020610d709082611306565b506020808301516001600160a01b03166000908152600290915260409020610d989082611306565b50610dc68160038460400151604051610db19190611b82565b90815260405190819003602001902090611306565b508160400151604051610dd99190611b82565b604051809103902082602001516001600160a01b031683600001516001600160a01b03167ffeff9850709af031b875a6b4bea72ef38f7679e252a8aeecd4d176225b1ee3238560600151604051610e3291815260200190565b60405180910390a4505b5080610e4781611bb4565b915050610c49565b505050505050565b60606000610e66836002611d7e565b610e71906002611d95565b67ffffffffffffffff811115610e8957610e89611733565b6040519080825280601f01601f191660200182016040528015610eb3576020820181803683370190505b509050600360fc1b81600081518110610ece57610ece611b6c565b60200101906001600160f81b031916908160001a9053507f780000000000000000000000000000000000000000000000000000000000000081600181518110610f1957610f19611b6c565b60200101906001600160f81b031916908160001a9053506000610f3d846002611d7e565b610f48906001611d95565b90505b6001811115610fcd577f303132333435363738396162636465660000000000000000000000000000000085600f1660108110610f8957610f89611b6c565b1a60f81b828281518110610f9f57610f9f611b6c565b60200101906001600160f81b031916908160001a90535060049490941c93610fc681611da8565b9050610f4b565b5083156107a55760405162461bcd60e51b815260206004820181905260248201527f537472696e67733a20686578206c656e67746820696e73756666696369656e746044820152606401610267565b6000807a184f03e93ff9f4daa797ed6e38ed64bf6a1f0100000000000000008310611065577a184f03e93ff9f4daa797ed6e38ed64bf6a1f010000000000000000830492506040015b6d04ee2d6d415b85acef81000000008310611091576d04ee2d6d415b85acef8100000000830492506020015b662386f26fc1000083106110af57662386f26fc10000830492506010015b6305f5e10083106110c7576305f5e100830492506008015b61271083106110db57612710830492506004015b606483106110ed576064830492506002015b600a83106107a85760010192915050565b60008082516041036111345760208301516040840151606085015160001a61112887828585611312565b9450945050505061113c565b506000905060025b9250929050565b6000806000856001600160a01b0316631626ba7e60e01b868660405160240161116d929190611dbf565b60408051601f198184030181529181526020820180517bffffffffffffffffffffffffffffffffffffffffffffffffffffffff167fffffffff000000000000000000000000000000000000000000000000000000009094169390931790925290516111d89190611b82565b600060405180830381855afa9150503d8060008114611213576040519150601f19603f3d011682016040523d82523d6000602084013e611218565b606091505b509150915081801561122c57506020815110155b8015610907575080517f1626ba7e000000000000000000000000000000000000000000000000000000009061126a9083016020908101908401611de0565b149695505050505050565b600081600001518260200151836040015184606001516040516020016108939493929190611df9565b60006107a583836113d6565b6060816000018054806020026020016040519081016040528092919081815260200182805480156112fa57602002820191906000526020600020905b8154815260200190600101908083116112e6575b50505050509050919050565b60006107a58383611425565b6000807f7fffffffffffffffffffffffffffffff5d576e7357a4501ddfe92f46681b20a083111561134957506000905060036113cd565b6040805160008082526020820180845289905260ff881692820192909252606081018690526080810185905260019060a0016020604051602081039080840390855afa15801561139d573d6000803e3d6000fd5b5050604051601f1901519150506001600160a01b0381166113c6576000600192509250506113cd565b9150600090505b94509492505050565b600081815260018301602052604081205461141d575081546001818101845560008481526020808220909301849055845484825282860190935260409020919091556107a8565b5060006107a8565b6000818152600183016020526040812054801561150e576000611449600183611e46565b855490915060009061145d90600190611e46565b90508181146114c257600086600001828154811061147d5761147d611b6c565b90600052602060002001549050808760000184815481106114a0576114a0611b6c565b6000918252602080832090910192909255918252600188019052604090208390555b85548690806114d3576114d3611e59565b6001900381819060005260206000200160009055905585600101600086815260200190815260200160002060009055600193505050506107a8565b60009150506107a8565b50805461152490611bcd565b6000825580601f10611534575050565b601f0160209004906000526020600020908101906115529190611555565b50565b5b8082111561156a5760008155600101611556565b5090565b80356001600160a01b038116811461158557600080fd5b919050565b60008083601f84011261159c57600080fd5b50813567ffffffffffffffff8111156115b457600080fd5b60208301915083602082850101111561113c57600080fd5b6000806000806000608086880312156115e457600080fd5b6115ed8661156e565b94506115fb6020870161156e565b9350604086013567ffffffffffffffff81111561161757600080fd5b6116238882890161158a565b96999598509660600135949350505050565b60005b83811015611650578181015183820152602001611638565b50506000910152565b60008151808452611671816020860160208601611635565b601f01601f19169290920160200192915050565b6020815260006107a56020830184611659565b600080600080600080600060a0888a0312156116b357600080fd5b6116bc8861156e565b96506116ca6020890161156e565b9550604088013567ffffffffffffffff808211156116e757600080fd5b6116f38b838c0161158a565b909750955060608a0135945060808a013591508082111561171357600080fd5b506117208a828b0161158a565b989b979a50959850939692959293505050565b634e487b7160e01b600052604160045260246000fd5b600082601f83011261175a57600080fd5b813567ffffffffffffffff8082111561177557611775611733565b604051601f8301601f19908116603f0116810190828211818310171561179d5761179d611733565b816040528381528660208588010111156117b657600080fd5b836020870160208301376000602085830101528094505050505092915050565b6000806000606084860312156117eb57600080fd5b6117f48461156e565b92506118026020850161156e565b9150604084013567ffffffffffffffff81111561181e57600080fd5b61182a86828701611749565b9150509250925092565b60006020808301818452808551808352604092508286019150828160051b87010184880160005b838110156118bf57603f19898403018552815160806001600160a01b03808351168652808a840151168a8701525087820151818987015261189e82870182611659565b6060938401519690930195909552509487019492509086019060010161185b565b509098975050505050505050565b600080600080606085870312156118e357600080fd5b6118ec8561156e565b9350602085013567ffffffffffffffff81111561190857600080fd5b6119148782880161158a565b9598909750949560400135949350505050565b6000806040838503121561193a57600080fd5b6119438361156e565b9150602083013567ffffffffffffffff81111561195f57600080fd5b61196b85828601611749565b9150509250929050565b60008060006060848603121561198a57600080fd5b6119938461156e565b9250602084013567ffffffffffffffff8111156119af57600080fd5b6119bb86828701611749565b925050604084013590509250925092565b600081516119de818560208601611635565b9290920192915050565b81818437506000910190815290565b7f6f7065726174696f6e3a2064656c6574654772616e740000000000000000000081526000600560f91b80601684015266037bbb732b91d160cd1b60178401528751611a4a81601e860160208c01611635565b808401905081601e8201527f6772616e7465653a200000000000000000000000000000000000000000000000601f8201528751611a8e816028840160208c01611635565b01602881018290527f6461746149643a200000000000000000000000000000000000000000000000006029820152611aca6031820187896119e8565b915050611ada81600560f91b9052565b7f6c6f636b6564556e74696c3a20000000000000000000000000000000000000006001820152611b0d600e8201856119cc565b98975050505050505050565b7f6f7065726174696f6e3a20696e736572744772616e740000000000000000000081526000600560f91b80601684015266037bbb732b91d160cd1b60178401528751611a4a81601e860160208c01611635565b634e487b7160e01b600052603260045260246000fd5b60008251611b94818460208701611635565b9190910192915050565b634e487b7160e01b600052601160045260246000fd5b600060018201611bc657611bc6611b9e565b5060010190565b600181811c90821680611be157607f821691505b602082108103611c0157634e487b7160e01b600052602260045260246000fd5b50919050565b7f19457468657265756d205369676e6564204d6573736167653a0a000000000000815260008351611c3f81601a850160208801611635565b835190830190611c5681601a840160208801611635565b01601a01949350505050565b634e487b7160e01b600052602160045260246000fd5b601f8211156107ba57600081815260208120601f850160051c81016020861015611c9f5750805b601f850160051c820191505b81811015610e4f57828155600101611cab565b815167ffffffffffffffff811115611cd857611cd8611733565b611cec81611ce68454611bcd565b84611c78565b602080601f831160018114611d215760008415611d095750858301515b600019600386901b1c1916600185901b178555610e4f565b600085815260208120601f198616915b82811015611d5057888601518255948401946001909101908401611d31565b5085821015611d6e5787850151600019600388901b60f8161c191681555b5050505050600190811b01905550565b80820281158282048414176107a8576107a8611b9e565b808201808211156107a8576107a8611b9e565b600081611db757611db7611b9e565b506000190190565b828152604060208201526000611dd86040830184611659565b949350505050565b600060208284031215611df257600080fd5b5051919050565b60006bffffffffffffffffffffffff19808760601b168352808660601b166014840152508351611e30816028850160208801611635565b6028920191820192909252604801949350505050565b818103818111156107a8576107a8611b9e565b634e487b7160e01b600052603160045260246000fdfea2646970667358221220222c5af3c9ba30e97583ec498a62cafc8eeafaf8586945476f62ac90a608261a64736f6c63430008130033",
  "linkReferences": {},
  "deployedLinkReferences": {}
}