{
  "_format": "hh-sol-artifact-1",
  "contractName": "AccessGrants",
  "sourceName": "contracts/AccessGrants.sol",
  "abi": [
    {
      "inputs": [],
      "stateMutability": "nonpayable",
      "type": "constructor"
    },
    {
      "inputs": [
        {
          "internalType": "address",
          "name": "grantee",
          "type": "address"
        },
        {
          "internalType": "string",
          "name": "dataId",
          "type": "string"
        },
        {
          "internalType": "uint256",
          "name": "lockedUntil",
          "type": "uint256"
        }
      ],
      "name": "deleteGrant",
      "outputs": [],
      "stateMutability": "nonpayable",
      "type": "function"
    },
    {
      "inputs": [
        {
          "internalType": "address",
          "name": "owner",
          "type": "address"
        },
        {
          "internalType": "address",
          "name": "grantee",
          "type": "address"
        },
        {
          "internalType": "string",
          "name": "dataId",
          "type": "string"
        }
      ],
      "name": "findGrants",
      "outputs": [
        {
          "components": [
            {
              "internalType": "address",
              "name": "owner",
              "type": "address"
            },
            {
              "internalType": "address",
              "name": "grantee",
              "type": "address"
            },
            {
              "internalType": "string",
              "name": "dataId",
              "type": "string"
            },
            {
              "internalType": "uint256",
              "name": "lockedUntil",
              "type": "uint256"
            }
          ],
          "internalType": "struct AccessGrants.Grant[]",
          "name": "",
          "type": "tuple[]"
        }
      ],
      "stateMutability": "view",
      "type": "function"
    },
    {
      "inputs": [
        {
          "internalType": "address",
          "name": "grantee",
          "type": "address"
        },
        {
          "internalType": "string",
          "name": "dataId",
          "type": "string"
        }
      ],
      "name": "grantsFor",
      "outputs": [
        {
          "components": [
            {
              "internalType": "address",
              "name": "owner",
              "type": "address"
            },
            {
              "internalType": "address",
              "name": "grantee",
              "type": "address"
            },
            {
              "internalType": "string",
              "name": "dataId",
              "type": "string"
            },
            {
              "internalType": "uint256",
              "name": "lockedUntil",
              "type": "uint256"
            }
          ],
          "internalType": "struct AccessGrants.Grant[]",
          "name": "",
          "type": "tuple[]"
        }
      ],
      "stateMutability": "view",
      "type": "function"
    },
    {
      "inputs": [
        {
          "internalType": "address",
          "name": "grantee",
          "type": "address"
        },
        {
          "internalType": "string",
          "name": "dataId",
          "type": "string"
        },
        {
          "internalType": "uint256",
          "name": "lockedUntil",
          "type": "uint256"
        }
      ],
      "name": "insertGrant",
      "outputs": [],
      "stateMutability": "nonpayable",
      "type": "function"
    },
    {
      "inputs": [
        {
          "internalType": "address",
          "name": "owner",
          "type": "address"
        },
        {
          "internalType": "address",
          "name": "grantee",
          "type": "address"
        },
        {
          "internalType": "string",
          "name": "dataId",
          "type": "string"
        },
        {
          "internalType": "uint256",
          "name": "lockedUntil",
          "type": "uint256"
        }
      ],
      "name": "insertGrantAsIssuer",
      "outputs": [],
      "stateMutability": "nonpayable",
      "type": "function"
    },
    {
      "inputs": [
        {
          "internalType": "address",
          "name": "issuer",
          "type": "address"
        }
      ],
      "name": "insertIssuer",
      "outputs": [],
      "stateMutability": "nonpayable",
      "type": "function"
    },
    {
      "inputs": [
        {
          "internalType": "address",
          "name": "issuer",
          "type": "address"
        }
      ],
      "name": "removeIssuer",
      "outputs": [],
      "stateMutability": "nonpayable",
      "type": "function"
    }
  ],
  "bytecode": "0x6080604052336000806101000a81548173ffffffffffffffffffffffffffffffffffffffff021916908373ffffffffffffffffffffffffffffffffffffffff16021790555034801561005057600080fd5b5060018060003373ffffffffffffffffffffffffffffffffffffffff1673ffffffffffffffffffffffffffffffffffffffff16815260200190815260200160002060006101000a81548160ff02191690831515021790555061241d806100b76000396000f3fe608060405234801561001057600080fd5b506004361061007d5760003560e01c80637e0cc3a21161005b5780637e0cc3a2146100d6578063b14d52d514610106578063b7dd886514610122578063c28c6524146101525761007d565b8063415e5d541461008257806347bc70931461009e57806378bde125146100ba575b600080fd5b61009c600480360381019061009791906117e6565b61016e565b005b6100b860048036038101906100b39190611869565b6104b2565b005b6100d460048036038101906100cf9190611869565b610625565b005b6100f060048036038101906100eb9190611896565b610712565b6040516100fd9190611ac7565b60405180910390f35b610120600480360381019061011b9190611ae9565b610cda565b005b61013c60048036038101906101379190611b58565b610f8a565b6040516101499190611ac7565b60405180910390f35b61016c60048036038101906101679190611ae9565b610fa0565b005b60011515600160003373ffffffffffffffffffffffffffffffffffffffff1673ffffffffffffffffffffffffffffffffffffffff16815260200190815260200160002060009054906101000a900460ff16151514610201576040517f08c379a00000000000000000000000000000000000000000000000000000000081526004016101f890611c11565b60405180910390fd5b600060405180608001604052808673ffffffffffffffffffffffffffffffffffffffff1681526020018573ffffffffffffffffffffffffffffffffffffffff168152602001848152602001838152509050600061025d8261121c565b9050600073ffffffffffffffffffffffffffffffffffffffff166002600083815260200190815260200160002060000160009054906101000a900473ffffffffffffffffffffffffffffffffffffffff1673ffffffffffffffffffffffffffffffffffffffff1614610304576040517f08c379a00000000000000000000000000000000000000000000000000000000081526004016102fb90611c7d565b60405180910390fd5b816002600083815260200190815260200160002060008201518160000160006101000a81548173ffffffffffffffffffffffffffffffffffffffff021916908373ffffffffffffffffffffffffffffffffffffffff16021790555060208201518160010160006101000a81548173ffffffffffffffffffffffffffffffffffffffff021916908373ffffffffffffffffffffffffffffffffffffffff16021790555060408201518160020190816103bb9190611ea9565b506060820151816003015590505061041e8160036000856000015173ffffffffffffffffffffffffffffffffffffffff1673ffffffffffffffffffffffffffffffffffffffff16815260200190815260200160002061126290919063ffffffff16565b506104748160046000856020015173ffffffffffffffffffffffffffffffffffffffff1673ffffffffffffffffffffffffffffffffffffffff16815260200190815260200160002061126290919063ffffffff16565b506104a9816005846040015160405161048d9190611fb7565b908152602001604051809103902061126290919063ffffffff16565b50505050505050565b60011515600160003373ffffffffffffffffffffffffffffffffffffffff1673ffffffffffffffffffffffffffffffffffffffff16815260200190815260200160002060009054906101000a900460ff16151514610545576040517f08c379a000000000000000000000000000000000000000000000000000000000815260040161053c90611c11565b60405180910390fd5b60008054906101000a900473ffffffffffffffffffffffffffffffffffffffff1673ffffffffffffffffffffffffffffffffffffffff168173ffffffffffffffffffffffffffffffffffffffff16036105d3576040517f08c379a00000000000000000000000000000000000000000000000000000000081526004016105ca90612040565b60405180910390fd5b600160008273ffffffffffffffffffffffffffffffffffffffff1673ffffffffffffffffffffffffffffffffffffffff16815260200190815260200160002060006101000a81549060ff021916905550565b60011515600160003373ffffffffffffffffffffffffffffffffffffffff1673ffffffffffffffffffffffffffffffffffffffff16815260200190815260200160002060009054906101000a900460ff161515146106b8576040517f08c379a00000000000000000000000000000000000000000000000000000000081526004016106af90611c11565b60405180910390fd5b60018060008373ffffffffffffffffffffffffffffffffffffffff1673ffffffffffffffffffffffffffffffffffffffff16815260200190815260200160002060006101000a81548160ff02191690831515021790555050565b60608060008073ffffffffffffffffffffffffffffffffffffffff168673ffffffffffffffffffffffffffffffffffffffff16146107e157610791600360008873ffffffffffffffffffffffffffffffffffffffff1673ffffffffffffffffffffffffffffffffffffffff168152602001908152602001600020611279565b91506107da600360008873ffffffffffffffffffffffffffffffffffffffff1673ffffffffffffffffffffffffffffffffffffffff16815260200190815260200160002061129a565b90506108e8565b600073ffffffffffffffffffffffffffffffffffffffff168573ffffffffffffffffffffffffffffffffffffffff16146108ac5761085c600460008773ffffffffffffffffffffffffffffffffffffffff1673ffffffffffffffffffffffffffffffffffffffff168152602001908152602001600020611279565b91506108a5600460008773ffffffffffffffffffffffffffffffffffffffff1673ffffffffffffffffffffffffffffffffffffffff16815260200190815260200160002061129a565b90506108e7565b6040517f08c379a00000000000000000000000000000000000000000000000000000000081526004016108de906120d2565b60405180910390fd5b5b6000808267ffffffffffffffff81111561090557610904611685565b5b6040519080825280602002602001820160405280156109335781602001602082028036833780820191505090505b50905060005b83811015610a84576000858281518110610956576109556120f2565b5b6020026020010151905060008073ffffffffffffffffffffffffffffffffffffffff168a73ffffffffffffffffffffffffffffffffffffffff1614806109e957506109e882600460008d73ffffffffffffffffffffffffffffffffffffffff1673ffffffffffffffffffffffffffffffffffffffff1681526020019081526020016000206112af90919063ffffffff16565b5b8015610a3157506109f9896112c6565b80610a305750610a2f8260058b604051610a139190611fb7565b90815260200160405180910390206112af90919063ffffffff16565b5b5b90508015610a6f578480610a4490612150565b9550506001848481518110610a5c57610a5b6120f2565b5b6020026020010190151590811515815250505b50508080610a7c90612150565b915050610939565b5060008267ffffffffffffffff811115610aa157610aa0611685565b5b604051908082528060200260200182016040528015610ada57816020015b610ac7611547565b815260200190600190039081610abf5790505b5090506000805b85811015610cc957838181518110610afc57610afb6120f2565b5b602002602001015115610cb65760026000888381518110610b2057610b1f6120f2565b5b602002602001015181526020019081526020016000206040518060800160405290816000820160009054906101000a900473ffffffffffffffffffffffffffffffffffffffff1673ffffffffffffffffffffffffffffffffffffffff1673ffffffffffffffffffffffffffffffffffffffff1681526020016001820160009054906101000a900473ffffffffffffffffffffffffffffffffffffffff1673ffffffffffffffffffffffffffffffffffffffff1673ffffffffffffffffffffffffffffffffffffffff168152602001600282018054610bfd90611ccc565b80601f0160208091040260200160405190810160405280929190818152602001828054610c2990611ccc565b8015610c765780601f10610c4b57610100808354040283529160200191610c76565b820191906000526020600020905b815481529060010190602001808311610c5957829003601f168201915b50505050508152602001600382015481525050838381518110610c9c57610c9b6120f2565b5b60200260200101819052508180610cb290612150565b9250505b8080610cc190612150565b915050610ae1565b508196505050505050509392505050565b600060405180608001604052803373ffffffffffffffffffffffffffffffffffffffff1681526020018573ffffffffffffffffffffffffffffffffffffffff1681526020018481526020018381525090506000610d368261121c565b9050600073ffffffffffffffffffffffffffffffffffffffff166002600083815260200190815260200160002060000160009054906101000a900473ffffffffffffffffffffffffffffffffffffffff1673ffffffffffffffffffffffffffffffffffffffff1614610ddd576040517f08c379a0000000000000000000000000000000000000000000000000000000008152600401610dd490611c7d565b60405180910390fd5b816002600083815260200190815260200160002060008201518160000160006101000a81548173ffffffffffffffffffffffffffffffffffffffff021916908373ffffffffffffffffffffffffffffffffffffffff16021790555060208201518160010160006101000a81548173ffffffffffffffffffffffffffffffffffffffff021916908373ffffffffffffffffffffffffffffffffffffffff1602179055506040820151816002019081610e949190611ea9565b5060608201518160030155905050610ef78160036000856000015173ffffffffffffffffffffffffffffffffffffffff1673ffffffffffffffffffffffffffffffffffffffff16815260200190815260200160002061126290919063ffffffff16565b50610f4d8160046000856020015173ffffffffffffffffffffffffffffffffffffffff1673ffffffffffffffffffffffffffffffffffffffff16815260200190815260200160002061126290919063ffffffff16565b50610f828160058460400151604051610f669190611fb7565b908152602001604051809103902061126290919063ffffffff16565b505050505050565b6060610f9860008484610712565b905092915050565b6000610fad338585610712565b90506000815111610ff3576040517f08c379a0000000000000000000000000000000000000000000000000000000008152600401610fea906121e4565b60405180910390fd5b60005b8151811015611215576000828281518110611014576110136120f2565b5b60200260200101519050600084148061104a57508383838151811061103c5761103b6120f2565b5b602002602001015160600151145b156112015742816060015110611095576040517f08c379a000000000000000000000000000000000000000000000000000000000815260040161108c90612250565b60405180910390fd5b60006110a08261121c565b905060026000828152602001908152602001600020600080820160006101000a81549073ffffffffffffffffffffffffffffffffffffffff02191690556001820160006101000a81549073ffffffffffffffffffffffffffffffffffffffff0219169055600282016000611114919061159b565b600382016000905550506111738160036000856000015173ffffffffffffffffffffffffffffffffffffffff1673ffffffffffffffffffffffffffffffffffffffff16815260200190815260200160002061131c90919063ffffffff16565b506111c98160046000856020015173ffffffffffffffffffffffffffffffffffffffff1673ffffffffffffffffffffffffffffffffffffffff16815260200190815260200160002061131c90919063ffffffff16565b506111fe81600584604001516040516111e29190611fb7565b908152602001604051809103902061131c90919063ffffffff16565b50505b50808061120d90612150565b915050610ff6565b5050505050565b6000816000015182602001518360400151846060015160405160200161124594939291906122d9565b604051602081830303815290604052805190602001209050919050565b60006112718360000183611333565b905092915050565b60606000611289836000016113a3565b905060608190508092505050919050565b60006112a8826000016113ff565b9050919050565b60006112be8360000183611410565b905092915050565b60006040516020016112d79061236f565b60405160208183030381529060405280519060200120826040516020016112fe9190611fb7565b60405160208183030381529060405280519060200120149050919050565b600061132b8360000183611433565b905092915050565b600061133f8383611410565b61139857826000018290806001815401808255809150506001900390600052602060002001600090919091909150558260000180549050836001016000848152602001908152602001600020819055506001905061139d565b600090505b92915050565b6060816000018054806020026020016040519081016040528092919081815260200182805480156113f357602002820191906000526020600020905b8154815260200190600101908083116113df575b50505050509050919050565b600081600001805490509050919050565b600080836001016000848152602001908152602001600020541415905092915050565b6000808360010160008481526020019081526020016000205490506000811461153b5760006001826114659190612384565b905060006001866000018054905061147d9190612384565b90508181146114ec57600086600001828154811061149e5761149d6120f2565b5b90600052602060002001549050808760000184815481106114c2576114c16120f2565b5b90600052602060002001819055508387600101600083815260200190815260200160002081905550505b85600001805480611500576114ff6123b8565b5b600190038181906000526020600020016000905590558560010160008681526020019081526020016000206000905560019350505050611541565b60009150505b92915050565b6040518060800160405280600073ffffffffffffffffffffffffffffffffffffffff168152602001600073ffffffffffffffffffffffffffffffffffffffff16815260200160608152602001600081525090565b5080546115a790611ccc565b6000825580601f106115b957506115d8565b601f0160209004906000526020600020908101906115d791906115db565b5b50565b5b808211156115f45760008160009055506001016115dc565b5090565b6000604051905090565b600080fd5b600080fd5b600073ffffffffffffffffffffffffffffffffffffffff82169050919050565b60006116378261160c565b9050919050565b6116478161162c565b811461165257600080fd5b50565b6000813590506116648161163e565b92915050565b600080fd5b600080fd5b6000601f19601f8301169050919050565b7f4e487b7100000000000000000000000000000000000000000000000000000000600052604160045260246000fd5b6116bd82611674565b810181811067ffffffffffffffff821117156116dc576116db611685565b5b80604052505050565b60006116ef6115f8565b90506116fb82826116b4565b919050565b600067ffffffffffffffff82111561171b5761171a611685565b5b61172482611674565b9050602081019050919050565b82818337600083830152505050565b600061175361174e84611700565b6116e5565b90508281526020810184848401111561176f5761176e61166f565b5b61177a848285611731565b509392505050565b600082601f8301126117975761179661166a565b5b81356117a7848260208601611740565b91505092915050565b6000819050919050565b6117c3816117b0565b81146117ce57600080fd5b50565b6000813590506117e0816117ba565b92915050565b60008060008060808587031215611800576117ff611602565b5b600061180e87828801611655565b945050602061181f87828801611655565b935050604085013567ffffffffffffffff8111156118405761183f611607565b5b61184c87828801611782565b925050606061185d878288016117d1565b91505092959194509250565b60006020828403121561187f5761187e611602565b5b600061188d84828501611655565b91505092915050565b6000806000606084860312156118af576118ae611602565b5b60006118bd86828701611655565b93505060206118ce86828701611655565b925050604084013567ffffffffffffffff8111156118ef576118ee611607565b5b6118fb86828701611782565b9150509250925092565b600081519050919050565b600082825260208201905092915050565b6000819050602082019050919050565b61193a8161162c565b82525050565b600081519050919050565b600082825260208201905092915050565b60005b8381101561197a57808201518184015260208101905061195f565b60008484015250505050565b600061199182611940565b61199b818561194b565b93506119ab81856020860161195c565b6119b481611674565b840191505092915050565b6119c8816117b0565b82525050565b60006080830160008301516119e66000860182611931565b5060208301516119f96020860182611931565b5060408301518482036040860152611a118282611986565b9150506060830151611a2660608601826119bf565b508091505092915050565b6000611a3d83836119ce565b905092915050565b6000602082019050919050565b6000611a5d82611905565b611a678185611910565b935083602082028501611a7985611921565b8060005b85811015611ab55784840389528151611a968582611a31565b9450611aa183611a45565b925060208a01995050600181019050611a7d565b50829750879550505050505092915050565b60006020820190508181036000830152611ae18184611a52565b905092915050565b600080600060608486031215611b0257611b01611602565b5b6000611b1086828701611655565b935050602084013567ffffffffffffffff811115611b3157611b30611607565b5b611b3d86828701611782565b9250506040611b4e868287016117d1565b9150509250925092565b60008060408385031215611b6f57611b6e611602565b5b6000611b7d85828601611655565b925050602083013567ffffffffffffffff811115611b9e57611b9d611607565b5b611baa85828601611782565b9150509250929050565b600082825260208201905092915050565b7f4163636573732064656e69656400000000000000000000000000000000000000600082015250565b6000611bfb600d83611bb4565b9150611c0682611bc5565b602082019050919050565b60006020820190508181036000830152611c2a81611bee565b9050919050565b7f4772616e7420616c726561647920657869737473000000000000000000000000600082015250565b6000611c67601483611bb4565b9150611c7282611c31565b602082019050919050565b60006020820190508181036000830152611c9681611c5a565b9050919050565b7f4e487b7100000000000000000000000000000000000000000000000000000000600052602260045260246000fd5b60006002820490506001821680611ce457607f821691505b602082108103611cf757611cf6611c9d565b5b50919050565b60008190508160005260206000209050919050565b60006020601f8301049050919050565b600082821b905092915050565b600060088302611d5f7fffffffffffffffffffffffffffffffffffffffffffffffffffffffffffffffff82611d22565b611d698683611d22565b95508019841693508086168417925050509392505050565b6000819050919050565b6000611da6611da1611d9c846117b0565b611d81565b6117b0565b9050919050565b6000819050919050565b611dc083611d8b565b611dd4611dcc82611dad565b848454611d2f565b825550505050565b600090565b611de9611ddc565b611df4818484611db7565b505050565b5b81811015611e1857611e0d600082611de1565b600181019050611dfa565b5050565b601f821115611e5d57611e2e81611cfd565b611e3784611d12565b81016020851015611e46578190505b611e5a611e5285611d12565b830182611df9565b50505b505050565b600082821c905092915050565b6000611e8060001984600802611e62565b1980831691505092915050565b6000611e998383611e6f565b9150826002028217905092915050565b611eb282611940565b67ffffffffffffffff811115611ecb57611eca611685565b5b611ed58254611ccc565b611ee0828285611e1c565b600060209050601f831160018114611f135760008415611f01578287015190505b611f0b8582611e8d565b865550611f73565b601f198416611f2186611cfd565b60005b82811015611f4957848901518255600182019150602085019450602081019050611f24565b86831015611f665784890151611f62601f891682611e6f565b8355505b6001600288020188555050505b505050505050565b600081905092915050565b6000611f9182611940565b611f9b8185611f7b565b9350611fab81856020860161195c565b80840191505092915050565b6000611fc38284611f86565b915081905092915050565b7f4e6f207761792c20796f752063616e27742072656d6f7665206d65212048412d60008201527f48412d4841000000000000000000000000000000000000000000000000000000602082015250565b600061202a602583611bb4565b915061203582611fce565b604082019050919050565b600060208201905081810360008301526120598161201d565b9050919050565b7f526571756972656420617267756d656e743a20606f776e65726020616e642f6f60008201527f7220606772616e74656560000000000000000000000000000000000000000000602082015250565b60006120bc602b83611bb4565b91506120c782612060565b604082019050919050565b600060208201905081810360008301526120eb816120af565b9050919050565b7f4e487b7100000000000000000000000000000000000000000000000000000000600052603260045260246000fd5b7f4e487b7100000000000000000000000000000000000000000000000000000000600052601160045260246000fd5b600061215b826117b0565b91507fffffffffffffffffffffffffffffffffffffffffffffffffffffffffffffffff820361218d5761218c612121565b5b600182019050919050565b7f4e6f206772616e747320666f722073656e646572000000000000000000000000600082015250565b60006121ce601483611bb4565b91506121d982612198565b602082019050919050565b600060208201905081810360008301526121fd816121c1565b9050919050565b7f4772616e742069732074696d656c6f636b656400000000000000000000000000600082015250565b600061223a601383611bb4565b915061224582612204565b602082019050919050565b600060208201905081810360008301526122698161222d565b9050919050565b60008160601b9050919050565b600061228882612270565b9050919050565b600061229a8261227d565b9050919050565b6122b26122ad8261162c565b61228f565b82525050565b6000819050919050565b6122d36122ce826117b0565b6122b8565b82525050565b60006122e582876122a1565b6014820191506122f582866122a1565b6014820191506123058285611f86565b915061231182846122c2565b60208201915081905095945050505050565b7f3000000000000000000000000000000000000000000000000000000000000000600082015250565b6000612359600183611f7b565b915061236482612323565b600182019050919050565b600061237a8261234c565b9150819050919050565b600061238f826117b0565b915061239a836117b0565b92508282039050818111156123b2576123b1612121565b5b92915050565b7f4e487b7100000000000000000000000000000000000000000000000000000000600052603160045260246000fdfea2646970667358221220d820c7b8f49e66f87ef3ec40ff593415765457ca54aae9356d42cd0dc652457b64736f6c63430008130033",
  "linkReferences": {},
  "deployedLinkReferences": {}
}