{
  "_format": "hh-sol-artifact-1",
  "contractName": "AccessGrants",
  "sourceName": "contracts/AccessGrants.sol",
  "abi": [
    {
      "inputs": [],
      "stateMutability": "nonpayable",
      "type": "constructor"
    },
    {
      "inputs": [
        {
          "internalType": "address",
          "name": "grantee",
          "type": "address"
        },
        {
          "internalType": "string",
          "name": "dataId",
          "type": "string"
        },
        {
          "internalType": "uint256",
          "name": "lockedUntil",
          "type": "uint256"
        }
      ],
      "name": "deleteGrant",
      "outputs": [],
      "stateMutability": "nonpayable",
      "type": "function"
    },
    {
      "inputs": [
        {
          "internalType": "address",
          "name": "owner",
          "type": "address"
        },
        {
          "internalType": "address",
          "name": "grantee",
          "type": "address"
        },
        {
          "internalType": "string",
          "name": "dataId",
          "type": "string"
        }
      ],
      "name": "findGrants",
      "outputs": [
        {
          "components": [
            {
              "internalType": "address",
              "name": "owner",
              "type": "address"
            },
            {
              "internalType": "address",
              "name": "grantee",
              "type": "address"
            },
            {
              "internalType": "string",
              "name": "dataId",
              "type": "string"
            },
            {
              "internalType": "uint256",
              "name": "lockedUntil",
              "type": "uint256"
            }
          ],
          "internalType": "struct AccessGrants.Grant[]",
          "name": "",
          "type": "tuple[]"
        }
      ],
      "stateMutability": "view",
      "type": "function"
    },
    {
      "inputs": [
        {
          "internalType": "address",
          "name": "grantee",
          "type": "address"
        },
        {
          "internalType": "string",
          "name": "dataId",
          "type": "string"
        }
      ],
      "name": "grantsFor",
      "outputs": [
        {
          "components": [
            {
              "internalType": "address",
              "name": "owner",
              "type": "address"
            },
            {
              "internalType": "address",
              "name": "grantee",
              "type": "address"
            },
            {
              "internalType": "string",
              "name": "dataId",
              "type": "string"
            },
            {
              "internalType": "uint256",
              "name": "lockedUntil",
              "type": "uint256"
            }
          ],
          "internalType": "struct AccessGrants.Grant[]",
          "name": "",
          "type": "tuple[]"
        }
      ],
      "stateMutability": "view",
      "type": "function"
    },
    {
      "inputs": [
        {
          "internalType": "address",
          "name": "grantee",
          "type": "address"
        },
        {
          "internalType": "string",
          "name": "dataId",
          "type": "string"
        },
        {
          "internalType": "uint256",
          "name": "lockedUntil",
          "type": "uint256"
        }
      ],
      "name": "insertGrant",
      "outputs": [],
      "stateMutability": "nonpayable",
      "type": "function"
    },
    {
      "inputs": [
        {
          "internalType": "address",
          "name": "owner",
          "type": "address"
        },
        {
          "internalType": "address",
          "name": "grantee",
          "type": "address"
        },
        {
          "internalType": "string",
          "name": "dataId",
          "type": "string"
        },
        {
          "internalType": "uint256",
          "name": "lockedUntil",
          "type": "uint256"
        }
      ],
      "name": "insertGrantAsIssuer",
      "outputs": [],
      "stateMutability": "nonpayable",
      "type": "function"
    },
    {
      "inputs": [
        {
          "internalType": "address",
          "name": "issuer",
          "type": "address"
        }
      ],
      "name": "insertIssuer",
      "outputs": [],
      "stateMutability": "nonpayable",
      "type": "function"
    },
    {
      "inputs": [
        {
          "internalType": "address",
          "name": "issuer",
          "type": "address"
        }
      ],
      "name": "removeIssuer",
      "outputs": [],
      "stateMutability": "nonpayable",
      "type": "function"
    }
  ],
  "bytecode": "0x6080604052336000806101000a81548173ffffffffffffffffffffffffffffffffffffffff021916908373ffffffffffffffffffffffffffffffffffffffff16021790555034801561005057600080fd5b5060018060003373ffffffffffffffffffffffffffffffffffffffff1673ffffffffffffffffffffffffffffffffffffffff16815260200190815260200160002060006101000a81548160ff0219169083151502179055506122fd806100b76000396000f3fe608060405234801561001057600080fd5b506004361061007d5760003560e01c80637e0cc3a21161005b5780637e0cc3a2146100d6578063b14d52d514610106578063b7dd886514610122578063c28c6524146101525761007d565b8063415e5d541461008257806347bc70931461009e57806378bde125146100ba575b600080fd5b61009c60048036038101906100979190611758565b61016e565b005b6100b860048036038101906100b391906117db565b6104b2565b005b6100d460048036038101906100cf91906117db565b610597565b005b6100f060048036038101906100eb9190611808565b610684565b6040516100fd9190611a39565b60405180910390f35b610120600480360381019061011b9190611a5b565b610c4c565b005b61013c60048036038101906101379190611aca565b610efc565b6040516101499190611a39565b60405180910390f35b61016c60048036038101906101679190611a5b565b610f12565b005b60011515600160003373ffffffffffffffffffffffffffffffffffffffff1673ffffffffffffffffffffffffffffffffffffffff16815260200190815260200160002060009054906101000a900460ff16151514610201576040517f08c379a00000000000000000000000000000000000000000000000000000000081526004016101f890611b83565b60405180910390fd5b600060405180608001604052808673ffffffffffffffffffffffffffffffffffffffff1681526020018573ffffffffffffffffffffffffffffffffffffffff168152602001848152602001838152509050600061025d8261118e565b9050600073ffffffffffffffffffffffffffffffffffffffff166002600083815260200190815260200160002060000160009054906101000a900473ffffffffffffffffffffffffffffffffffffffff1673ffffffffffffffffffffffffffffffffffffffff1614610304576040517f08c379a00000000000000000000000000000000000000000000000000000000081526004016102fb90611bef565b60405180910390fd5b816002600083815260200190815260200160002060008201518160000160006101000a81548173ffffffffffffffffffffffffffffffffffffffff021916908373ffffffffffffffffffffffffffffffffffffffff16021790555060208201518160010160006101000a81548173ffffffffffffffffffffffffffffffffffffffff021916908373ffffffffffffffffffffffffffffffffffffffff16021790555060408201518160020190816103bb9190611e1b565b506060820151816003015590505061041e8160036000856000015173ffffffffffffffffffffffffffffffffffffffff1673ffffffffffffffffffffffffffffffffffffffff1681526020019081526020016000206111d490919063ffffffff16565b506104748160046000856020015173ffffffffffffffffffffffffffffffffffffffff1673ffffffffffffffffffffffffffffffffffffffff1681526020019081526020016000206111d490919063ffffffff16565b506104a9816005846040015160405161048d9190611f29565b90815260200160405180910390206111d490919063ffffffff16565b50505050505050565b60011515600160003373ffffffffffffffffffffffffffffffffffffffff1673ffffffffffffffffffffffffffffffffffffffff16815260200190815260200160002060009054906101000a900460ff16151514610545576040517f08c379a000000000000000000000000000000000000000000000000000000000815260040161053c90611b83565b60405180910390fd5b600160008273ffffffffffffffffffffffffffffffffffffffff1673ffffffffffffffffffffffffffffffffffffffff16815260200190815260200160002060006101000a81549060ff021916905550565b60011515600160003373ffffffffffffffffffffffffffffffffffffffff1673ffffffffffffffffffffffffffffffffffffffff16815260200190815260200160002060009054906101000a900460ff1615151461062a576040517f08c379a000000000000000000000000000000000000000000000000000000000815260040161062190611b83565b60405180910390fd5b60018060008373ffffffffffffffffffffffffffffffffffffffff1673ffffffffffffffffffffffffffffffffffffffff16815260200190815260200160002060006101000a81548160ff02191690831515021790555050565b60608060008073ffffffffffffffffffffffffffffffffffffffff168673ffffffffffffffffffffffffffffffffffffffff161461075357610703600360008873ffffffffffffffffffffffffffffffffffffffff1673ffffffffffffffffffffffffffffffffffffffff1681526020019081526020016000206111eb565b915061074c600360008873ffffffffffffffffffffffffffffffffffffffff1673ffffffffffffffffffffffffffffffffffffffff16815260200190815260200160002061120c565b905061085a565b600073ffffffffffffffffffffffffffffffffffffffff168573ffffffffffffffffffffffffffffffffffffffff161461081e576107ce600460008773ffffffffffffffffffffffffffffffffffffffff1673ffffffffffffffffffffffffffffffffffffffff1681526020019081526020016000206111eb565b9150610817600460008773ffffffffffffffffffffffffffffffffffffffff1673ffffffffffffffffffffffffffffffffffffffff16815260200190815260200160002061120c565b9050610859565b6040517f08c379a000000000000000000000000000000000000000000000000000000000815260040161085090611fb2565b60405180910390fd5b5b6000808267ffffffffffffffff811115610877576108766115f7565b5b6040519080825280602002602001820160405280156108a55781602001602082028036833780820191505090505b50905060005b838110156109f65760008582815181106108c8576108c7611fd2565b5b6020026020010151905060008073ffffffffffffffffffffffffffffffffffffffff168a73ffffffffffffffffffffffffffffffffffffffff16148061095b575061095a82600460008d73ffffffffffffffffffffffffffffffffffffffff1673ffffffffffffffffffffffffffffffffffffffff16815260200190815260200160002061122190919063ffffffff16565b5b80156109a3575061096b89611238565b806109a257506109a18260058b6040516109859190611f29565b908152602001604051809103902061122190919063ffffffff16565b5b5b905080156109e15784806109b690612030565b95505060018484815181106109ce576109cd611fd2565b5b6020026020010190151590811515815250505b505080806109ee90612030565b9150506108ab565b5060008267ffffffffffffffff811115610a1357610a126115f7565b5b604051908082528060200260200182016040528015610a4c57816020015b610a396114b9565b815260200190600190039081610a315790505b5090506000805b85811015610c3b57838181518110610a6e57610a6d611fd2565b5b602002602001015115610c285760026000888381518110610a9257610a91611fd2565b5b602002602001015181526020019081526020016000206040518060800160405290816000820160009054906101000a900473ffffffffffffffffffffffffffffffffffffffff1673ffffffffffffffffffffffffffffffffffffffff1673ffffffffffffffffffffffffffffffffffffffff1681526020016001820160009054906101000a900473ffffffffffffffffffffffffffffffffffffffff1673ffffffffffffffffffffffffffffffffffffffff1673ffffffffffffffffffffffffffffffffffffffff168152602001600282018054610b6f90611c3e565b80601f0160208091040260200160405190810160405280929190818152602001828054610b9b90611c3e565b8015610be85780601f10610bbd57610100808354040283529160200191610be8565b820191906000526020600020905b815481529060010190602001808311610bcb57829003601f168201915b50505050508152602001600382015481525050838381518110610c0e57610c0d611fd2565b5b60200260200101819052508180610c2490612030565b9250505b8080610c3390612030565b915050610a53565b508196505050505050509392505050565b600060405180608001604052803373ffffffffffffffffffffffffffffffffffffffff1681526020018573ffffffffffffffffffffffffffffffffffffffff1681526020018481526020018381525090506000610ca88261118e565b9050600073ffffffffffffffffffffffffffffffffffffffff166002600083815260200190815260200160002060000160009054906101000a900473ffffffffffffffffffffffffffffffffffffffff1673ffffffffffffffffffffffffffffffffffffffff1614610d4f576040517f08c379a0000000000000000000000000000000000000000000000000000000008152600401610d4690611bef565b60405180910390fd5b816002600083815260200190815260200160002060008201518160000160006101000a81548173ffffffffffffffffffffffffffffffffffffffff021916908373ffffffffffffffffffffffffffffffffffffffff16021790555060208201518160010160006101000a81548173ffffffffffffffffffffffffffffffffffffffff021916908373ffffffffffffffffffffffffffffffffffffffff1602179055506040820151816002019081610e069190611e1b565b5060608201518160030155905050610e698160036000856000015173ffffffffffffffffffffffffffffffffffffffff1673ffffffffffffffffffffffffffffffffffffffff1681526020019081526020016000206111d490919063ffffffff16565b50610ebf8160046000856020015173ffffffffffffffffffffffffffffffffffffffff1673ffffffffffffffffffffffffffffffffffffffff1681526020019081526020016000206111d490919063ffffffff16565b50610ef48160058460400151604051610ed89190611f29565b90815260200160405180910390206111d490919063ffffffff16565b505050505050565b6060610f0a60008484610684565b905092915050565b6000610f1f338585610684565b90506000815111610f65576040517f08c379a0000000000000000000000000000000000000000000000000000000008152600401610f5c906120c4565b60405180910390fd5b60005b8151811015611187576000828281518110610f8657610f85611fd2565b5b602002602001015190506000841480610fbc575083838381518110610fae57610fad611fd2565b5b602002602001015160600151145b156111735742816060015110611007576040517f08c379a0000000000000000000000000000000000000000000000000000000008152600401610ffe90612130565b60405180910390fd5b60006110128261118e565b905060026000828152602001908152602001600020600080820160006101000a81549073ffffffffffffffffffffffffffffffffffffffff02191690556001820160006101000a81549073ffffffffffffffffffffffffffffffffffffffff0219169055600282016000611086919061150d565b600382016000905550506110e58160036000856000015173ffffffffffffffffffffffffffffffffffffffff1673ffffffffffffffffffffffffffffffffffffffff16815260200190815260200160002061128e90919063ffffffff16565b5061113b8160046000856020015173ffffffffffffffffffffffffffffffffffffffff1673ffffffffffffffffffffffffffffffffffffffff16815260200190815260200160002061128e90919063ffffffff16565b5061117081600584604001516040516111549190611f29565b908152602001604051809103902061128e90919063ffffffff16565b50505b50808061117f90612030565b915050610f68565b5050505050565b600081600001518260200151836040015184606001516040516020016111b794939291906121b9565b604051602081830303815290604052805190602001209050919050565b60006111e383600001836112a5565b905092915050565b606060006111fb83600001611315565b905060608190508092505050919050565b600061121a82600001611371565b9050919050565b60006112308360000183611382565b905092915050565b60006040516020016112499061224f565b60405160208183030381529060405280519060200120826040516020016112709190611f29565b60405160208183030381529060405280519060200120149050919050565b600061129d83600001836113a5565b905092915050565b60006112b18383611382565b61130a57826000018290806001815401808255809150506001900390600052602060002001600090919091909150558260000180549050836001016000848152602001908152602001600020819055506001905061130f565b600090505b92915050565b60608160000180548060200260200160405190810160405280929190818152602001828054801561136557602002820191906000526020600020905b815481526020019060010190808311611351575b50505050509050919050565b600081600001805490509050919050565b600080836001016000848152602001908152602001600020541415905092915050565b600080836001016000848152602001908152602001600020549050600081146114ad5760006001826113d79190612264565b90506000600186600001805490506113ef9190612264565b905081811461145e5760008660000182815481106114105761140f611fd2565b5b906000526020600020015490508087600001848154811061143457611433611fd2565b5b90600052602060002001819055508387600101600083815260200190815260200160002081905550505b8560000180548061147257611471612298565b5b6001900381819060005260206000200160009055905585600101600086815260200190815260200160002060009055600193505050506114b3565b60009150505b92915050565b6040518060800160405280600073ffffffffffffffffffffffffffffffffffffffff168152602001600073ffffffffffffffffffffffffffffffffffffffff16815260200160608152602001600081525090565b50805461151990611c3e565b6000825580601f1061152b575061154a565b601f016020900490600052602060002090810190611549919061154d565b5b50565b5b8082111561156657600081600090555060010161154e565b5090565b6000604051905090565b600080fd5b600080fd5b600073ffffffffffffffffffffffffffffffffffffffff82169050919050565b60006115a98261157e565b9050919050565b6115b98161159e565b81146115c457600080fd5b50565b6000813590506115d6816115b0565b92915050565b600080fd5b600080fd5b6000601f19601f8301169050919050565b7f4e487b7100000000000000000000000000000000000000000000000000000000600052604160045260246000fd5b61162f826115e6565b810181811067ffffffffffffffff8211171561164e5761164d6115f7565b5b80604052505050565b600061166161156a565b905061166d8282611626565b919050565b600067ffffffffffffffff82111561168d5761168c6115f7565b5b611696826115e6565b9050602081019050919050565b82818337600083830152505050565b60006116c56116c084611672565b611657565b9050828152602081018484840111156116e1576116e06115e1565b5b6116ec8482856116a3565b509392505050565b600082601f830112611709576117086115dc565b5b81356117198482602086016116b2565b91505092915050565b6000819050919050565b61173581611722565b811461174057600080fd5b50565b6000813590506117528161172c565b92915050565b6000806000806080858703121561177257611771611574565b5b6000611780878288016115c7565b9450506020611791878288016115c7565b935050604085013567ffffffffffffffff8111156117b2576117b1611579565b5b6117be878288016116f4565b92505060606117cf87828801611743565b91505092959194509250565b6000602082840312156117f1576117f0611574565b5b60006117ff848285016115c7565b91505092915050565b60008060006060848603121561182157611820611574565b5b600061182f868287016115c7565b9350506020611840868287016115c7565b925050604084013567ffffffffffffffff81111561186157611860611579565b5b61186d868287016116f4565b9150509250925092565b600081519050919050565b600082825260208201905092915050565b6000819050602082019050919050565b6118ac8161159e565b82525050565b600081519050919050565b600082825260208201905092915050565b60005b838110156118ec5780820151818401526020810190506118d1565b60008484015250505050565b6000611903826118b2565b61190d81856118bd565b935061191d8185602086016118ce565b611926816115e6565b840191505092915050565b61193a81611722565b82525050565b600060808301600083015161195860008601826118a3565b50602083015161196b60208601826118a3565b506040830151848203604086015261198382826118f8565b91505060608301516119986060860182611931565b508091505092915050565b60006119af8383611940565b905092915050565b6000602082019050919050565b60006119cf82611877565b6119d98185611882565b9350836020820285016119eb85611893565b8060005b85811015611a275784840389528151611a0885826119a3565b9450611a13836119b7565b925060208a019950506001810190506119ef565b50829750879550505050505092915050565b60006020820190508181036000830152611a5381846119c4565b905092915050565b600080600060608486031215611a7457611a73611574565b5b6000611a82868287016115c7565b935050602084013567ffffffffffffffff811115611aa357611aa2611579565b5b611aaf868287016116f4565b9250506040611ac086828701611743565b9150509250925092565b60008060408385031215611ae157611ae0611574565b5b6000611aef858286016115c7565b925050602083013567ffffffffffffffff811115611b1057611b0f611579565b5b611b1c858286016116f4565b9150509250929050565b600082825260208201905092915050565b7f4163636573732064656e69656400000000000000000000000000000000000000600082015250565b6000611b6d600d83611b26565b9150611b7882611b37565b602082019050919050565b60006020820190508181036000830152611b9c81611b60565b9050919050565b7f4772616e7420616c726561647920657869737473000000000000000000000000600082015250565b6000611bd9601483611b26565b9150611be482611ba3565b602082019050919050565b60006020820190508181036000830152611c0881611bcc565b9050919050565b7f4e487b7100000000000000000000000000000000000000000000000000000000600052602260045260246000fd5b60006002820490506001821680611c5657607f821691505b602082108103611c6957611c68611c0f565b5b50919050565b60008190508160005260206000209050919050565b60006020601f8301049050919050565b600082821b905092915050565b600060088302611cd17fffffffffffffffffffffffffffffffffffffffffffffffffffffffffffffffff82611c94565b611cdb8683611c94565b95508019841693508086168417925050509392505050565b6000819050919050565b6000611d18611d13611d0e84611722565b611cf3565b611722565b9050919050565b6000819050919050565b611d3283611cfd565b611d46611d3e82611d1f565b848454611ca1565b825550505050565b600090565b611d5b611d4e565b611d66818484611d29565b505050565b5b81811015611d8a57611d7f600082611d53565b600181019050611d6c565b5050565b601f821115611dcf57611da081611c6f565b611da984611c84565b81016020851015611db8578190505b611dcc611dc485611c84565b830182611d6b565b50505b505050565b600082821c905092915050565b6000611df260001984600802611dd4565b1980831691505092915050565b6000611e0b8383611de1565b9150826002028217905092915050565b611e24826118b2565b67ffffffffffffffff811115611e3d57611e3c6115f7565b5b611e478254611c3e565b611e52828285611d8e565b600060209050601f831160018114611e855760008415611e73578287015190505b611e7d8582611dff565b865550611ee5565b601f198416611e9386611c6f565b60005b82811015611ebb57848901518255600182019150602085019450602081019050611e96565b86831015611ed85784890151611ed4601f891682611de1565b8355505b6001600288020188555050505b505050505050565b600081905092915050565b6000611f03826118b2565b611f0d8185611eed565b9350611f1d8185602086016118ce565b80840191505092915050565b6000611f358284611ef8565b915081905092915050565b7f526571756972656420617267756d656e743a20606f776e65726020616e642f6f60008201527f7220606772616e74656560000000000000000000000000000000000000000000602082015250565b6000611f9c602b83611b26565b9150611fa782611f40565b604082019050919050565b60006020820190508181036000830152611fcb81611f8f565b9050919050565b7f4e487b7100000000000000000000000000000000000000000000000000000000600052603260045260246000fd5b7f4e487b7100000000000000000000000000000000000000000000000000000000600052601160045260246000fd5b600061203b82611722565b91507fffffffffffffffffffffffffffffffffffffffffffffffffffffffffffffffff820361206d5761206c612001565b5b600182019050919050565b7f4e6f206772616e747320666f722073656e646572000000000000000000000000600082015250565b60006120ae601483611b26565b91506120b982612078565b602082019050919050565b600060208201905081810360008301526120dd816120a1565b9050919050565b7f4772616e742069732074696d656c6f636b656400000000000000000000000000600082015250565b600061211a601383611b26565b9150612125826120e4565b602082019050919050565b600060208201905081810360008301526121498161210d565b9050919050565b60008160601b9050919050565b600061216882612150565b9050919050565b600061217a8261215d565b9050919050565b61219261218d8261159e565b61216f565b82525050565b6000819050919050565b6121b36121ae82611722565b612198565b82525050565b60006121c58287612181565b6014820191506121d58286612181565b6014820191506121e58285611ef8565b91506121f182846121a2565b60208201915081905095945050505050565b7f3000000000000000000000000000000000000000000000000000000000000000600082015250565b6000612239600183611eed565b915061224482612203565b600182019050919050565b600061225a8261222c565b9150819050919050565b600061226f82611722565b915061227a83611722565b925082820390508181111561229257612291612001565b5b92915050565b7f4e487b7100000000000000000000000000000000000000000000000000000000600052603160045260246000fdfea26469706673582212200c8d7a0e2652631c5d34962a3690ceda719ad363a4ee460345e25128cfbb6f8c64736f6c63430008130033",
  "linkReferences": {},
  "deployedLinkReferences": {}
}