{
  "_format": "hh-sol-artifact-1",
  "contractName": "AccessGrants",
  "sourceName": "contracts/AccessGrants.sol",
  "abi": [
    {
      "inputs": [],
      "stateMutability": "nonpayable",
      "type": "constructor"
    },
    {
      "anonymous": false,
      "inputs": [
        {
          "indexed": true,
          "internalType": "address",
          "name": "owner",
          "type": "address"
        },
        {
          "indexed": true,
          "internalType": "address",
          "name": "grantee",
          "type": "address"
        },
        {
          "indexed": true,
          "internalType": "string",
          "name": "dataId",
          "type": "string"
        },
        {
          "indexed": false,
          "internalType": "uint256",
          "name": "lockedUntil",
          "type": "uint256"
        }
      ],
      "name": "GrantAdded",
      "type": "event"
    },
    {
      "anonymous": false,
      "inputs": [
        {
          "indexed": true,
          "internalType": "address",
          "name": "owner",
          "type": "address"
        },
        {
          "indexed": true,
          "internalType": "address",
          "name": "grantee",
          "type": "address"
        },
        {
          "indexed": true,
          "internalType": "string",
          "name": "dataId",
          "type": "string"
        },
        {
          "indexed": false,
          "internalType": "uint256",
          "name": "lockedUntil",
          "type": "uint256"
        }
      ],
      "name": "GrantDeleted",
      "type": "event"
    },
    {
      "inputs": [
        {
          "internalType": "address",
          "name": "grantee",
          "type": "address"
        },
        {
          "internalType": "string",
          "name": "dataId",
          "type": "string"
        },
        {
          "internalType": "uint256",
          "name": "lockedUntil",
          "type": "uint256"
        }
      ],
      "name": "deleteGrant",
      "outputs": [],
      "stateMutability": "nonpayable",
      "type": "function"
    },
    {
      "inputs": [
        {
          "internalType": "address",
          "name": "owner",
          "type": "address"
        },
        {
          "internalType": "address",
          "name": "grantee",
          "type": "address"
        },
        {
          "internalType": "string",
          "name": "dataId",
          "type": "string"
        }
      ],
      "name": "findGrants",
      "outputs": [
        {
          "components": [
            {
              "internalType": "address",
              "name": "owner",
              "type": "address"
            },
            {
              "internalType": "address",
              "name": "grantee",
              "type": "address"
            },
            {
              "internalType": "string",
              "name": "dataId",
              "type": "string"
            },
            {
              "internalType": "uint256",
              "name": "lockedUntil",
              "type": "uint256"
            }
          ],
          "internalType": "struct AccessGrants.Grant[]",
          "name": "",
          "type": "tuple[]"
        }
      ],
      "stateMutability": "view",
      "type": "function"
    },
    {
      "inputs": [
        {
          "internalType": "address",
          "name": "grantee",
          "type": "address"
        },
        {
          "internalType": "string",
          "name": "dataId",
          "type": "string"
        }
      ],
      "name": "grantsFor",
      "outputs": [
        {
          "components": [
            {
              "internalType": "address",
              "name": "owner",
              "type": "address"
            },
            {
              "internalType": "address",
              "name": "grantee",
              "type": "address"
            },
            {
              "internalType": "string",
              "name": "dataId",
              "type": "string"
            },
            {
              "internalType": "uint256",
              "name": "lockedUntil",
              "type": "uint256"
            }
          ],
          "internalType": "struct AccessGrants.Grant[]",
          "name": "",
          "type": "tuple[]"
        }
      ],
      "stateMutability": "view",
      "type": "function"
    },
    {
      "inputs": [
        {
          "internalType": "address",
          "name": "grantee",
          "type": "address"
        },
        {
          "internalType": "string",
          "name": "dataId",
          "type": "string"
        },
        {
          "internalType": "uint256",
          "name": "lockedUntil",
          "type": "uint256"
        }
      ],
      "name": "insertGrant",
      "outputs": [],
      "stateMutability": "nonpayable",
      "type": "function"
    },
    {
      "inputs": [
        {
          "internalType": "address",
          "name": "owner",
          "type": "address"
        },
        {
          "internalType": "address",
          "name": "grantee",
          "type": "address"
        },
        {
          "internalType": "string",
          "name": "dataId",
          "type": "string"
        },
        {
          "internalType": "uint256",
          "name": "lockedUntil",
          "type": "uint256"
        },
        {
          "internalType": "bytes",
          "name": "signature",
          "type": "bytes"
        }
      ],
      "name": "insertGrantBySignature",
      "outputs": [],
      "stateMutability": "nonpayable",
      "type": "function"
    }
  ],
  "bytecode": "0x608060405234801561001057600080fd5b50612997806100206000396000f3fe608060405234801561001057600080fd5b50600436106100575760003560e01c80634ba0b0621461005c5780637e0cc3a214610078578063b14d52d5146100a8578063b7dd8865146100c4578063c28c6524146100f4575b600080fd5b610076600480360381019061007191906118f9565b610110565b005b610092600480360381019061008d9190611af6565b6101e3565b60405161009f9190611d27565b60405180910390f35b6100c260048036038101906100bd9190611d49565b6107aa565b005b6100de60048036038101906100d99190611dbd565b6107bd565b6040516100eb9190611d27565b60405180910390f35b61010e60048036038101906101099190611e19565b6107d3565b005b61018e876101448989898989604051602001610130959493929190611ee4565b604051602081830303815290604052610ad9565b84848080601f016020809104026020016040519081016040528093929190818152602001838380828437600081840152601f19601f82011690508083019250505050505050610b14565b6101cd576040517f08c379a00000000000000000000000000000000000000000000000000000000081526004016101c490611f7e565b60405180910390fd5b6101da8787878787610ba3565b50505050505050565b60608060008073ffffffffffffffffffffffffffffffffffffffff168673ffffffffffffffffffffffffffffffffffffffff16146102b257610262600160008873ffffffffffffffffffffffffffffffffffffffff1673ffffffffffffffffffffffffffffffffffffffff168152602001908152602001600020610f22565b91506102ab600160008873ffffffffffffffffffffffffffffffffffffffff1673ffffffffffffffffffffffffffffffffffffffff168152602001908152602001600020610f43565b90506103b9565b600073ffffffffffffffffffffffffffffffffffffffff168573ffffffffffffffffffffffffffffffffffffffff161461037d5761032d600260008773ffffffffffffffffffffffffffffffffffffffff1673ffffffffffffffffffffffffffffffffffffffff168152602001908152602001600020610f22565b9150610376600260008773ffffffffffffffffffffffffffffffffffffffff1673ffffffffffffffffffffffffffffffffffffffff168152602001908152602001600020610f43565b90506103b8565b6040517f08c379a00000000000000000000000000000000000000000000000000000000081526004016103af90612010565b60405180910390fd5b5b6000808267ffffffffffffffff8111156103d6576103d56119cb565b5b6040519080825280602002602001820160405280156104045781602001602082028036833780820191505090505b50905060005b8381101561055557600085828151811061042757610426612030565b5b6020026020010151905060008073ffffffffffffffffffffffffffffffffffffffff168a73ffffffffffffffffffffffffffffffffffffffff1614806104ba57506104b982600260008d73ffffffffffffffffffffffffffffffffffffffff1673ffffffffffffffffffffffffffffffffffffffff168152602001908152602001600020610f5890919063ffffffff16565b5b801561050257506104ca89610f6f565b8061050157506105008260038b6040516104e4919061209b565b9081526020016040518091039020610f5890919063ffffffff16565b5b5b90508015610540578480610515906120e1565b955050600184848151811061052d5761052c612030565b5b6020026020010190151590811515815250505b5050808061054d906120e1565b91505061040a565b5060008267ffffffffffffffff811115610572576105716119cb565b5b6040519080825280602002602001820160405280156105ab57816020015b6105986116e5565b8152602001906001900390816105905790505b5090506000805b85811015610799578381815181106105cd576105cc612030565b5b602002602001015115610786576000808883815181106105f0576105ef612030565b5b602002602001015181526020019081526020016000206040518060800160405290816000820160009054906101000a900473ffffffffffffffffffffffffffffffffffffffff1673ffffffffffffffffffffffffffffffffffffffff1673ffffffffffffffffffffffffffffffffffffffff1681526020016001820160009054906101000a900473ffffffffffffffffffffffffffffffffffffffff1673ffffffffffffffffffffffffffffffffffffffff1673ffffffffffffffffffffffffffffffffffffffff1681526020016002820180546106cd90612158565b80601f01602080910402602001604051908101604052809291908181526020018280546106f990612158565b80156107465780601f1061071b57610100808354040283529160200191610746565b820191906000526020600020905b81548152906001019060200180831161072957829003601f168201915b5050505050815260200160038201548152505083838151811061076c5761076b612030565b5b60200260200101819052508180610782906120e1565b9250505b8080610791906120e1565b9150506105b2565b508196505050505050509392505050565b6107b73385858585610ba3565b50505050565b60606107cb600084846101e3565b905092915050565b60006107e03385856101e3565b90506000815111610826576040517f08c379a000000000000000000000000000000000000000000000000000000000815260040161081d906121d5565b60405180910390fd5b60005b8151811015610ad257600082828151811061084757610846612030565b5b60200260200101519050600084148061087d57508383838151811061086f5761086e612030565b5b602002602001015160600151145b15610abe57428160600151106108c8576040517f08c379a00000000000000000000000000000000000000000000000000000000081526004016108bf90612241565b60405180910390fd5b60006108d382610fc5565b9050600080828152602001908152602001600020600080820160006101000a81549073ffffffffffffffffffffffffffffffffffffffff02191690556001820160006101000a81549073ffffffffffffffffffffffffffffffffffffffff02191690556002820160006109469190611739565b600382016000905550506109a58160016000856000015173ffffffffffffffffffffffffffffffffffffffff1673ffffffffffffffffffffffffffffffffffffffff16815260200190815260200160002061100b90919063ffffffff16565b506109fb8160026000856020015173ffffffffffffffffffffffffffffffffffffffff1673ffffffffffffffffffffffffffffffffffffffff16815260200190815260200160002061100b90919063ffffffff16565b50610a308160038460400151604051610a14919061209b565b908152602001604051809103902061100b90919063ffffffff16565b508160400151604051610a43919061209b565b6040518091039020826020015173ffffffffffffffffffffffffffffffffffffffff16836000015173ffffffffffffffffffffffffffffffffffffffff167ffeff9850709af031b875a6b4bea72ef38f7679e252a8aeecd4d176225b1ee3238560600151604051610ab49190612261565b60405180910390a4505b508080610aca906120e1565b915050610829565b5050505050565b6000610ae58251611022565b82604051602001610af792919061230f565b604051602081830303815290604052805190602001209050919050565b6000806000610b2385856110f0565b9150915060006004811115610b3b57610b3a61233e565b5b816004811115610b4e57610b4d61233e565b5b148015610b8657508573ffffffffffffffffffffffffffffffffffffffff168273ffffffffffffffffffffffffffffffffffffffff16145b80610b985750610b97868686611141565b5b925050509392505050565b600060405180608001604052808773ffffffffffffffffffffffffffffffffffffffff1681526020018673ffffffffffffffffffffffffffffffffffffffff16815260200185858080601f016020809104026020016040519081016040528093929190818152602001838380828437600081840152601f19601f8201169050808301925050505050505081526020018381525090506000610c4382610fc5565b9050600073ffffffffffffffffffffffffffffffffffffffff1660008083815260200190815260200160002060000160009054906101000a900473ffffffffffffffffffffffffffffffffffffffff1673ffffffffffffffffffffffffffffffffffffffff1614610ce9576040517f08c379a0000000000000000000000000000000000000000000000000000000008152600401610ce0906123b9565b60405180910390fd5b8160008083815260200190815260200160002060008201518160000160006101000a81548173ffffffffffffffffffffffffffffffffffffffff021916908373ffffffffffffffffffffffffffffffffffffffff16021790555060208201518160010160006101000a81548173ffffffffffffffffffffffffffffffffffffffff021916908373ffffffffffffffffffffffffffffffffffffffff1602179055506040820151816002019081610d9f9190612585565b5060608201518160030155905050610e028160016000856000015173ffffffffffffffffffffffffffffffffffffffff1673ffffffffffffffffffffffffffffffffffffffff16815260200190815260200160002061128590919063ffffffff16565b50610e588160026000856020015173ffffffffffffffffffffffffffffffffffffffff1673ffffffffffffffffffffffffffffffffffffffff16815260200190815260200160002061128590919063ffffffff16565b50610e8d8160038460400151604051610e71919061209b565b908152602001604051809103902061128590919063ffffffff16565b508160400151604051610ea0919061209b565b6040518091039020826020015173ffffffffffffffffffffffffffffffffffffffff16836000015173ffffffffffffffffffffffffffffffffffffffff167faa11b1607ce40799434b358e476f60277b9c8879ca956534f8f185a8b7e227a78560600151604051610f119190612261565b60405180910390a450505050505050565b60606000610f328360000161129c565b905060608190508092505050919050565b6000610f51826000016112f8565b9050919050565b6000610f678360000183611309565b905092915050565b6000604051602001610f80906126a3565b6040516020818303038152906040528051906020012082604051602001610fa7919061209b565b60405160208183030381529060405280519060200120149050919050565b60008160000151826020015183604001518460600151604051602001610fee9493929190612721565b604051602081830303815290604052805190602001209050919050565b600061101a836000018361132c565b905092915050565b60606000600161103184611440565b01905060008167ffffffffffffffff8111156110505761104f6119cb565b5b6040519080825280601f01601f1916602001820160405280156110825781602001600182028036833780820191505090505b509050600082602001820190505b6001156110e5578080600190039150507f3031323334353637383961626364656600000000000000000000000000000000600a86061a8153600a85816110d9576110d861276b565b5b04945060008503611090575b819350505050919050565b60008060418351036111315760008060006020860151925060408601519150606086015160001a905061112587828585611593565b9450945050505061113a565b60006002915091505b9250929050565b60008060008573ffffffffffffffffffffffffffffffffffffffff16631626ba7e60e01b86866040516024016111789291906127fd565b604051602081830303815290604052907bffffffffffffffffffffffffffffffffffffffffffffffffffffffff19166020820180517bffffffffffffffffffffffffffffffffffffffffffffffffffffffff83818316178352505050506040516111e2919061282d565b600060405180830381855afa9150503d806000811461121d576040519150601f19603f3d011682016040523d82523d6000602084013e611222565b606091505b509150915081801561123657506020815110155b801561127a5750631626ba7e60e01b7bffffffffffffffffffffffffffffffffffffffffffffffffffffffff1916818060200190518101906112789190612870565b145b925050509392505050565b60006112948360000183611675565b905092915050565b6060816000018054806020026020016040519081016040528092919081815260200182805480156112ec57602002820191906000526020600020905b8154815260200190600101908083116112d8575b50505050509050919050565b600081600001805490509050919050565b600080836001016000848152602001908152602001600020541415905092915050565b6000808360010160008481526020019081526020016000205490506000811461143457600060018261135e919061289d565b9050600060018660000180549050611376919061289d565b90508181146113e557600086600001828154811061139757611396612030565b5b90600052602060002001549050808760000184815481106113bb576113ba612030565b5b90600052602060002001819055508387600101600083815260200190815260200160002081905550505b856000018054806113f9576113f86128d1565b5b60019003818190600052602060002001600090559055856001016000868152602001908152602001600020600090556001935050505061143a565b60009150505b92915050565b600080600090507a184f03e93ff9f4daa797ed6e38ed64bf6a1f010000000000000000831061149e577a184f03e93ff9f4daa797ed6e38ed64bf6a1f01000000000000000083816114945761149361276b565b5b0492506040810190505b6d04ee2d6d415b85acef810000000083106114db576d04ee2d6d415b85acef810000000083816114d1576114d061276b565b5b0492506020810190505b662386f26fc10000831061150a57662386f26fc100008381611500576114ff61276b565b5b0492506010810190505b6305f5e1008310611533576305f5e10083816115295761152861276b565b5b0492506008810190505b612710831061155857612710838161154e5761154d61276b565b5b0492506004810190505b6064831061157b57606483816115715761157061276b565b5b0492506002810190505b600a831061158a576001810190505b80915050919050565b6000807f7fffffffffffffffffffffffffffffff5d576e7357a4501ddfe92f46681b20a08360001c11156115ce57600060039150915061166c565b6000600187878787604051600081526020016040526040516115f3949392919061291c565b6020604051602081039080840390855afa158015611615573d6000803e3d6000fd5b505050602060405103519050600073ffffffffffffffffffffffffffffffffffffffff168173ffffffffffffffffffffffffffffffffffffffff16036116635760006001925092505061166c565b80600092509250505b94509492505050565b60006116818383611309565b6116da5782600001829080600181540180825580915050600190039060005260206000200160009091909190915055826000018054905083600101600084815260200190815260200160002081905550600190506116df565b600090505b92915050565b6040518060800160405280600073ffffffffffffffffffffffffffffffffffffffff168152602001600073ffffffffffffffffffffffffffffffffffffffff16815260200160608152602001600081525090565b50805461174590612158565b6000825580601f106117575750611776565b601f0160209004906000526020600020908101906117759190611779565b5b50565b5b8082111561179257600081600090555060010161177a565b5090565b6000604051905090565b600080fd5b600080fd5b600073ffffffffffffffffffffffffffffffffffffffff82169050919050565b60006117d5826117aa565b9050919050565b6117e5816117ca565b81146117f057600080fd5b50565b600081359050611802816117dc565b92915050565b600080fd5b600080fd5b600080fd5b60008083601f84011261182d5761182c611808565b5b8235905067ffffffffffffffff81111561184a5761184961180d565b5b60208301915083600182028301111561186657611865611812565b5b9250929050565b6000819050919050565b6118808161186d565b811461188b57600080fd5b50565b60008135905061189d81611877565b92915050565b60008083601f8401126118b9576118b8611808565b5b8235905067ffffffffffffffff8111156118d6576118d561180d565b5b6020830191508360018202830111156118f2576118f1611812565b5b9250929050565b600080600080600080600060a0888a031215611918576119176117a0565b5b60006119268a828b016117f3565b97505060206119378a828b016117f3565b965050604088013567ffffffffffffffff811115611958576119576117a5565b5b6119648a828b01611817565b955095505060606119778a828b0161188e565b935050608088013567ffffffffffffffff811115611998576119976117a5565b5b6119a48a828b016118a3565b925092505092959891949750929550565b600080fd5b6000601f19601f8301169050919050565b7f4e487b7100000000000000000000000000000000000000000000000000000000600052604160045260246000fd5b611a03826119ba565b810181811067ffffffffffffffff82111715611a2257611a216119cb565b5b80604052505050565b6000611a35611796565b9050611a4182826119fa565b919050565b600067ffffffffffffffff821115611a6157611a606119cb565b5b611a6a826119ba565b9050602081019050919050565b82818337600083830152505050565b6000611a99611a9484611a46565b611a2b565b905082815260208101848484011115611ab557611ab46119b5565b5b611ac0848285611a77565b509392505050565b600082601f830112611add57611adc611808565b5b8135611aed848260208601611a86565b91505092915050565b600080600060608486031215611b0f57611b0e6117a0565b5b6000611b1d868287016117f3565b9350506020611b2e868287016117f3565b925050604084013567ffffffffffffffff811115611b4f57611b4e6117a5565b5b611b5b86828701611ac8565b9150509250925092565b600081519050919050565b600082825260208201905092915050565b6000819050602082019050919050565b611b9a816117ca565b82525050565b600081519050919050565b600082825260208201905092915050565b60005b83811015611bda578082015181840152602081019050611bbf565b60008484015250505050565b6000611bf182611ba0565b611bfb8185611bab565b9350611c0b818560208601611bbc565b611c14816119ba565b840191505092915050565b611c288161186d565b82525050565b6000608083016000830151611c466000860182611b91565b506020830151611c596020860182611b91565b5060408301518482036040860152611c718282611be6565b9150506060830151611c866060860182611c1f565b508091505092915050565b6000611c9d8383611c2e565b905092915050565b6000602082019050919050565b6000611cbd82611b65565b611cc78185611b70565b935083602082028501611cd985611b81565b8060005b85811015611d155784840389528151611cf68582611c91565b9450611d0183611ca5565b925060208a01995050600181019050611cdd565b50829750879550505050505092915050565b60006020820190508181036000830152611d418184611cb2565b905092915050565b60008060008060608587031215611d6357611d626117a0565b5b6000611d71878288016117f3565b945050602085013567ffffffffffffffff811115611d9257611d916117a5565b5b611d9e87828801611817565b93509350506040611db18782880161188e565b91505092959194509250565b60008060408385031215611dd457611dd36117a0565b5b6000611de2858286016117f3565b925050602083013567ffffffffffffffff811115611e0357611e026117a5565b5b611e0f85828601611ac8565b9150509250929050565b600080600060608486031215611e3257611e316117a0565b5b6000611e40868287016117f3565b935050602084013567ffffffffffffffff811115611e6157611e606117a5565b5b611e6d86828701611ac8565b9250506040611e7e8682870161188e565b9150509250925092565b611e91816117ca565b82525050565b600082825260208201905092915050565b6000611eb48385611e97565b9350611ec1838584611a77565b611eca836119ba565b840190509392505050565b611ede8161186d565b82525050565b6000608082019050611ef96000830188611e88565b611f066020830187611e88565b8181036040830152611f19818587611ea8565b9050611f286060830184611ed5565b9695505050505050565b7f5369676e617475726520646f65736e2774206d61746368000000000000000000600082015250565b6000611f68601783611e97565b9150611f7382611f32565b602082019050919050565b60006020820190508181036000830152611f9781611f5b565b9050919050565b7f526571756972656420617267756d656e743a20606f776e65726020616e642f6f60008201527f7220606772616e74656560000000000000000000000000000000000000000000602082015250565b6000611ffa602b83611e97565b915061200582611f9e565b604082019050919050565b6000602082019050818103600083015261202981611fed565b9050919050565b7f4e487b7100000000000000000000000000000000000000000000000000000000600052603260045260246000fd5b600081905092915050565b600061207582611ba0565b61207f818561205f565b935061208f818560208601611bbc565b80840191505092915050565b60006120a7828461206a565b915081905092915050565b7f4e487b7100000000000000000000000000000000000000000000000000000000600052601160045260246000fd5b60006120ec8261186d565b91507fffffffffffffffffffffffffffffffffffffffffffffffffffffffffffffffff820361211e5761211d6120b2565b5b600182019050919050565b7f4e487b7100000000000000000000000000000000000000000000000000000000600052602260045260246000fd5b6000600282049050600182168061217057607f821691505b60208210810361218357612182612129565b5b50919050565b7f4e6f206772616e747320666f722073656e646572000000000000000000000000600082015250565b60006121bf601483611e97565b91506121ca82612189565b602082019050919050565b600060208201905081810360008301526121ee816121b2565b9050919050565b7f4772616e742069732074696d656c6f636b656400000000000000000000000000600082015250565b600061222b601383611e97565b9150612236826121f5565b602082019050919050565b6000602082019050818103600083015261225a8161221e565b9050919050565b60006020820190506122766000830184611ed5565b92915050565b7f19457468657265756d205369676e6564204d6573736167653a0a000000000000600082015250565b60006122b2601a8361205f565b91506122bd8261227c565b601a82019050919050565b600081519050919050565b600081905092915050565b60006122e9826122c8565b6122f381856122d3565b9350612303818560208601611bbc565b80840191505092915050565b600061231a826122a5565b9150612326828561206a565b915061233282846122de565b91508190509392505050565b7f4e487b7100000000000000000000000000000000000000000000000000000000600052602160045260246000fd5b7f4772616e7420616c726561647920657869737473000000000000000000000000600082015250565b60006123a3601483611e97565b91506123ae8261236d565b602082019050919050565b600060208201905081810360008301526123d281612396565b9050919050565b60008190508160005260206000209050919050565b60006020601f8301049050919050565b600082821b905092915050565b60006008830261243b7fffffffffffffffffffffffffffffffffffffffffffffffffffffffffffffffff826123fe565b61244586836123fe565b95508019841693508086168417925050509392505050565b6000819050919050565b600061248261247d6124788461186d565b61245d565b61186d565b9050919050565b6000819050919050565b61249c83612467565b6124b06124a882612489565b84845461240b565b825550505050565b600090565b6124c56124b8565b6124d0818484612493565b505050565b5b818110156124f4576124e96000826124bd565b6001810190506124d6565b5050565b601f8211156125395761250a816123d9565b612513846123ee565b81016020851015612522578190505b61253661252e856123ee565b8301826124d5565b50505b505050565b600082821c905092915050565b600061255c6000198460080261253e565b1980831691505092915050565b6000612575838361254b565b9150826002028217905092915050565b61258e82611ba0565b67ffffffffffffffff8111156125a7576125a66119cb565b5b6125b18254612158565b6125bc8282856124f8565b600060209050601f8311600181146125ef57600084156125dd578287015190505b6125e78582612569565b86555061264f565b601f1984166125fd866123d9565b60005b8281101561262557848901518255600182019150602085019450602081019050612600565b86831015612642578489015161263e601f89168261254b565b8355505b6001600288020188555050505b505050505050565b7f3000000000000000000000000000000000000000000000000000000000000000600082015250565b600061268d60018361205f565b915061269882612657565b600182019050919050565b60006126ae82612680565b9150819050919050565b60008160601b9050919050565b60006126d0826126b8565b9050919050565b60006126e2826126c5565b9050919050565b6126fa6126f5826117ca565b6126d7565b82525050565b6000819050919050565b61271b6127168261186d565b612700565b82525050565b600061272d82876126e9565b60148201915061273d82866126e9565b60148201915061274d828561206a565b9150612759828461270a565b60208201915081905095945050505050565b7f4e487b7100000000000000000000000000000000000000000000000000000000600052601260045260246000fd5b6000819050919050565b6127ad8161279a565b82525050565b600082825260208201905092915050565b60006127cf826122c8565b6127d981856127b3565b93506127e9818560208601611bbc565b6127f2816119ba565b840191505092915050565b600060408201905061281260008301856127a4565b818103602083015261282481846127c4565b90509392505050565b600061283982846122de565b915081905092915050565b61284d8161279a565b811461285857600080fd5b50565b60008151905061286a81612844565b92915050565b600060208284031215612886576128856117a0565b5b60006128948482850161285b565b91505092915050565b60006128a88261186d565b91506128b38361186d565b92508282039050818111156128cb576128ca6120b2565b5b92915050565b7f4e487b7100000000000000000000000000000000000000000000000000000000600052603160045260246000fd5b600060ff82169050919050565b61291681612900565b82525050565b600060808201905061293160008301876127a4565b61293e602083018661290d565b61294b60408301856127a4565b61295860608301846127a4565b9594505050505056fea2646970667358221220cbdfc888e911ce363d053a10df052510d90347a9fed6bfa691cc41b126ddc34c64736f6c63430008130033",
  "linkReferences": {},
  "deployedLinkReferences": {}
}