{
  "_format": "hh-sol-artifact-1",
  "contractName": "AccessGrants",
  "sourceName": "contracts/AccessGrants.sol",
  "abi": [
    {
      "inputs": [],
      "stateMutability": "nonpayable",
      "type": "constructor"
    },
    {
      "anonymous": false,
      "inputs": [
        {
          "indexed": true,
          "internalType": "address",
          "name": "owner",
          "type": "address"
        },
        {
          "indexed": true,
          "internalType": "address",
          "name": "grantee",
          "type": "address"
        },
        {
          "indexed": true,
          "internalType": "string",
          "name": "dataId",
          "type": "string"
        },
        {
          "indexed": false,
          "internalType": "uint256",
          "name": "lockedUntil",
          "type": "uint256"
        }
      ],
      "name": "GrantAdded",
      "type": "event"
    },
    {
      "anonymous": false,
      "inputs": [
        {
          "indexed": true,
          "internalType": "address",
          "name": "owner",
          "type": "address"
        },
        {
          "indexed": true,
          "internalType": "address",
          "name": "grantee",
          "type": "address"
        },
        {
          "indexed": true,
          "internalType": "string",
          "name": "dataId",
          "type": "string"
        },
        {
          "indexed": false,
          "internalType": "uint256",
          "name": "lockedUntil",
          "type": "uint256"
        }
      ],
      "name": "GrantDeleted",
      "type": "event"
    },
    {
      "inputs": [
        {
          "internalType": "address",
          "name": "grantee",
          "type": "address"
        },
        {
          "internalType": "string",
          "name": "dataId",
          "type": "string"
        },
        {
          "internalType": "uint256",
          "name": "lockedUntil",
          "type": "uint256"
        }
      ],
      "name": "deleteGrant",
      "outputs": [],
      "stateMutability": "nonpayable",
      "type": "function"
    },
    {
      "inputs": [
        {
          "internalType": "address",
          "name": "owner",
          "type": "address"
        },
        {
          "internalType": "address",
          "name": "grantee",
          "type": "address"
        },
        {
          "internalType": "string",
          "name": "dataId",
          "type": "string"
        }
      ],
      "name": "findGrants",
      "outputs": [
        {
          "components": [
            {
              "internalType": "address",
              "name": "owner",
              "type": "address"
            },
            {
              "internalType": "address",
              "name": "grantee",
              "type": "address"
            },
            {
              "internalType": "string",
              "name": "dataId",
              "type": "string"
            },
            {
              "internalType": "uint256",
              "name": "lockedUntil",
              "type": "uint256"
            }
          ],
          "internalType": "struct AccessGrants.Grant[]",
          "name": "",
          "type": "tuple[]"
        }
      ],
      "stateMutability": "view",
      "type": "function"
    },
    {
      "inputs": [
        {
          "internalType": "address",
          "name": "grantee",
          "type": "address"
        },
        {
          "internalType": "string",
          "name": "dataId",
          "type": "string"
        }
      ],
      "name": "grantsFor",
      "outputs": [
        {
          "components": [
            {
              "internalType": "address",
              "name": "owner",
              "type": "address"
            },
            {
              "internalType": "address",
              "name": "grantee",
              "type": "address"
            },
            {
              "internalType": "string",
              "name": "dataId",
              "type": "string"
            },
            {
              "internalType": "uint256",
              "name": "lockedUntil",
              "type": "uint256"
            }
          ],
          "internalType": "struct AccessGrants.Grant[]",
          "name": "",
          "type": "tuple[]"
        }
      ],
      "stateMutability": "view",
      "type": "function"
    },
    {
      "inputs": [
        {
          "internalType": "address",
          "name": "grantee",
          "type": "address"
        },
        {
          "internalType": "string",
          "name": "dataId",
          "type": "string"
        },
        {
          "internalType": "uint256",
          "name": "lockedUntil",
          "type": "uint256"
        }
      ],
      "name": "insertGrant",
      "outputs": [],
      "stateMutability": "nonpayable",
      "type": "function"
    },
    {
      "inputs": [
        {
          "internalType": "address",
          "name": "owner",
          "type": "address"
        },
        {
          "internalType": "address",
          "name": "grantee",
          "type": "address"
        },
        {
          "internalType": "string",
          "name": "dataId",
          "type": "string"
        },
        {
          "internalType": "uint256",
          "name": "lockedUntil",
          "type": "uint256"
        },
        {
          "internalType": "bytes",
          "name": "signature",
          "type": "bytes"
        }
      ],
      "name": "insertGrantBySignature",
      "outputs": [],
      "stateMutability": "nonpayable",
      "type": "function"
    },
    {
      "inputs": [
        {
          "internalType": "address",
          "name": "owner",
          "type": "address"
        },
        {
          "internalType": "address",
          "name": "grantee",
          "type": "address"
        },
        {
          "internalType": "string",
          "name": "dataId",
          "type": "string"
        },
        {
          "internalType": "uint256",
          "name": "lockedUntil",
          "type": "uint256"
        }
      ],
      "name": "insertGrantBySignatureMessage",
      "outputs": [
        {
          "internalType": "string",
          "name": "",
          "type": "string"
        }
      ],
      "stateMutability": "pure",
      "type": "function"
    }
  ],
  "bytecode": "0x608060405234801561001057600080fd5b50612fa1806100206000396000f3fe608060405234801561001057600080fd5b50600436106100625760003560e01c80632ae12052146100675780634ba0b062146100975780637e0cc3a2146100b3578063b14d52d5146100e3578063b7dd8865146100ff578063c28c65241461012f575b600080fd5b610081600480360381019061007c9190611b79565b61014b565b60405161008e9190611c91565b60405180910390f35b6100b160048036038101906100ac9190611d09565b610198565b005b6100cd60048036038101906100c89190611ef5565b610250565b6040516100da91906120f1565b60405180910390f35b6100fd60048036038101906100f89190612113565b610817565b005b61011960048036038101906101149190612187565b61082a565b60405161012691906120f1565b60405180910390f35b610149600480360381019061014491906121e3565b610840565b005b606061015686610b46565b61015f86610b46565b858561016a86610b73565b60405160200161017e959493929190612397565b604051602081830303815290604052905095945050505050565b6101fb876101b16101ac8a8a8a8a8a61014b565b610c41565b84848080601f016020809104026020016040519081016040528093929190818152602001838380828437600081840152601f19601f82011690508083019250505050505050610c7c565b61023a576040517f08c379a0000000000000000000000000000000000000000000000000000000008152600401610231906124aa565b60405180910390fd5b6102478787878787610d0b565b50505050505050565b60608060008073ffffffffffffffffffffffffffffffffffffffff168673ffffffffffffffffffffffffffffffffffffffff161461031f576102cf600160008873ffffffffffffffffffffffffffffffffffffffff1673ffffffffffffffffffffffffffffffffffffffff16815260200190815260200160002061108a565b9150610318600160008873ffffffffffffffffffffffffffffffffffffffff1673ffffffffffffffffffffffffffffffffffffffff1681526020019081526020016000206110ab565b9050610426565b600073ffffffffffffffffffffffffffffffffffffffff168573ffffffffffffffffffffffffffffffffffffffff16146103ea5761039a600260008773ffffffffffffffffffffffffffffffffffffffff1673ffffffffffffffffffffffffffffffffffffffff16815260200190815260200160002061108a565b91506103e3600260008773ffffffffffffffffffffffffffffffffffffffff1673ffffffffffffffffffffffffffffffffffffffff1681526020019081526020016000206110ab565b9050610425565b6040517f08c379a000000000000000000000000000000000000000000000000000000000815260040161041c9061253c565b60405180910390fd5b5b6000808267ffffffffffffffff81111561044357610442611dca565b5b6040519080825280602002602001820160405280156104715781602001602082028036833780820191505090505b50905060005b838110156105c25760008582815181106104945761049361255c565b5b6020026020010151905060008073ffffffffffffffffffffffffffffffffffffffff168a73ffffffffffffffffffffffffffffffffffffffff161480610527575061052682600260008d73ffffffffffffffffffffffffffffffffffffffff1673ffffffffffffffffffffffffffffffffffffffff1681526020019081526020016000206110c090919063ffffffff16565b5b801561056f5750610537896110d7565b8061056e575061056d8260038b604051610551919061258b565b90815260200160405180910390206110c090919063ffffffff16565b5b5b905080156105ad578480610582906125d1565b955050600184848151811061059a5761059961255c565b5b6020026020010190151590811515815250505b505080806105ba906125d1565b915050610477565b5060008267ffffffffffffffff8111156105df576105de611dca565b5b60405190808252806020026020018201604052801561061857816020015b6106056119bb565b8152602001906001900390816105fd5790505b5090506000805b858110156108065783818151811061063a5761063961255c565b5b6020026020010151156107f35760008088838151811061065d5761065c61255c565b5b602002602001015181526020019081526020016000206040518060800160405290816000820160009054906101000a900473ffffffffffffffffffffffffffffffffffffffff1673ffffffffffffffffffffffffffffffffffffffff1673ffffffffffffffffffffffffffffffffffffffff1681526020016001820160009054906101000a900473ffffffffffffffffffffffffffffffffffffffff1673ffffffffffffffffffffffffffffffffffffffff1673ffffffffffffffffffffffffffffffffffffffff16815260200160028201805461073a90612648565b80601f016020809104026020016040519081016040528092919081815260200182805461076690612648565b80156107b35780601f10610788576101008083540402835291602001916107b3565b820191906000526020600020905b81548152906001019060200180831161079657829003601f168201915b505050505081526020016003820154815250508383815181106107d9576107d861255c565b5b602002602001018190525081806107ef906125d1565b9250505b80806107fe906125d1565b91505061061f565b508196505050505050509392505050565b6108243385858585610d0b565b50505050565b606061083860008484610250565b905092915050565b600061084d338585610250565b90506000815111610893576040517f08c379a000000000000000000000000000000000000000000000000000000000815260040161088a906126c5565b60405180910390fd5b60005b8151811015610b3f5760008282815181106108b4576108b361255c565b5b6020026020010151905060008414806108ea5750838383815181106108dc576108db61255c565b5b602002602001015160600151145b15610b2b5742816060015110610935576040517f08c379a000000000000000000000000000000000000000000000000000000000815260040161092c90612731565b60405180910390fd5b60006109408261112d565b9050600080828152602001908152602001600020600080820160006101000a81549073ffffffffffffffffffffffffffffffffffffffff02191690556001820160006101000a81549073ffffffffffffffffffffffffffffffffffffffff02191690556002820160006109b39190611a0f565b60038201600090555050610a128160016000856000015173ffffffffffffffffffffffffffffffffffffffff1673ffffffffffffffffffffffffffffffffffffffff16815260200190815260200160002061117390919063ffffffff16565b50610a688160026000856020015173ffffffffffffffffffffffffffffffffffffffff1673ffffffffffffffffffffffffffffffffffffffff16815260200190815260200160002061117390919063ffffffff16565b50610a9d8160038460400151604051610a81919061258b565b908152602001604051809103902061117390919063ffffffff16565b508160400151604051610ab0919061258b565b6040518091039020826020015173ffffffffffffffffffffffffffffffffffffffff16836000015173ffffffffffffffffffffffffffffffffffffffff167ffeff9850709af031b875a6b4bea72ef38f7679e252a8aeecd4d176225b1ee3238560600151604051610b219190612760565b60405180910390a4505b508080610b37906125d1565b915050610896565b5050505050565b6060610b6c8273ffffffffffffffffffffffffffffffffffffffff16601460ff1661118a565b9050919050565b606060006001610b82846113c6565b01905060008167ffffffffffffffff811115610ba157610ba0611dca565b5b6040519080825280601f01601f191660200182016040528015610bd35781602001600182028036833780820191505090505b509050600082602001820190505b600115610c36578080600190039150507f3031323334353637383961626364656600000000000000000000000000000000600a86061a8153600a8581610c2a57610c2961277b565b5b04945060008503610be1575b819350505050919050565b6000610c4d8251610b73565b82604051602001610c5f92919061283d565b604051602081830303815290604052805190602001209050919050565b6000806000610c8b8585611519565b9150915060006004811115610ca357610ca261286c565b5b816004811115610cb657610cb561286c565b5b148015610cee57508573ffffffffffffffffffffffffffffffffffffffff168273ffffffffffffffffffffffffffffffffffffffff16145b80610d005750610cff86868661156a565b5b925050509392505050565b600060405180608001604052808773ffffffffffffffffffffffffffffffffffffffff1681526020018673ffffffffffffffffffffffffffffffffffffffff16815260200185858080601f016020809104026020016040519081016040528093929190818152602001838380828437600081840152601f19601f8201169050808301925050505050505081526020018381525090506000610dab8261112d565b9050600073ffffffffffffffffffffffffffffffffffffffff1660008083815260200190815260200160002060000160009054906101000a900473ffffffffffffffffffffffffffffffffffffffff1673ffffffffffffffffffffffffffffffffffffffff1614610e51576040517f08c379a0000000000000000000000000000000000000000000000000000000008152600401610e48906128e7565b60405180910390fd5b8160008083815260200190815260200160002060008201518160000160006101000a81548173ffffffffffffffffffffffffffffffffffffffff021916908373ffffffffffffffffffffffffffffffffffffffff16021790555060208201518160010160006101000a81548173ffffffffffffffffffffffffffffffffffffffff021916908373ffffffffffffffffffffffffffffffffffffffff1602179055506040820151816002019081610f079190612ab3565b5060608201518160030155905050610f6a8160016000856000015173ffffffffffffffffffffffffffffffffffffffff1673ffffffffffffffffffffffffffffffffffffffff1681526020019081526020016000206116ae90919063ffffffff16565b50610fc08160026000856020015173ffffffffffffffffffffffffffffffffffffffff1673ffffffffffffffffffffffffffffffffffffffff1681526020019081526020016000206116ae90919063ffffffff16565b50610ff58160038460400151604051610fd9919061258b565b90815260200160405180910390206116ae90919063ffffffff16565b508160400151604051611008919061258b565b6040518091039020826020015173ffffffffffffffffffffffffffffffffffffffff16836000015173ffffffffffffffffffffffffffffffffffffffff167faa11b1607ce40799434b358e476f60277b9c8879ca956534f8f185a8b7e227a785606001516040516110799190612760565b60405180910390a450505050505050565b6060600061109a836000016116c5565b905060608190508092505050919050565b60006110b982600001611721565b9050919050565b60006110cf8360000183611732565b905092915050565b60006040516020016110e890612bd1565b604051602081830303815290604052805190602001208260405160200161110f919061258b565b60405160208183030381529060405280519060200120149050919050565b600081600001518260200151836040015184606001516040516020016111569493929190612c4f565b604051602081830303815290604052805190602001209050919050565b60006111828360000183611755565b905092915050565b60606000600283600261119d9190612c99565b6111a79190612cdb565b67ffffffffffffffff8111156111c0576111bf611dca565b5b6040519080825280601f01601f1916602001820160405280156111f25781602001600182028036833780820191505090505b5090507f30000000000000000000000000000000000000000000000000000000000000008160008151811061122a5761122961255c565b5b60200101907effffffffffffffffffffffffffffffffffffffffffffffffffffffffffffff1916908160001a9053507f78000000000000000000000000000000000000000000000000000000000000008160018151811061128e5761128d61255c565b5b60200101907effffffffffffffffffffffffffffffffffffffffffffffffffffffffffffff1916908160001a905350600060018460026112ce9190612c99565b6112d89190612cdb565b90505b6001811115611378577f3031323334353637383961626364656600000000000000000000000000000000600f86166010811061131a5761131961255c565b5b1a60f81b8282815181106113315761133061255c565b5b60200101907effffffffffffffffffffffffffffffffffffffffffffffffffffffffffffff1916908160001a905350600485901c94508061137190612d0f565b90506112db565b50600084146113bc576040517f08c379a00000000000000000000000000000000000000000000000000000000081526004016113b390612d84565b60405180910390fd5b8091505092915050565b600080600090507a184f03e93ff9f4daa797ed6e38ed64bf6a1f0100000000000000008310611424577a184f03e93ff9f4daa797ed6e38ed64bf6a1f010000000000000000838161141a5761141961277b565b5b0492506040810190505b6d04ee2d6d415b85acef81000000008310611461576d04ee2d6d415b85acef810000000083816114575761145661277b565b5b0492506020810190505b662386f26fc10000831061149057662386f26fc1000083816114865761148561277b565b5b0492506010810190505b6305f5e10083106114b9576305f5e10083816114af576114ae61277b565b5b0492506008810190505b61271083106114de5761271083816114d4576114d361277b565b5b0492506004810190505b6064831061150157606483816114f7576114f661277b565b5b0492506002810190505b600a8310611510576001810190505b80915050919050565b600080604183510361155a5760008060006020860151925060408601519150606086015160001a905061154e87828585611869565b94509450505050611563565b60006002915091505b9250929050565b60008060008573ffffffffffffffffffffffffffffffffffffffff16631626ba7e60e01b86866040516024016115a1929190612e07565b604051602081830303815290604052907bffffffffffffffffffffffffffffffffffffffffffffffffffffffff19166020820180517bffffffffffffffffffffffffffffffffffffffffffffffffffffffff838183161783525050505060405161160b9190612e37565b600060405180830381855afa9150503d8060008114611646576040519150601f19603f3d011682016040523d82523d6000602084013e61164b565b606091505b509150915081801561165f57506020815110155b80156116a35750631626ba7e60e01b7bffffffffffffffffffffffffffffffffffffffffffffffffffffffff1916818060200190518101906116a19190612e7a565b145b925050509392505050565b60006116bd836000018361194b565b905092915050565b60608160000180548060200260200160405190810160405280929190818152602001828054801561171557602002820191906000526020600020905b815481526020019060010190808311611701575b50505050509050919050565b600081600001805490509050919050565b600080836001016000848152602001908152602001600020541415905092915050565b6000808360010160008481526020019081526020016000205490506000811461185d5760006001826117879190612ea7565b905060006001866000018054905061179f9190612ea7565b905081811461180e5760008660000182815481106117c0576117bf61255c565b5b90600052602060002001549050808760000184815481106117e4576117e361255c565b5b90600052602060002001819055508387600101600083815260200190815260200160002081905550505b8560000180548061182257611821612edb565b5b600190038181906000526020600020016000905590558560010160008681526020019081526020016000206000905560019350505050611863565b60009150505b92915050565b6000807f7fffffffffffffffffffffffffffffff5d576e7357a4501ddfe92f46681b20a08360001c11156118a4576000600391509150611942565b6000600187878787604051600081526020016040526040516118c99493929190612f26565b6020604051602081039080840390855afa1580156118eb573d6000803e3d6000fd5b505050602060405103519050600073ffffffffffffffffffffffffffffffffffffffff168173ffffffffffffffffffffffffffffffffffffffff160361193957600060019250925050611942565b80600092509250505b94509492505050565b60006119578383611732565b6119b05782600001829080600181540180825580915050600190039060005260206000200160009091909190915055826000018054905083600101600084815260200190815260200160002081905550600190506119b5565b600090505b92915050565b6040518060800160405280600073ffffffffffffffffffffffffffffffffffffffff168152602001600073ffffffffffffffffffffffffffffffffffffffff16815260200160608152602001600081525090565b508054611a1b90612648565b6000825580601f10611a2d5750611a4c565b601f016020900490600052602060002090810190611a4b9190611a4f565b5b50565b5b80821115611a68576000816000905550600101611a50565b5090565b6000604051905090565b600080fd5b600080fd5b600073ffffffffffffffffffffffffffffffffffffffff82169050919050565b6000611aab82611a80565b9050919050565b611abb81611aa0565b8114611ac657600080fd5b50565b600081359050611ad881611ab2565b92915050565b600080fd5b600080fd5b600080fd5b60008083601f840112611b0357611b02611ade565b5b8235905067ffffffffffffffff811115611b2057611b1f611ae3565b5b602083019150836001820283011115611b3c57611b3b611ae8565b5b9250929050565b6000819050919050565b611b5681611b43565b8114611b6157600080fd5b50565b600081359050611b7381611b4d565b92915050565b600080600080600060808688031215611b9557611b94611a76565b5b6000611ba388828901611ac9565b9550506020611bb488828901611ac9565b945050604086013567ffffffffffffffff811115611bd557611bd4611a7b565b5b611be188828901611aed565b93509350506060611bf488828901611b64565b9150509295509295909350565b600081519050919050565b600082825260208201905092915050565b60005b83811015611c3b578082015181840152602081019050611c20565b60008484015250505050565b6000601f19601f8301169050919050565b6000611c6382611c01565b611c6d8185611c0c565b9350611c7d818560208601611c1d565b611c8681611c47565b840191505092915050565b60006020820190508181036000830152611cab8184611c58565b905092915050565b60008083601f840112611cc957611cc8611ade565b5b8235905067ffffffffffffffff811115611ce657611ce5611ae3565b5b602083019150836001820283011115611d0257611d01611ae8565b5b9250929050565b600080600080600080600060a0888a031215611d2857611d27611a76565b5b6000611d368a828b01611ac9565b9750506020611d478a828b01611ac9565b965050604088013567ffffffffffffffff811115611d6857611d67611a7b565b5b611d748a828b01611aed565b95509550506060611d878a828b01611b64565b935050608088013567ffffffffffffffff811115611da857611da7611a7b565b5b611db48a828b01611cb3565b925092505092959891949750929550565b600080fd5b7f4e487b7100000000000000000000000000000000000000000000000000000000600052604160045260246000fd5b611e0282611c47565b810181811067ffffffffffffffff82111715611e2157611e20611dca565b5b80604052505050565b6000611e34611a6c565b9050611e408282611df9565b919050565b600067ffffffffffffffff821115611e6057611e5f611dca565b5b611e6982611c47565b9050602081019050919050565b82818337600083830152505050565b6000611e98611e9384611e45565b611e2a565b905082815260208101848484011115611eb457611eb3611dc5565b5b611ebf848285611e76565b509392505050565b600082601f830112611edc57611edb611ade565b5b8135611eec848260208601611e85565b91505092915050565b600080600060608486031215611f0e57611f0d611a76565b5b6000611f1c86828701611ac9565b9350506020611f2d86828701611ac9565b925050604084013567ffffffffffffffff811115611f4e57611f4d611a7b565b5b611f5a86828701611ec7565b9150509250925092565b600081519050919050565b600082825260208201905092915050565b6000819050602082019050919050565b611f9981611aa0565b82525050565b600082825260208201905092915050565b6000611fbb82611c01565b611fc58185611f9f565b9350611fd5818560208601611c1d565b611fde81611c47565b840191505092915050565b611ff281611b43565b82525050565b60006080830160008301516120106000860182611f90565b5060208301516120236020860182611f90565b506040830151848203604086015261203b8282611fb0565b91505060608301516120506060860182611fe9565b508091505092915050565b60006120678383611ff8565b905092915050565b6000602082019050919050565b600061208782611f64565b6120918185611f6f565b9350836020820285016120a385611f80565b8060005b858110156120df57848403895281516120c0858261205b565b94506120cb8361206f565b925060208a019950506001810190506120a7565b50829750879550505050505092915050565b6000602082019050818103600083015261210b818461207c565b905092915050565b6000806000806060858703121561212d5761212c611a76565b5b600061213b87828801611ac9565b945050602085013567ffffffffffffffff81111561215c5761215b611a7b565b5b61216887828801611aed565b9350935050604061217b87828801611b64565b91505092959194509250565b6000806040838503121561219e5761219d611a76565b5b60006121ac85828601611ac9565b925050602083013567ffffffffffffffff8111156121cd576121cc611a7b565b5b6121d985828601611ec7565b9150509250929050565b6000806000606084860312156121fc576121fb611a76565b5b600061220a86828701611ac9565b935050602084013567ffffffffffffffff81111561222b5761222a611a7b565b5b61223786828701611ec7565b925050604061224886828701611b64565b9150509250925092565b7f6f7065726174696f6e3a20696e736572744772616e7400000000000000000000815250565b7f0a00000000000000000000000000000000000000000000000000000000000000815250565b7f6f776e65723a2000000000000000000000000000000000000000000000000000815250565b600081905092915050565b60006122da82611c01565b6122e481856122c4565b93506122f4818560208601611c1d565b80840191505092915050565b7f6772616e7465653a200000000000000000000000000000000000000000000000815250565b7f6461746149643a20000000000000000000000000000000000000000000000000815250565b600061235883856122c4565b9350612365838584611e76565b82840190509392505050565b7f6c6f636b6564556e74696c3a2000000000000000000000000000000000000000815250565b60006123a282612252565b6016820191506123b182612278565b6001820191506123c08261229e565b6007820191506123d082886122cf565b91506123db82612278565b6001820191506123ea82612300565b6009820191506123fa82876122cf565b915061240582612278565b60018201915061241482612326565b60088201915061242582858761234c565b915061243082612278565b60018201915061243f82612371565b600d8201915061244f82846122cf565b91508190509695505050505050565b7f5369676e617475726520646f65736e2774206d61746368000000000000000000600082015250565b6000612494601783611c0c565b915061249f8261245e565b602082019050919050565b600060208201905081810360008301526124c381612487565b9050919050565b7f526571756972656420617267756d656e743a20606f776e65726020616e642f6f60008201527f7220606772616e74656560000000000000000000000000000000000000000000602082015250565b6000612526602b83611c0c565b9150612531826124ca565b604082019050919050565b6000602082019050818103600083015261255581612519565b9050919050565b7f4e487b7100000000000000000000000000000000000000000000000000000000600052603260045260246000fd5b600061259782846122cf565b915081905092915050565b7f4e487b7100000000000000000000000000000000000000000000000000000000600052601160045260246000fd5b60006125dc82611b43565b91507fffffffffffffffffffffffffffffffffffffffffffffffffffffffffffffffff820361260e5761260d6125a2565b5b600182019050919050565b7f4e487b7100000000000000000000000000000000000000000000000000000000600052602260045260246000fd5b6000600282049050600182168061266057607f821691505b60208210810361267357612672612619565b5b50919050565b7f4e6f206772616e747320666f722073656e646572000000000000000000000000600082015250565b60006126af601483611c0c565b91506126ba82612679565b602082019050919050565b600060208201905081810360008301526126de816126a2565b9050919050565b7f4772616e742069732074696d656c6f636b656400000000000000000000000000600082015250565b600061271b601383611c0c565b9150612726826126e5565b602082019050919050565b6000602082019050818103600083015261274a8161270e565b9050919050565b61275a81611b43565b82525050565b60006020820190506127756000830184612751565b92915050565b7f4e487b7100000000000000000000000000000000000000000000000000000000600052601260045260246000fd5b7f19457468657265756d205369676e6564204d6573736167653a0a000000000000600082015250565b60006127e0601a836122c4565b91506127eb826127aa565b601a82019050919050565b600081519050919050565b600081905092915050565b6000612817826127f6565b6128218185612801565b9350612831818560208601611c1d565b80840191505092915050565b6000612848826127d3565b915061285482856122cf565b9150612860828461280c565b91508190509392505050565b7f4e487b7100000000000000000000000000000000000000000000000000000000600052602160045260246000fd5b7f4772616e7420616c726561647920657869737473000000000000000000000000600082015250565b60006128d1601483611c0c565b91506128dc8261289b565b602082019050919050565b60006020820190508181036000830152612900816128c4565b9050919050565b60008190508160005260206000209050919050565b60006020601f8301049050919050565b600082821b905092915050565b6000600883026129697fffffffffffffffffffffffffffffffffffffffffffffffffffffffffffffffff8261292c565b612973868361292c565b95508019841693508086168417925050509392505050565b6000819050919050565b60006129b06129ab6129a684611b43565b61298b565b611b43565b9050919050565b6000819050919050565b6129ca83612995565b6129de6129d6826129b7565b848454612939565b825550505050565b600090565b6129f36129e6565b6129fe8184846129c1565b505050565b5b81811015612a2257612a176000826129eb565b600181019050612a04565b5050565b601f821115612a6757612a3881612907565b612a418461291c565b81016020851015612a50578190505b612a64612a5c8561291c565b830182612a03565b50505b505050565b600082821c905092915050565b6000612a8a60001984600802612a6c565b1980831691505092915050565b6000612aa38383612a79565b9150826002028217905092915050565b612abc82611c01565b67ffffffffffffffff811115612ad557612ad4611dca565b5b612adf8254612648565b612aea828285612a26565b600060209050601f831160018114612b1d5760008415612b0b578287015190505b612b158582612a97565b865550612b7d565b601f198416612b2b86612907565b60005b82811015612b5357848901518255600182019150602085019450602081019050612b2e565b86831015612b705784890151612b6c601f891682612a79565b8355505b6001600288020188555050505b505050505050565b7f3000000000000000000000000000000000000000000000000000000000000000600082015250565b6000612bbb6001836122c4565b9150612bc682612b85565b600182019050919050565b6000612bdc82612bae565b9150819050919050565b60008160601b9050919050565b6000612bfe82612be6565b9050919050565b6000612c1082612bf3565b9050919050565b612c28612c2382611aa0565b612c05565b82525050565b6000819050919050565b612c49612c4482611b43565b612c2e565b82525050565b6000612c5b8287612c17565b601482019150612c6b8286612c17565b601482019150612c7b82856122cf565b9150612c878284612c38565b60208201915081905095945050505050565b6000612ca482611b43565b9150612caf83611b43565b9250828202612cbd81611b43565b91508282048414831517612cd457612cd36125a2565b5b5092915050565b6000612ce682611b43565b9150612cf183611b43565b9250828201905080821115612d0957612d086125a2565b5b92915050565b6000612d1a82611b43565b915060008203612d2d57612d2c6125a2565b5b600182039050919050565b7f537472696e67733a20686578206c656e67746820696e73756666696369656e74600082015250565b6000612d6e602083611c0c565b9150612d7982612d38565b602082019050919050565b60006020820190508181036000830152612d9d81612d61565b9050919050565b6000819050919050565b612db781612da4565b82525050565b600082825260208201905092915050565b6000612dd9826127f6565b612de38185612dbd565b9350612df3818560208601611c1d565b612dfc81611c47565b840191505092915050565b6000604082019050612e1c6000830185612dae565b8181036020830152612e2e8184612dce565b90509392505050565b6000612e43828461280c565b915081905092915050565b612e5781612da4565b8114612e6257600080fd5b50565b600081519050612e7481612e4e565b92915050565b600060208284031215612e9057612e8f611a76565b5b6000612e9e84828501612e65565b91505092915050565b6000612eb282611b43565b9150612ebd83611b43565b9250828203905081811115612ed557612ed46125a2565b5b92915050565b7f4e487b7100000000000000000000000000000000000000000000000000000000600052603160045260246000fd5b600060ff82169050919050565b612f2081612f0a565b82525050565b6000608082019050612f3b6000830187612dae565b612f486020830186612f17565b612f556040830185612dae565b612f626060830184612dae565b9594505050505056fea264697066735822122059689e6831e3addaf9e4656f911180b51aa7390022a00e761016c841caacdc3d64736f6c63430008130033",
  "linkReferences": {},
  "deployedLinkReferences": {}
}