{
  "_format": "hh-sol-artifact-1",
  "contractName": "AccessGrants",
  "sourceName": "contracts/AccessGrants.sol",
  "abi": [
    {
      "inputs": [],
      "stateMutability": "nonpayable",
      "type": "constructor"
    },
    {
      "inputs": [
        {
          "internalType": "address",
          "name": "grantee",
          "type": "address"
        },
        {
          "internalType": "string",
          "name": "dataId",
          "type": "string"
        },
        {
          "internalType": "uint256",
          "name": "lockedUntil",
          "type": "uint256"
        }
      ],
      "name": "deleteGrant",
      "outputs": [],
      "stateMutability": "nonpayable",
      "type": "function"
    },
    {
      "inputs": [
        {
          "internalType": "address",
          "name": "owner",
          "type": "address"
        },
        {
          "internalType": "address",
          "name": "grantee",
          "type": "address"
        },
        {
          "internalType": "string",
          "name": "dataId",
          "type": "string"
        }
      ],
      "name": "findGrants",
      "outputs": [
        {
          "components": [
            {
              "internalType": "address",
              "name": "owner",
              "type": "address"
            },
            {
              "internalType": "address",
              "name": "grantee",
              "type": "address"
            },
            {
              "internalType": "string",
              "name": "dataId",
              "type": "string"
            },
            {
              "internalType": "uint256",
              "name": "lockedUntil",
              "type": "uint256"
            }
          ],
          "internalType": "struct AccessGrants.Grant[]",
          "name": "",
          "type": "tuple[]"
        }
      ],
      "stateMutability": "view",
      "type": "function"
    },
    {
      "inputs": [
        {
          "internalType": "address",
          "name": "grantee",
          "type": "address"
        },
        {
          "internalType": "string",
          "name": "dataId",
          "type": "string"
        }
      ],
      "name": "grantsFor",
      "outputs": [
        {
          "components": [
            {
              "internalType": "address",
              "name": "owner",
              "type": "address"
            },
            {
              "internalType": "address",
              "name": "grantee",
              "type": "address"
            },
            {
              "internalType": "string",
              "name": "dataId",
              "type": "string"
            },
            {
              "internalType": "uint256",
              "name": "lockedUntil",
              "type": "uint256"
            }
          ],
          "internalType": "struct AccessGrants.Grant[]",
          "name": "",
          "type": "tuple[]"
        }
      ],
      "stateMutability": "view",
      "type": "function"
    },
    {
      "inputs": [
        {
          "internalType": "address",
          "name": "grantee",
          "type": "address"
        },
        {
          "internalType": "string",
          "name": "dataId",
          "type": "string"
        },
        {
          "internalType": "uint256",
          "name": "lockedUntil",
          "type": "uint256"
        }
      ],
      "name": "insertGrant",
      "outputs": [],
      "stateMutability": "nonpayable",
      "type": "function"
    }
  ],
  "bytecode": "0x608060405234801561001057600080fd5b50611c42806100206000396000f3fe608060405234801561001057600080fd5b506004361061004c5760003560e01c80637e0cc3a214610051578063b14d52d514610081578063b7dd88651461009d578063c28c6524146100cd575b600080fd5b61006b60048036038101906100669190611183565b6100e9565b60405161007891906113be565b60405180910390f35b61009b6004803603810190610096919061140c565b6106b0565b005b6100b760048036038101906100b2919061147b565b61095e565b6040516100c491906113be565b60405180910390f35b6100e760048036038101906100e2919061140c565b610974565b005b60608060008073ffffffffffffffffffffffffffffffffffffffff168673ffffffffffffffffffffffffffffffffffffffff16146101b857610168600160008873ffffffffffffffffffffffffffffffffffffffff1673ffffffffffffffffffffffffffffffffffffffff168152602001908152602001600020610bef565b91506101b1600160008873ffffffffffffffffffffffffffffffffffffffff1673ffffffffffffffffffffffffffffffffffffffff168152602001908152602001600020610c10565b90506102bf565b600073ffffffffffffffffffffffffffffffffffffffff168573ffffffffffffffffffffffffffffffffffffffff161461028357610233600260008773ffffffffffffffffffffffffffffffffffffffff1673ffffffffffffffffffffffffffffffffffffffff168152602001908152602001600020610bef565b915061027c600260008773ffffffffffffffffffffffffffffffffffffffff1673ffffffffffffffffffffffffffffffffffffffff168152602001908152602001600020610c10565b90506102be565b6040517f08c379a00000000000000000000000000000000000000000000000000000000081526004016102b59061155a565b60405180910390fd5b5b6000808267ffffffffffffffff8111156102dc576102db611058565b5b60405190808252806020026020018201604052801561030a5781602001602082028036833780820191505090505b50905060005b8381101561045b57600085828151811061032d5761032c61157a565b5b6020026020010151905060008073ffffffffffffffffffffffffffffffffffffffff168a73ffffffffffffffffffffffffffffffffffffffff1614806103c057506103bf82600260008d73ffffffffffffffffffffffffffffffffffffffff1673ffffffffffffffffffffffffffffffffffffffff168152602001908152602001600020610c2590919063ffffffff16565b5b801561040857506103d089610c3c565b8061040757506104068260038b6040516103ea91906115e5565b9081526020016040518091039020610c2590919063ffffffff16565b5b5b9050801561044657848061041b9061162b565b95505060018484815181106104335761043261157a565b5b6020026020010190151590811515815250505b505080806104539061162b565b915050610310565b5060008267ffffffffffffffff81111561047857610477611058565b5b6040519080825280602002602001820160405280156104b157816020015b61049e610f1a565b8152602001906001900390816104965790505b5090506000805b8581101561069f578381815181106104d3576104d261157a565b5b60200260200101511561068c576000808883815181106104f6576104f561157a565b5b602002602001015181526020019081526020016000206040518060800160405290816000820160009054906101000a900473ffffffffffffffffffffffffffffffffffffffff1673ffffffffffffffffffffffffffffffffffffffff1673ffffffffffffffffffffffffffffffffffffffff1681526020016001820160009054906101000a900473ffffffffffffffffffffffffffffffffffffffff1673ffffffffffffffffffffffffffffffffffffffff1673ffffffffffffffffffffffffffffffffffffffff1681526020016002820180546105d3906116a2565b80601f01602080910402602001604051908101604052809291908181526020018280546105ff906116a2565b801561064c5780601f106106215761010080835404028352916020019161064c565b820191906000526020600020905b81548152906001019060200180831161062f57829003601f168201915b505050505081526020016003820154815250508383815181106106725761067161157a565b5b602002602001018190525081806106889061162b565b9250505b80806106979061162b565b9150506104b8565b508196505050505050509392505050565b600060405180608001604052803373ffffffffffffffffffffffffffffffffffffffff1681526020018573ffffffffffffffffffffffffffffffffffffffff168152602001848152602001838152509050600061070c82610c92565b9050600073ffffffffffffffffffffffffffffffffffffffff1660008083815260200190815260200160002060000160009054906101000a900473ffffffffffffffffffffffffffffffffffffffff1673ffffffffffffffffffffffffffffffffffffffff16146107b2576040517f08c379a00000000000000000000000000000000000000000000000000000000081526004016107a99061171f565b60405180910390fd5b8160008083815260200190815260200160002060008201518160000160006101000a81548173ffffffffffffffffffffffffffffffffffffffff021916908373ffffffffffffffffffffffffffffffffffffffff16021790555060208201518160010160006101000a81548173ffffffffffffffffffffffffffffffffffffffff021916908373ffffffffffffffffffffffffffffffffffffffff160217905550604082015181600201908161086891906118eb565b50606082015181600301559050506108cb8160016000856000015173ffffffffffffffffffffffffffffffffffffffff1673ffffffffffffffffffffffffffffffffffffffff168152602001908152602001600020610cd890919063ffffffff16565b506109218160026000856020015173ffffffffffffffffffffffffffffffffffffffff1673ffffffffffffffffffffffffffffffffffffffff168152602001908152602001600020610cd890919063ffffffff16565b50610956816003846040015160405161093a91906115e5565b9081526020016040518091039020610cd890919063ffffffff16565b505050505050565b606061096c600084846100e9565b905092915050565b60006109813385856100e9565b905060008151116109c7576040517f08c379a00000000000000000000000000000000000000000000000000000000081526004016109be90611a09565b60405180910390fd5b60005b8151811015610be85760008282815181106109e8576109e761157a565b5b602002602001015190506000841480610a1e575083838381518110610a1057610a0f61157a565b5b602002602001015160600151145b15610bd45742816060015110610a69576040517f08c379a0000000000000000000000000000000000000000000000000000000008152600401610a6090611a75565b60405180910390fd5b6000610a7482610c92565b9050600080828152602001908152602001600020600080820160006101000a81549073ffffffffffffffffffffffffffffffffffffffff02191690556001820160006101000a81549073ffffffffffffffffffffffffffffffffffffffff0219169055600282016000610ae79190610f6e565b60038201600090555050610b468160016000856000015173ffffffffffffffffffffffffffffffffffffffff1673ffffffffffffffffffffffffffffffffffffffff168152602001908152602001600020610cef90919063ffffffff16565b50610b9c8160026000856020015173ffffffffffffffffffffffffffffffffffffffff1673ffffffffffffffffffffffffffffffffffffffff168152602001908152602001600020610cef90919063ffffffff16565b50610bd18160038460400151604051610bb591906115e5565b9081526020016040518091039020610cef90919063ffffffff16565b50505b508080610be09061162b565b9150506109ca565b5050505050565b60606000610bff83600001610d06565b905060608190508092505050919050565b6000610c1e82600001610d62565b9050919050565b6000610c348360000183610d73565b905092915050565b6000604051602001610c4d90611ae1565b6040516020818303038152906040528051906020012082604051602001610c7491906115e5565b60405160208183030381529060405280519060200120149050919050565b60008160000151826020015183604001518460600151604051602001610cbb9493929190611b5f565b604051602081830303815290604052805190602001209050919050565b6000610ce78360000183610d96565b905092915050565b6000610cfe8360000183610e06565b905092915050565b606081600001805480602002602001604051908101604052809291908181526020018280548015610d5657602002820191906000526020600020905b815481526020019060010190808311610d42575b50505050509050919050565b600081600001805490509050919050565b600080836001016000848152602001908152602001600020541415905092915050565b6000610da28383610d73565b610dfb578260000182908060018154018082558091505060019003906000526020600020016000909190919091505582600001805490508360010160008481526020019081526020016000208190555060019050610e00565b600090505b92915050565b60008083600101600084815260200190815260200160002054905060008114610f0e576000600182610e389190611ba9565b9050600060018660000180549050610e509190611ba9565b9050818114610ebf576000866000018281548110610e7157610e7061157a565b5b9060005260206000200154905080876000018481548110610e9557610e9461157a565b5b90600052602060002001819055508387600101600083815260200190815260200160002081905550505b85600001805480610ed357610ed2611bdd565b5b600190038181906000526020600020016000905590558560010160008681526020019081526020016000206000905560019350505050610f14565b60009150505b92915050565b6040518060800160405280600073ffffffffffffffffffffffffffffffffffffffff168152602001600073ffffffffffffffffffffffffffffffffffffffff16815260200160608152602001600081525090565b508054610f7a906116a2565b6000825580601f10610f8c5750610fab565b601f016020900490600052602060002090810190610faa9190610fae565b5b50565b5b80821115610fc7576000816000905550600101610faf565b5090565b6000604051905090565b600080fd5b600080fd5b600073ffffffffffffffffffffffffffffffffffffffff82169050919050565b600061100a82610fdf565b9050919050565b61101a81610fff565b811461102557600080fd5b50565b60008135905061103781611011565b92915050565b600080fd5b600080fd5b6000601f19601f8301169050919050565b7f4e487b7100000000000000000000000000000000000000000000000000000000600052604160045260246000fd5b61109082611047565b810181811067ffffffffffffffff821117156110af576110ae611058565b5b80604052505050565b60006110c2610fcb565b90506110ce8282611087565b919050565b600067ffffffffffffffff8211156110ee576110ed611058565b5b6110f782611047565b9050602081019050919050565b82818337600083830152505050565b6000611126611121846110d3565b6110b8565b90508281526020810184848401111561114257611141611042565b5b61114d848285611104565b509392505050565b600082601f83011261116a5761116961103d565b5b813561117a848260208601611113565b91505092915050565b60008060006060848603121561119c5761119b610fd5565b5b60006111aa86828701611028565b93505060206111bb86828701611028565b925050604084013567ffffffffffffffff8111156111dc576111db610fda565b5b6111e886828701611155565b9150509250925092565b600081519050919050565b600082825260208201905092915050565b6000819050602082019050919050565b61122781610fff565b82525050565b600081519050919050565b600082825260208201905092915050565b60005b8381101561126757808201518184015260208101905061124c565b60008484015250505050565b600061127e8261122d565b6112888185611238565b9350611298818560208601611249565b6112a181611047565b840191505092915050565b6000819050919050565b6112bf816112ac565b82525050565b60006080830160008301516112dd600086018261121e565b5060208301516112f0602086018261121e565b50604083015184820360408601526113088282611273565b915050606083015161131d60608601826112b6565b508091505092915050565b600061133483836112c5565b905092915050565b6000602082019050919050565b6000611354826111f2565b61135e81856111fd565b9350836020820285016113708561120e565b8060005b858110156113ac578484038952815161138d8582611328565b94506113988361133c565b925060208a01995050600181019050611374565b50829750879550505050505092915050565b600060208201905081810360008301526113d88184611349565b905092915050565b6113e9816112ac565b81146113f457600080fd5b50565b600081359050611406816113e0565b92915050565b60008060006060848603121561142557611424610fd5565b5b600061143386828701611028565b935050602084013567ffffffffffffffff81111561145457611453610fda565b5b61146086828701611155565b9250506040611471868287016113f7565b9150509250925092565b6000806040838503121561149257611491610fd5565b5b60006114a085828601611028565b925050602083013567ffffffffffffffff8111156114c1576114c0610fda565b5b6114cd85828601611155565b9150509250929050565b600082825260208201905092915050565b7f596f75206d7573742070726f7669646520736f6d65207365617263682063726960008201527f7465726961000000000000000000000000000000000000000000000000000000602082015250565b60006115446025836114d7565b915061154f826114e8565b604082019050919050565b6000602082019050818103600083015261157381611537565b9050919050565b7f4e487b7100000000000000000000000000000000000000000000000000000000600052603260045260246000fd5b600081905092915050565b60006115bf8261122d565b6115c981856115a9565b93506115d9818560208601611249565b80840191505092915050565b60006115f182846115b4565b915081905092915050565b7f4e487b7100000000000000000000000000000000000000000000000000000000600052601160045260246000fd5b6000611636826112ac565b91507fffffffffffffffffffffffffffffffffffffffffffffffffffffffffffffffff8203611668576116676115fc565b5b600182019050919050565b7f4e487b7100000000000000000000000000000000000000000000000000000000600052602260045260246000fd5b600060028204905060018216806116ba57607f821691505b6020821081036116cd576116cc611673565b5b50919050565b7f4772616e7420616c726561647920657869737473000000000000000000000000600082015250565b60006117096014836114d7565b9150611714826116d3565b602082019050919050565b60006020820190508181036000830152611738816116fc565b9050919050565b60008190508160005260206000209050919050565b60006020601f8301049050919050565b600082821b905092915050565b6000600883026117a17fffffffffffffffffffffffffffffffffffffffffffffffffffffffffffffffff82611764565b6117ab8683611764565b95508019841693508086168417925050509392505050565b6000819050919050565b60006117e86117e36117de846112ac565b6117c3565b6112ac565b9050919050565b6000819050919050565b611802836117cd565b61181661180e826117ef565b848454611771565b825550505050565b600090565b61182b61181e565b6118368184846117f9565b505050565b5b8181101561185a5761184f600082611823565b60018101905061183c565b5050565b601f82111561189f576118708161173f565b61187984611754565b81016020851015611888578190505b61189c61189485611754565b83018261183b565b50505b505050565b600082821c905092915050565b60006118c2600019846008026118a4565b1980831691505092915050565b60006118db83836118b1565b9150826002028217905092915050565b6118f48261122d565b67ffffffffffffffff81111561190d5761190c611058565b5b61191782546116a2565b61192282828561185e565b600060209050601f8311600181146119555760008415611943578287015190505b61194d85826118cf565b8655506119b5565b601f1984166119638661173f565b60005b8281101561198b57848901518255600182019150602085019450602081019050611966565b868310156119a857848901516119a4601f8916826118b1565b8355505b6001600288020188555050505b505050505050565b7f4e6f206772616e747320666f722073656e646572000000000000000000000000600082015250565b60006119f36014836114d7565b91506119fe826119bd565b602082019050919050565b60006020820190508181036000830152611a22816119e6565b9050919050565b7f4772616e742069732074696d656c6f636b656400000000000000000000000000600082015250565b6000611a5f6013836114d7565b9150611a6a82611a29565b602082019050919050565b60006020820190508181036000830152611a8e81611a52565b9050919050565b7f3000000000000000000000000000000000000000000000000000000000000000600082015250565b6000611acb6001836115a9565b9150611ad682611a95565b600182019050919050565b6000611aec82611abe565b9150819050919050565b60008160601b9050919050565b6000611b0e82611af6565b9050919050565b6000611b2082611b03565b9050919050565b611b38611b3382610fff565b611b15565b82525050565b6000819050919050565b611b59611b54826112ac565b611b3e565b82525050565b6000611b6b8287611b27565b601482019150611b7b8286611b27565b601482019150611b8b82856115b4565b9150611b978284611b48565b60208201915081905095945050505050565b6000611bb4826112ac565b9150611bbf836112ac565b9250828203905081811115611bd757611bd66115fc565b5b92915050565b7f4e487b7100000000000000000000000000000000000000000000000000000000600052603160045260246000fdfea26469706673582212207a596248c70df90b97f2ade45ea0a861aed049844635ea2f9697e2d85524fd4464736f6c63430008130033",
  "linkReferences": {},
  "deployedLinkReferences": {}
}