{
  "_format": "hh-sol-artifact-1",
  "contractName": "AccessGrantsV2",
  "sourceName": "contracts/AccessGrantsV2.sol",
  "abi": [
    {
      "inputs": [],
      "stateMutability": "nonpayable",
      "type": "constructor"
    },
    {
      "inputs": [
        {
          "internalType": "address",
          "name": "target",
          "type": "address"
        }
      ],
      "name": "AddressEmptyCode",
      "type": "error"
    },
    {
      "inputs": [
        {
          "internalType": "address",
          "name": "implementation",
          "type": "address"
        }
      ],
      "name": "ERC1967InvalidImplementation",
      "type": "error"
    },
    {
      "inputs": [],
      "name": "ERC1967NonPayable",
      "type": "error"
    },
    {
      "inputs": [],
      "name": "FailedInnerCall",
      "type": "error"
    },
    {
      "inputs": [],
      "name": "InvalidInitialization",
      "type": "error"
    },
    {
      "inputs": [],
      "name": "NotInitializing",
      "type": "error"
    },
    {
      "inputs": [
        {
          "internalType": "address",
          "name": "owner",
          "type": "address"
        }
      ],
      "name": "OwnableInvalidOwner",
      "type": "error"
    },
    {
      "inputs": [
        {
          "internalType": "address",
          "name": "account",
          "type": "address"
        }
      ],
      "name": "OwnableUnauthorizedAccount",
      "type": "error"
    },
    {
      "inputs": [
        {
          "internalType": "uint256",
          "name": "value",
          "type": "uint256"
        },
        {
          "internalType": "uint256",
          "name": "length",
          "type": "uint256"
        }
      ],
      "name": "StringsInsufficientHexLength",
      "type": "error"
    },
    {
      "inputs": [],
      "name": "UUPSUnauthorizedCallContext",
      "type": "error"
    },
    {
      "inputs": [
        {
          "internalType": "bytes32",
          "name": "slot",
          "type": "bytes32"
        }
      ],
      "name": "UUPSUnsupportedProxiableUUID",
      "type": "error"
    },
    {
      "anonymous": false,
      "inputs": [
        {
          "indexed": true,
          "internalType": "address",
          "name": "owner",
          "type": "address"
        },
        {
          "indexed": true,
          "internalType": "address",
          "name": "grantee",
          "type": "address"
        },
        {
          "indexed": false,
          "internalType": "string",
          "name": "dataId",
          "type": "string"
        },
        {
          "indexed": false,
          "internalType": "uint256",
          "name": "lockedUntil",
          "type": "uint256"
        }
      ],
      "name": "GrantAdded",
      "type": "event"
    },
    {
      "anonymous": false,
      "inputs": [
        {
          "indexed": true,
          "internalType": "address",
          "name": "owner",
          "type": "address"
        },
        {
          "indexed": true,
          "internalType": "address",
          "name": "grantee",
          "type": "address"
        },
        {
          "indexed": false,
          "internalType": "string",
          "name": "dataId",
          "type": "string"
        },
        {
          "indexed": false,
          "internalType": "uint256",
          "name": "lockedUntil",
          "type": "uint256"
        }
      ],
      "name": "GrantDeleted",
      "type": "event"
    },
    {
      "anonymous": false,
      "inputs": [
        {
          "indexed": false,
          "internalType": "uint64",
          "name": "version",
          "type": "uint64"
        }
      ],
      "name": "Initialized",
      "type": "event"
    },
    {
      "anonymous": false,
      "inputs": [
        {
          "indexed": true,
          "internalType": "address",
          "name": "previousOwner",
          "type": "address"
        },
        {
          "indexed": true,
          "internalType": "address",
          "name": "newOwner",
          "type": "address"
        }
      ],
      "name": "OwnershipTransferred",
      "type": "event"
    },
    {
      "anonymous": false,
      "inputs": [
        {
          "indexed": true,
          "internalType": "address",
          "name": "implementation",
          "type": "address"
        }
      ],
      "name": "Upgraded",
      "type": "event"
    },
    {
      "inputs": [],
      "name": "UPGRADE_INTERFACE_VERSION",
      "outputs": [
        {
          "internalType": "string",
          "name": "",
          "type": "string"
        }
      ],
      "stateMutability": "view",
      "type": "function"
    },
    {
      "inputs": [
        {
          "internalType": "address",
          "name": "grantee",
          "type": "address"
        },
        {
          "internalType": "string",
          "name": "dataId",
          "type": "string"
        },
        {
          "internalType": "uint256",
          "name": "lockedUntil",
          "type": "uint256"
        }
      ],
      "name": "deleteGrant",
      "outputs": [],
      "stateMutability": "nonpayable",
      "type": "function"
    },
    {
      "inputs": [
        {
          "internalType": "address",
          "name": "owner",
          "type": "address"
        },
        {
          "internalType": "address",
          "name": "grantee",
          "type": "address"
        },
        {
          "internalType": "string",
          "name": "dataId",
          "type": "string"
        },
        {
          "internalType": "uint256",
          "name": "lockedUntil",
          "type": "uint256"
        },
        {
          "internalType": "bytes",
          "name": "signature",
          "type": "bytes"
        }
      ],
      "name": "deleteGrantBySignature",
      "outputs": [],
      "stateMutability": "nonpayable",
      "type": "function"
    },
    {
      "inputs": [
        {
          "internalType": "address",
          "name": "owner",
          "type": "address"
        },
        {
          "internalType": "address",
          "name": "grantee",
          "type": "address"
        },
        {
          "internalType": "string",
          "name": "dataId",
          "type": "string"
        },
        {
          "internalType": "uint256",
          "name": "lockedUntil",
          "type": "uint256"
        }
      ],
      "name": "deleteGrantBySignatureMessage",
      "outputs": [
        {
          "internalType": "string",
          "name": "",
          "type": "string"
        }
      ],
      "stateMutability": "pure",
      "type": "function"
    },
    {
      "inputs": [
        {
          "internalType": "address",
          "name": "owner",
          "type": "address"
        },
        {
          "internalType": "address",
          "name": "grantee",
          "type": "address"
        },
        {
          "internalType": "string",
          "name": "dataId",
          "type": "string"
        }
      ],
      "name": "findGrants",
      "outputs": [
        {
          "components": [
            {
              "internalType": "address",
              "name": "owner",
              "type": "address"
            },
            {
              "internalType": "address",
              "name": "grantee",
              "type": "address"
            },
            {
              "internalType": "string",
              "name": "dataId",
              "type": "string"
            },
            {
              "internalType": "uint256",
              "name": "lockedUntil",
              "type": "uint256"
            }
          ],
          "internalType": "struct AccessGrantsV2.Grant[]",
          "name": "",
          "type": "tuple[]"
        }
      ],
      "stateMutability": "view",
      "type": "function"
    },
    {
      "inputs": [
        {
          "internalType": "address",
          "name": "grantee",
          "type": "address"
        },
        {
          "internalType": "string",
          "name": "dataId",
          "type": "string"
        }
      ],
      "name": "grantsFor",
      "outputs": [
        {
          "components": [
            {
              "internalType": "address",
              "name": "owner",
              "type": "address"
            },
            {
              "internalType": "address",
              "name": "grantee",
              "type": "address"
            },
            {
              "internalType": "string",
              "name": "dataId",
              "type": "string"
            },
            {
              "internalType": "uint256",
              "name": "lockedUntil",
              "type": "uint256"
            }
          ],
          "internalType": "struct AccessGrantsV2.Grant[]",
          "name": "",
          "type": "tuple[]"
        }
      ],
      "stateMutability": "view",
      "type": "function"
    },
    {
      "inputs": [],
      "name": "initialize",
      "outputs": [],
      "stateMutability": "nonpayable",
      "type": "function"
    },
    {
      "inputs": [
        {
          "internalType": "address",
          "name": "grantee",
          "type": "address"
        },
        {
          "internalType": "string",
          "name": "dataId",
          "type": "string"
        },
        {
          "internalType": "uint256",
          "name": "lockedUntil",
          "type": "uint256"
        }
      ],
      "name": "insertGrant",
      "outputs": [],
      "stateMutability": "nonpayable",
      "type": "function"
    },
    {
      "inputs": [
        {
          "internalType": "address",
          "name": "owner",
          "type": "address"
        },
        {
          "internalType": "address",
          "name": "grantee",
          "type": "address"
        },
        {
          "internalType": "string",
          "name": "dataId",
          "type": "string"
        },
        {
          "internalType": "uint256",
          "name": "lockedUntil",
          "type": "uint256"
        },
        {
          "internalType": "bytes",
          "name": "signature",
          "type": "bytes"
        }
      ],
      "name": "insertGrantBySignature",
      "outputs": [],
      "stateMutability": "nonpayable",
      "type": "function"
    },
    {
      "inputs": [
        {
          "internalType": "address",
          "name": "owner",
          "type": "address"
        },
        {
          "internalType": "address",
          "name": "grantee",
          "type": "address"
        },
        {
          "internalType": "string",
          "name": "dataId",
          "type": "string"
        },
        {
          "internalType": "uint256",
          "name": "lockedUntil",
          "type": "uint256"
        }
      ],
      "name": "insertGrantBySignatureMessage",
      "outputs": [
        {
          "internalType": "string",
          "name": "",
          "type": "string"
        }
      ],
      "stateMutability": "pure",
      "type": "function"
    },
    {
      "inputs": [],
      "name": "owner",
      "outputs": [
        {
          "internalType": "address",
          "name": "",
          "type": "address"
        }
      ],
      "stateMutability": "view",
      "type": "function"
    },
    {
      "inputs": [],
      "name": "ping",
      "outputs": [
        {
          "internalType": "string",
          "name": "",
          "type": "string"
        }
      ],
      "stateMutability": "pure",
      "type": "function"
    },
    {
      "inputs": [],
      "name": "proxiableUUID",
      "outputs": [
        {
          "internalType": "bytes32",
          "name": "",
          "type": "bytes32"
        }
      ],
      "stateMutability": "view",
      "type": "function"
    },
    {
      "inputs": [],
      "name": "renounceOwnership",
      "outputs": [],
      "stateMutability": "nonpayable",
      "type": "function"
    },
    {
      "inputs": [
        {
          "internalType": "address",
          "name": "newOwner",
          "type": "address"
        }
      ],
      "name": "transferOwnership",
      "outputs": [],
      "stateMutability": "nonpayable",
      "type": "function"
    },
    {
      "inputs": [
        {
          "internalType": "address",
          "name": "newImplementation",
          "type": "address"
        },
        {
          "internalType": "bytes",
          "name": "data",
          "type": "bytes"
        }
      ],
      "name": "upgradeToAndCall",
      "outputs": [],
      "stateMutability": "payable",
      "type": "function"
    }
  ],
  "bytecode": "0x60a06040523060805234801562000014575f80fd5b506200001f62000025565b620000d9565b7ff0c57e16840df040f15088dc2f81fe391c3923bec73e23a9662efc9c229c6a00805468010000000000000000900460ff1615620000765760405163f92ee8a960e01b815260040160405180910390fd5b80546001600160401b0390811614620000d65780546001600160401b0319166001600160401b0390811782556040519081527fc7f505b2f371ae2175ee4913f4499e1f2633a7b5936321eed1cdaeb6115181d29060200160405180910390a15b50565b6080516127c0620001005f395f8181610f3101528181610f5a01526110d801526127c05ff3fe6080604052600436106100ef575f3560e01c80638129fc1c11610087578063b25875b911610057578063b25875b9146102e3578063b7dd886514610302578063c28c652414610321578063f2fde38b14610340575f80fd5b80638129fc1c146102225780638da5cb5b14610236578063ad3cb1cc1461027c578063b14d52d5146102c4575f80fd5b806352d1902d116100c257806352d1902d1461017b5780635c36b1861461019d578063715018a6146101e25780637e0cc3a2146101f6575f80fd5b8063236c7062146100f35780632ae12052146101285780634ba0b062146101475780634f1ef28614610168575b5f80fd5b3480156100fe575f80fd5b5061011261010d366004611e9c565b61035f565b60405161011f9190611f4d565b60405180910390f35b348015610133575f80fd5b50610112610142366004611e9c565b6103ac565b348015610152575f80fd5b50610166610161366004611f5f565b6103df565b005b61016661017636600461207a565b61049a565b348015610186575f80fd5b5061018f6104b9565b60405190815260200161011f565b3480156101a8575f80fd5b5060408051808201909152600481527f706f6e67000000000000000000000000000000000000000000000000000000006020820152610112565b3480156101ed575f80fd5b506101666104e7565b348015610201575f80fd5b506102156102103660046120f6565b6104fa565b60405161011f9190612150565b34801561022d575f80fd5b50610166610944565b348015610241575f80fd5b507f9016d09d72d40fdae2fd8ceac6b6234c7706214fd39c1cd1e609a0528c199300546040516001600160a01b03909116815260200161011f565b348015610287575f80fd5b506101126040518060400160405280600581526020017f352e302e3000000000000000000000000000000000000000000000000000000081525081565b3480156102cf575f80fd5b506101666102de3660046121e7565b610a7e565b3480156102ee575f80fd5b506101666102fd366004611f5f565b610a91565b34801561030d575f80fd5b5061021561031c36600461223d565b610b33565b34801561032c575f80fd5b5061016661033b36600461227e565b610b49565b34801561034b575f80fd5b5061016661035a3660046122d1565b610b5a565b606061036a86610bb0565b61037386610bb0565b858561037e86610bc6565b604051602001610392959493929190612313565b604051602081830303815290604052905095945050505050565b60606103b786610bb0565b6103c086610bb0565b85856103cb86610bc6565b604051602001610392959493929190612434565b610433876103f86103f38a8a8a8a8a6103ac565b610c63565b84848080601f0160208091040260200160405190810160405280939291908181526020018383808284375f92019190915250610c9d92505050565b6104845760405162461bcd60e51b815260206004820152601760248201527f5369676e617475726520646f65736e2774206d6174636800000000000000000060448201526064015b60405180910390fd5b6104918787878787610cfc565b50505050505050565b6104a2610f26565b6104ab82610fdd565b6104b58282610fe5565b5050565b5f6104c26110cd565b507f360894a13ba1a3210667c828492db98dca3e2076cc3735a920a3ca505d382bbc90565b6104ef611116565b6104f85f61118a565b565b6060805f6001600160a01b03861615610557576001600160a01b0386165f90815260016020526040902061052d90611207565b6001600160a01b0387165f90815260016020526040902090925061055090611213565b9050610617565b6001600160a01b038516156105a9576001600160a01b0385165f90815260026020526040902061058690611207565b6001600160a01b0386165f90815260026020526040902090925061055090611213565b60405162461bcd60e51b815260206004820152602b60248201527f526571756972656420617267756d656e743a20606f776e65726020616e642f6f60448201527f7220606772616e74656560000000000000000000000000000000000000000000606482015260840161047b565b5f808267ffffffffffffffff81111561063257610632611ff3565b60405190808252806020026020018201604052801561065b578160200160208202803683370190505b5090505f5b83811015610750575f85828151811061067b5761067b612486565b602002602001015190505f806001600160a01b03168a6001600160a01b031614806106c257506001600160a01b038a165f9081526002602052604090206106c2908361121c565b801561070157506106d289611233565b8061070157506107018260038b6040516106ec919061249a565b9081526040519081900360200190209061121c565b9050801561073b5784610713816124c9565b955050600184848151811061072a5761072a612486565b911515602092830291909101909101525b50508080610748906124c9565b915050610660565b505f8267ffffffffffffffff81111561076b5761076b611ff3565b6040519080825280602002602001820160405280156107d657816020015b6107c360405180608001604052805f6001600160a01b031681526020015f6001600160a01b03168152602001606081526020015f81525090565b8152602001906001900390816107895790505b5090505f805b85811015610933578381815181106107f6576107f6612486565b602002602001015115610921575f8088838151811061081757610817612486565b60209081029190910181015182528181019290925260409081015f20815160808101835281546001600160a01b03908116825260018301541693810193909352600281018054919284019161086b906124e1565b80601f0160208091040260200160405190810160405280929190818152602001828054610897906124e1565b80156108e25780601f106108b9576101008083540402835291602001916108e2565b820191905f5260205f20905b8154815290600101906020018083116108c557829003601f168201915b5050505050815260200160038201548152505083838151811061090757610907612486565b6020026020010181905250818061091d906124c9565b9250505b8061092b816124c9565b9150506107dc565b5090955050505050505b9392505050565b7ff0c57e16840df040f15088dc2f81fe391c3923bec73e23a9662efc9c229c6a00805468010000000000000000810460ff16159067ffffffffffffffff165f8115801561098e5750825b90505f8267ffffffffffffffff1660011480156109aa5750303b155b9050811580156109b8575080155b156109ef576040517ff92ee8a900000000000000000000000000000000000000000000000000000000815260040160405180910390fd5b845467ffffffffffffffff191660011785558315610a2357845468ff00000000000000001916680100000000000000001785555b610a2c3361128a565b8315610a7757845468ff000000000000000019168555604051600181527fc7f505b2f371ae2175ee4913f4499e1f2633a7b5936321eed1cdaeb6115181d29060200160405180910390a15b5050505050565b610a8b3385858585610cfc565b50505050565b610aa5876103f86103f38a8a8a8a8a61035f565b610af15760405162461bcd60e51b815260206004820152601760248201527f5369676e617475726520646f65736e2774206d61746368000000000000000000604482015260640161047b565b610491878787878080601f0160208091040260200160405190810160405280939291908181526020018383808284375f9201919091525089925061129b915050565b6060610b405f84846104fa565b90505b92915050565b610b553384848461129b565b505050565b610b62611116565b6001600160a01b038116610ba4576040517f1e4fbdf70000000000000000000000000000000000000000000000000000000081525f600482015260240161047b565b610bad8161118a565b50565b6060610b436001600160a01b03831660146114ec565b60605f610bd2836116a8565b60010190505f8167ffffffffffffffff811115610bf157610bf1611ff3565b6040519080825280601f01601f191660200182016040528015610c1b576020820181803683370190505b5090508181016020015b5f19017f3031323334353637383961626364656600000000000000000000000000000000600a86061a8153600a8504945084610c2557509392505050565b5f610c6e8251610bc6565b82604051602001610c80929190612519565b604051602081830303815290604052805190602001209050919050565b5f805f610caa8585611789565b5090925090505f816003811115610cc357610cc3612573565b148015610ce15750856001600160a01b0316826001600160a01b0316145b80610cf25750610cf28686866117d2565b9695505050505050565b5f6040518060800160405280876001600160a01b03168152602001866001600160a01b0316815260200185858080601f0160208091040260200160405190810160405280939291908181526020018383808284375f9201829052509385525050506020909101849052909150610d71826118bd565b5f818152602081905260409020549091506001600160a01b031615610dd85760405162461bcd60e51b815260206004820152601460248201527f4772616e7420616c726561647920657869737473000000000000000000000000604482015260640161047b565b5f81815260208181526040918290208451815473ffffffffffffffffffffffffffffffffffffffff199081166001600160a01b0392831617835592860151600183018054909416911617909155908301518391906002820190610e3b90826125cc565b506060919091015160039091015581516001600160a01b03165f908152600160205260409020610e6b90826118e4565b506020808301516001600160a01b03165f908152600290915260409020610e9290826118e4565b50610ec08160038460400151604051610eab919061249a565b908152604051908190036020019020906118e4565b5081602001516001600160a01b0316825f01516001600160a01b03167faa11b1607ce40799434b358e476f60277b9c8879ca956534f8f185a8b7e227a784604001518560600151604051610f15929190612688565b60405180910390a350505050505050565b306001600160a01b037f0000000000000000000000000000000000000000000000000000000000000000161480610fbf57507f00000000000000000000000000000000000000000000000000000000000000006001600160a01b0316610fb37f360894a13ba1a3210667c828492db98dca3e2076cc3735a920a3ca505d382bbc546001600160a01b031690565b6001600160a01b031614155b156104f85760405163703e46dd60e11b815260040160405180910390fd5b610bad611116565b816001600160a01b03166352d1902d6040518163ffffffff1660e01b8152600401602060405180830381865afa92505050801561103f575060408051601f3d908101601f1916820190925261103c918101906126a9565b60015b61106757604051634c9c8ce360e01b81526001600160a01b038316600482015260240161047b565b7f360894a13ba1a3210667c828492db98dca3e2076cc3735a920a3ca505d382bbc81146110c3576040517faa1d49a40000000000000000000000000000000000000000000000000000000081526004810182905260240161047b565b610b5583836118ef565b306001600160a01b037f000000000000000000000000000000000000000000000000000000000000000016146104f85760405163703e46dd60e11b815260040160405180910390fd5b336111487f9016d09d72d40fdae2fd8ceac6b6234c7706214fd39c1cd1e609a0528c199300546001600160a01b031690565b6001600160a01b0316146104f8576040517f118cdaa700000000000000000000000000000000000000000000000000000000815233600482015260240161047b565b7f9016d09d72d40fdae2fd8ceac6b6234c7706214fd39c1cd1e609a0528c199300805473ffffffffffffffffffffffffffffffffffffffff1981166001600160a01b03848116918217845560405192169182907f8be0079c531659141344cd1fd0a4f28419497f9722a3daafe3b4186f6b6457e0905f90a3505050565b60605f61093d83611944565b5f610b43825490565b5f8181526001830160205260408120541515610b40565b604051600360fc1b60208201525f90602101604051602081830303815290604052805190602001208260405160200161126c919061249a565b60405160208183030381529060405280519060200120149050919050565b61129261199d565b610bad81611a04565b5f6112a78585856104fa565b90505f8151116112f95760405162461bcd60e51b815260206004820152601360248201527f4e6f206772616e747320666f72206f776e657200000000000000000000000000604482015260640161047b565b5f5b81518110156114e4575f82828151811061131757611317612486565b60200260200101519050835f148061134b57508383838151811061133d5761133d612486565b602002602001015160600151145b156114d157428160600151106113a35760405162461bcd60e51b815260206004820152601360248201527f4772616e742069732074696d656c6f636b656400000000000000000000000000604482015260640161047b565b5f6113ad826118bd565b5f818152602081905260408120805473ffffffffffffffffffffffffffffffffffffffff19908116825560018201805490911690559192506113f26002830182611df2565b505f60039190910181905582516001600160a01b0316815260016020526040902061141d9082611a0c565b506020808301516001600160a01b03165f9081526002909152604090206114449082611a0c565b50611472816003846040015160405161145d919061249a565b90815260405190819003602001902090611a0c565b5081602001516001600160a01b0316825f01516001600160a01b03167ffeff9850709af031b875a6b4bea72ef38f7679e252a8aeecd4d176225b1ee323846040015185606001516040516114c7929190612688565b60405180910390a3505b50806114dc816124c9565b9150506112fb565b505050505050565b6060825f6114fb8460026126c0565b6115069060026126d7565b67ffffffffffffffff81111561151e5761151e611ff3565b6040519080825280601f01601f191660200182016040528015611548576020820181803683370190505b509050600360fc1b815f8151811061156257611562612486565b60200101906001600160f81b03191690815f1a9053507f7800000000000000000000000000000000000000000000000000000000000000816001815181106115ac576115ac612486565b60200101906001600160f81b03191690815f1a9053505f6115ce8560026126c0565b6115d99060016126d7565b90505b600181111561165d577f303132333435363738396162636465660000000000000000000000000000000083600f166010811061161a5761161a612486565b1a60f81b82828151811061163057611630612486565b60200101906001600160f81b03191690815f1a90535060049290921c91611656816126ea565b90506115dc565b5081156116a0576040517fe22e27eb000000000000000000000000000000000000000000000000000000008152600481018690526024810185905260440161047b565b949350505050565b5f807a184f03e93ff9f4daa797ed6e38ed64bf6a1f01000000000000000083106116f0577a184f03e93ff9f4daa797ed6e38ed64bf6a1f010000000000000000830492506040015b6d04ee2d6d415b85acef8100000000831061171c576d04ee2d6d415b85acef8100000000830492506020015b662386f26fc10000831061173a57662386f26fc10000830492506010015b6305f5e1008310611752576305f5e100830492506008015b612710831061176657612710830492506004015b60648310611778576064830492506002015b600a8310610b435760010192915050565b5f805f83516041036117c0576020840151604085015160608601515f1a6117b288828585611a17565b9550955095505050506117cb565b505081515f91506002905b9250925092565b5f805f856001600160a01b031685856040516024016117f29291906126ff565b60408051601f198184030181529181526020820180517bffffffffffffffffffffffffffffffffffffffffffffffffffffffff16630b135d3f60e11b1790525161183c919061249a565b5f60405180830381855afa9150503d805f8114611874576040519150601f19603f3d011682016040523d82523d5f602084013e611879565b606091505b509150915081801561188d57506020815110155b8015610cf257508051630b135d3f60e11b906118b290830160209081019084016126a9565b149695505050505050565b5f815f0151826020015183604001518460600151604051602001610c809493929190612717565b5f610b408383611adf565b6118f882611b2b565b6040516001600160a01b038316907fbc7cd75a20ee27fd9adebab32041f755214dbc6bffa90cc0225b39da2e5c2d3b905f90a280511561193c57610b558282611bae565b6104b5611c20565b6060815f0180548060200260200160405190810160405280929190818152602001828054801561199157602002820191905f5260205f20905b81548152602001906001019080831161197d575b50505050509050919050565b7ff0c57e16840df040f15088dc2f81fe391c3923bec73e23a9662efc9c229c6a005468010000000000000000900460ff166104f8576040517fd7e6bcf800000000000000000000000000000000000000000000000000000000815260040160405180910390fd5b610b6261199d565b5f610b408383611c58565b5f80807f7fffffffffffffffffffffffffffffff5d576e7357a4501ddfe92f46681b20a0841115611a5057505f91506003905082611ad5565b604080515f808252602082018084528a905260ff891692820192909252606081018790526080810186905260019060a0016020604051602081039080840390855afa158015611aa1573d5f803e3d5ffd5b5050604051601f1901519150506001600160a01b038116611acc57505f925060019150829050611ad5565b92505f91508190505b9450945094915050565b5f818152600183016020526040812054611b2457508154600181810184555f848152602080822090930184905584548482528286019093526040902091909155610b43565b505f610b43565b806001600160a01b03163b5f03611b6057604051634c9c8ce360e01b81526001600160a01b038216600482015260240161047b565b7f360894a13ba1a3210667c828492db98dca3e2076cc3735a920a3ca505d382bbc805473ffffffffffffffffffffffffffffffffffffffff19166001600160a01b0392909216919091179055565b60605f80846001600160a01b031684604051611bca919061249a565b5f60405180830381855af49150503d805f8114611c02576040519150601f19603f3d011682016040523d82523d5f602084013e611c07565b606091505b5091509150611c17858383611d3b565b95945050505050565b34156104f8576040517fb398979f00000000000000000000000000000000000000000000000000000000815260040160405180910390fd5b5f8181526001830160205260408120548015611d32575f611c7a600183612763565b85549091505f90611c8d90600190612763565b9050808214611cec575f865f018281548110611cab57611cab612486565b905f5260205f200154905080875f018481548110611ccb57611ccb612486565b5f918252602080832090910192909255918252600188019052604090208390555b8554869080611cfd57611cfd612776565b600190038181905f5260205f20015f90559055856001015f8681526020019081526020015f205f905560019350505050610b43565b5f915050610b43565b606082611d5057611d4b82611db0565b61093d565b8151158015611d6757506001600160a01b0384163b155b15611da9576040517f9996b3150000000000000000000000000000000000000000000000000000000081526001600160a01b038516600482015260240161047b565b508061093d565b805115611dc05780518082602001fd5b6040517f1425ea4200000000000000000000000000000000000000000000000000000000815260040160405180910390fd5b508054611dfe906124e1565b5f825580601f10611e0d575050565b601f0160209004905f5260205f2090810190610bad91905b80821115611e38575f8155600101611e25565b5090565b80356001600160a01b0381168114611e52575f80fd5b919050565b5f8083601f840112611e67575f80fd5b50813567ffffffffffffffff811115611e7e575f80fd5b602083019150836020828501011115611e95575f80fd5b9250929050565b5f805f805f60808688031215611eb0575f80fd5b611eb986611e3c565b9450611ec760208701611e3c565b9350604086013567ffffffffffffffff811115611ee2575f80fd5b611eee88828901611e57565b96999598509660600135949350505050565b5f5b83811015611f1a578181015183820152602001611f02565b50505f910152565b5f8151808452611f39816020860160208601611f00565b601f01601f19169290920160200192915050565b602081525f610b406020830184611f22565b5f805f805f805f60a0888a031215611f75575f80fd5b611f7e88611e3c565b9650611f8c60208901611e3c565b9550604088013567ffffffffffffffff80821115611fa8575f80fd5b611fb48b838c01611e57565b909750955060608a0135945060808a0135915080821115611fd3575f80fd5b50611fe08a828b01611e57565b989b979a50959850939692959293505050565b634e487b7160e01b5f52604160045260245ffd5b5f67ffffffffffffffff8084111561202157612021611ff3565b604051601f8501601f19908116603f0116810190828211818310171561204957612049611ff3565b81604052809350858152868686011115612061575f80fd5b858560208301375f602087830101525050509392505050565b5f806040838503121561208b575f80fd5b61209483611e3c565b9150602083013567ffffffffffffffff8111156120af575f80fd5b8301601f810185136120bf575f80fd5b6120ce85823560208401612007565b9150509250929050565b5f82601f8301126120e7575f80fd5b610b4083833560208501612007565b5f805f60608486031215612108575f80fd5b61211184611e3c565b925061211f60208501611e3c565b9150604084013567ffffffffffffffff81111561213a575f80fd5b612146868287016120d8565b9150509250925092565b5f6020808301818452808551808352604092508286019150828160051b8701018488015f5b838110156121d957603f19898403018552815160806001600160a01b03808351168652808a840151168a870152508782015181898701526121b882870182611f22565b60609384015196909301959095525094870194925090860190600101612175565b509098975050505050505050565b5f805f80606085870312156121fa575f80fd5b61220385611e3c565b9350602085013567ffffffffffffffff81111561221e575f80fd5b61222a87828801611e57565b9598909750949560400135949350505050565b5f806040838503121561224e575f80fd5b61225783611e3c565b9150602083013567ffffffffffffffff811115612272575f80fd5b6120ce858286016120d8565b5f805f60608486031215612290575f80fd5b61229984611e3c565b9250602084013567ffffffffffffffff8111156122b4575f80fd5b6122c0868287016120d8565b925050604084013590509250925092565b5f602082840312156122e1575f80fd5b610b4082611e3c565b5f81516122fb818560208601611f00565b9290920192915050565b81818437505f910190815290565b7f6f7065726174696f6e3a2064656c6574654772616e740000000000000000000081525f600560f91b80601684015266037bbb732b91d160cd1b6017840152875161236581601e860160208c01611f00565b808401905081601e8201527f6772616e7465653a200000000000000000000000000000000000000000000000601f82015287516123a9816028840160208c01611f00565b01602881018290527f6461746149643a2000000000000000000000000000000000000000000000000060298201526123e5603182018789612305565b9150506123f581600560f91b9052565b7f6c6f636b6564556e74696c3a20000000000000000000000000000000000000006001820152612428600e8201856122ea565b98975050505050505050565b7f6f7065726174696f6e3a20696e736572744772616e740000000000000000000081525f600560f91b80601684015266037bbb732b91d160cd1b6017840152875161236581601e860160208c01611f00565b634e487b7160e01b5f52603260045260245ffd5b5f82516124ab818460208701611f00565b9190910192915050565b634e487b7160e01b5f52601160045260245ffd5b5f600182016124da576124da6124b5565b5060010190565b600181811c908216806124f557607f821691505b60208210810361251357634e487b7160e01b5f52602260045260245ffd5b50919050565b7f19457468657265756d205369676e6564204d6573736167653a0a00000000000081525f835161255081601a850160208801611f00565b83519083019061256781601a840160208801611f00565b01601a01949350505050565b634e487b7160e01b5f52602160045260245ffd5b601f821115610b55575f81815260208120601f850160051c810160208610156125ad5750805b601f850160051c820191505b818110156114e4578281556001016125b9565b815167ffffffffffffffff8111156125e6576125e6611ff3565b6125fa816125f484546124e1565b84612587565b602080601f83116001811461262d575f84156126165750858301515b5f19600386901b1c1916600185901b1785556114e4565b5f85815260208120601f198616915b8281101561265b5788860151825594840194600190910190840161263c565b508582101561267857878501515f19600388901b60f8161c191681555b5050505050600190811b01905550565b604081525f61269a6040830185611f22565b90508260208301529392505050565b5f602082840312156126b9575f80fd5b5051919050565b8082028115828204841417610b4357610b436124b5565b80820180821115610b4357610b436124b5565b5f816126f8576126f86124b5565b505f190190565b828152604060208201525f6116a06040830184611f22565b5f6bffffffffffffffffffffffff19808760601b168352808660601b16601484015250835161274d816028850160208801611f00565b6028920191820192909252604801949350505050565b81810381811115610b4357610b436124b5565b634e487b7160e01b5f52603160045260245ffdfea264697066735822122048c0d0587b35f4bbd575ab7117dc900d8e6f5bb37dbddb7e88d738415b489e8064736f6c63430008140033",
  "linkReferences": {},
  "deployedLinkReferences": {}
}